:10000000A0290020ED1C0000D50500009D05000082
:100010009D0500009D0500009D0500009D05000058
:100020000000000000000000000000009D0500002E
:100030009D050000000000009D0500000506000071
:1000400049180000911C0000150600002106000060
:1000500000000000000000000000000000000000A0
:100060000000000000000000000000000000000090
:100070000000000000000000000000000000000080
:100080000000000000000000000000000000000070
:10040000FFFFFFFFDFCEFFFFFCFFFF00FFFFFF004E
:10041000FCFFFF00FFFFFF00FCFFFF00FFFFFF00EE
:10042000FCFF0F20FFFF0F20FCFF7F40FFFF7F40FE
:10043000FCFF0D40FFFF0D40FFFFFFFFFFFFFFFF31
:10044000FFFFFFFFFFFFFFFFFFFFFFFFFFFFFFFFBC
:10045000FFFFFFFFFFFFFFFFFFFFFFFFFFFFFFFFAC
:10046000FFFFFFFFFFFFFFFFFFFFFFFFFFFFFFFF9C
:10047000FFFFFFFFFFFFFFFFFFFFFFFFFFFFFFFF8C
:10048000FFFFFFFFFFFFFFFFFFFFFFFFFFFFFFFF7C
:10049000FFFFFFFFFFFFFFFFFFFFFFFFFFFFFFFF6C
:1004A000FFFFFFFFFFFFFFFFFFFFFFFFFFFFFFFF5C
:1004B000FFFFFFFFFFFFFFFFFFFFFFFFFFFFFFFF4C
:1004C000FFFFFFFFFFFFFFFFFFFFFFFFFFFFFFFF3C
:1004D000FFFFFFFFFFFFFFFFFFFFFFFFFFFFFFFF2C
:1004E000FFFFFFFFFFFFFFFFFFFFFFFFFFFFFFFF1C
:1004F000FFFFFFFFFFFFFFFFFFFFFFFFFFFFFFFF0C
:100500000A4B53F8300011F07F03CAB20BD00849F0
:10051000D20901EB0211194491F878301BB137333D
:1005200000EB430070476030704700BF342B000081
:10053000E0050020014B01221A60704700E100E055
:10054000044B0122C3F88020BFF34F8FBFF36F8F9E
:10055000704700BF00E100E010B50446FFF7D0FF90
:10056000014670B12046FFF7EBFF0B8803F0030351
:1005700043F002030B8002230B80BDE81040FFF71D
:10058000D9BF10BD044AB2F8CC309BB243F080030F
:10059000A2F8CC30704700BF0000094000BE704791
:1005A000064B93F826101A6A054B53F82130C2F314
:1005B0000262D340034A1360704700BF00E001406D
:1005C000AC050020C0050020A0F101000028FBD1EF
:1005D0007047FFFF034AB2F840319BB2A2F83031B6
:1005E000704700BF00600040C030054B53F820202A
:1005F0006FF3104243F8202053F82030704700BFBB
:1006000000600040024A136801331360704700BF66
:1006100098110020EFF30380103840B2FFF7E4BFD9
:10062000FFF7F8BF0A4492B291424FEA400001D866
:10063000824201DB121A92B210467047CB6802491F
:100640000B610121184700BFCC050020034A034677
:1006500010780BB1FFF76EBFFFF772BFA80500203F
:10066000024B02225A8000221A717047780700203C
:10067000024B00221A80FFF7F3BF00BF780700206B
:100680000020FFF7F5BFFFFF8B79012B70B512D16A
:10069000CB79022B0FD100238D781846CC79022C10
:1006A0001BD1824209D84FF0E023D3F8F00D10F0AF
:1006B000010025D000BE002022E08C78AC42F2D1AF
:1006C000CE78DCB2A642EED10C78214420448C795D
:1006D000012C80B203F10103E0D04B78212BE2D151
:1006E000084B8A781A70B1F805300930402B80B277
:1006F00006D94FF0E023D3F8F03DDB0700D500BE6C
:1007000070BD00BF7807002010B501F1080400F0AB
:100710000F02D3B2092ACCBF3733303304F8013D7E
:10072000A1424FEA1010F2D110BDFFFF08B50146FB
:10073000FFF75AFFBFF35F8F4B09054A01F01F0116
:100740000120603300FA01F142F8231008BD00BF18
:1007500000E100E0084B1A68084B9A4209D1084BA7
:10076000B3F8B23F03F08103002B0CBF0020082038
:1007700070470720704700BF081100204E45504FBA
:1007800000F07E40084B00221A719A78042A02D1A8
:1007900003229A707047072AFCD11A7812F0040FCE
:1007A00014BF06220822F4E77807002008B5037872
:1007B000012B06D103490B881BB1FFF7E3FF002390
:1007C0000B8008BD06110020EFF31080012383F396
:1007D00010880A4A53889BB24BB90949B1F8FE33D5
:1007E0009BB243F4254343F00203A1F8FE33538840
:1007F00001339BB2538080F3108870474011002072
:1008000000E00140EFF31081012383F310880C4ACC
:1008100053889BB21BB15388013B9BB253805388D2
:100820009BB24BB9074AB2F8FE339BB223F00203E6
:1008300043F42543A2F8FE3381F31088704700BFCC
:100840004011002000E00140064B07481B68B0FB48
:10085000F3F30648B0FBF3F0800801D0FFF7B4BE15
:10086000704700BFC005002000CA9A3B400D03003E
:1008700022F0010330B503445408984207D16FF0C9
:10088000010303FB04220AB103780B7030BD30F87A
:10089000025B0D80F1E7F8B50389448985889BB236
:1008A000A4B2A34236BFC4EB450CA3EB040C9C449A
:1008B0001FFA8CFC654506461ED8002007460346F5
:1008C0000446944228BF14463D19AF422BD1121B57
:1008D00092B23AB1934228BF1346C218904227D130
:1008E00023449CB23189B088224689B2FFF79AFE30
:1008F0003081F8BD5B1B9BB29D42FBD9A5420FD94D
:100900003068A34200EB03072DBFEC1AE31A002066
:10091000A3EB0C0335BF9CB2A4B203469BB2D0E755
:10092000641BA4B2EAE791F800C007F801CBCCE75A
:100930000D7800F8015BD1E72DE9F041B0F808C06F
:10094000438984881FFA8CFC9BB29C4536BFC3EB5D
:100950004405ACEB03056544ADB2AC420746164610
:1009600008D2A4452CBFACEB04030CEB04039BB2F0
:10097000438125463DB92C46A846284612E0ACEBFB
:10098000040C1FFA8CFC6445F9D99C4225D9D7F890
:1009900000809C4508EB030022D82D1BE21A1D4461
:1009A000ACB295B2B54228BF35462A46FFF760FF84
:1009B000721B92B242B1944228BF1446224640466E
:1009C000FFF756FF2544ADB27989B8882A4689B227
:1009D000FFF728FE7881BDE8F0811B1B9BB2D4E7AE
:1009E0004FF000084446DDE72DE9F341174CE58858
:1009F00007463DB925706570A570E570012002B00D
:100A0000BDE8F081B0F85E8008F07F0845452E46CD
:100A100028BF464646B1637A2068DB0707F1140118
:100A200032460CD5FFF788FF464538BF4FF40043E8
:100A3000A5EB060538BF7B84E5800020DFE7019049
:100A4000FFF716FF019830442060EDE7E005002035
:100A50002DE9F347334E0C2303FB01630446B3F83F
:100A600006800D46B8F1000F1AD131B101F13702FD
:100A700034F812305904FBD406E04FF0E023D3F8E9
:100A8000F03DD80700D500BE0C214D43721900235C
:100A90007355012053709370D37002B0BDE8F08796
:100AA0008BB243F480620285A0F86430B0F86CA089
:100AB0001FFA8AFA238D03F00F039D42FAD1638D4A
:100AC0009A04FCD5D045474628BF57467FB14FF022
:100AD0000C0909FB05F906EB090356F809005B7AD6
:100AE000DB0704F118013A4613D5FFF725FF5745F8
:100AF0003CBF4FF40043638500232385208D10F015
:100B00000F00FBD10C2101FB0565A8EB0707EF8067
:100B1000C3E70190FFF7ACFE0198384446F809009E
:100B2000E5E700BFE00500202DE9F0473F4F07EB68
:100B3000D013804693F8274014F0010416464FEA7C
:100B4000D01A0BD04FF0E023D3F8F03DD90703D4EF
:100B500000242046BDE8F08700BEF9E7344A92F849
:100B6000009093F8272042F0010283F82720314BB0
:100B700053F839504846FFF7E3FC0DB900BEFEE7D5
:100B8000B8F1000F3CD04FF484632B842B8C9A0671
:100B9000FCD5294B5A7A9E806FF300025A72DE8090
:100BA000002E3AD01960B8F1000F32D0B5F860309D
:100BB000180403D5B5F85430190627D44FF0E023B4
:100BC000D3F8F03DDA0700D500BE4846FFF7B2FC87
:100BD000002CBED107EB0A0393F8272064F3000230
:100BE00083F8272093F8272064F3820283F82720D4
:100BF0004FF0E023D3F8F03DDB07A9D500BEA8E70E
:100C0000A5F820802B8C9B06FCD4C2E72846FFF772
:100C1000EBFE0124A5F86040D7E71E705E709E7061
:100C2000DE700523A5F860300124CEE7040800201B
:100C3000A8050020342B0000E005002010F0800FF4
:100C40004FF0000211460CBF80201046FFF76CBF2A
:100C500010B40346064C00685968224603C20022BD
:100C6000C4E902225DF8044B1878FFF7E7BF00BF24
:100C7000CC0500202DE9F041184D194E194F804642
:100C800000242978E2B2914210D23B22002116487A
:100C900001F0B4FD1022FF21144801F0AFFDBDE8C2
:100CA000F04113481422FF2101F0A8BD4FF01803B2
:100CB0000CD9396803FB02135BB94FF0E023D3F87A
:100CC000F03DDB0700D500BEBDE8F081521A03FB02
:100CD00002635B68404698470134D2E7C8050020AC
:100CE000802A0000C4050020040800200708002016
:100CF0001708002070B505890389428986889BB250
:100D000092B2934236BFC2EB46029B1A9B189BB22B
:100D10009E420446ADB217D8C079C00914D170BD47
:100D20009B1B9BB2B342FBD2E2882068C2F30E0247
:100D300002FB030001F0C8FCA08801222946FFF74E
:100D400071FC20810120EAE72B46EBE713B5124B3B
:100D50009889D98993F90040421A92B2402A28BF53
:100D60004022002C0EDA884212D099680B4801927A
:100D700001F0AAFC0949019A802002B0BDE81040A8
:100D8000FFF7D2BE88424FF0000003D10021F4E704
:100D90008020FBE70149F0E7CC050020C4070020D4
:100DA00070B50446164D00680B466168AB602E4670
:100DB00003C60021E981E1888A4228BF0A46AA8148
:100DC000E18881B152B14BB94FF0E022D2F8F02D59
:100DD000D20701D4002070BD00BEFBE7FFF7B6FFCD
:100DE00028B10120F7E72078FFF728FFF8E74FF058
:100DF000E023D3F8F03DDB07ECD500BEEBE700BF06
:100E0000CC05002007B58DF800208DF801301A0AB6
:100E10001B0C8DF802208DF803308DF80410002390
:100E2000062269468DF80530FFF7BAFF03B05DF87A
:100E300004FBFFFF2DE9F04F87B0B24B1D68002087
:100E40002B689847A989EB89288989B29BB2994276
:100E500036BFC3EB4002CA1A521894B29CB1A042EA
:100E600005D281422CBF091A09188BB2EB81984236
:100E700026D96A896968C2F30E0202FB031103A82E
:100E800001F022FC0124E9892889224689B2FFF772
:100E9000C9FB2B68E88101209847002C00F0D8831B
:100EA0009DF80D30013B072B00F27683DFE813F04D
:100EB0000B0019007403DE03E20328005303EF0361
:100EC0001B1A9BB2D3E79DF80C00FFF7D3FE142248
:100ED0008D48002101F092FC8C4B9DF810209A70F7
:100EE000ABE79DF80C00FFF7C5FE874814220021F0
:100EF00001F084FC864B002B9FD0AFF300809CE771
:100F0000824CDFF8048223789DF810209DF80C6055
:100F100043F00103237094F827306FF3000384F843
:100F2000273094F827306FF3820384F8273094F841
:100F300028306FF3000384F8283094F828306FF3DA
:100F4000820384F828300023C8F8103002F06003D0
:100F5000602B08D14FF0E023D3F8F03DD80740F1E3
:100F6000818200BE7EE2402B0ED16A4B002B00F046
:100F7000798204AA01213046C8F81030AFF300800E
:100F800000287FF45AAF6DE202F01F02012A00F040
:100F9000E781022A00F03282002ADBD1202B1BD10C
:100FA0009DF814300F2B00F25D822344D9785A4B00
:100FB0001B7899420CD2594B1B6801EB410113EB92
:100FC000C10100F04F8204AA3046FFF737FBD7E794
:100FD00040F048825249F6E7002BBBD19DF8113012
:100FE000092BB7D801A252F823F000BF411300002B
:100FF0002F130000550F00001B130000550F0000B9
:10100000151000000D120000550F00002F100000F9
:101010003910000006AB13E903000023C8E90233CE
:10102000237843F00203C8E90001237005E76378E1
:101030008DF80A3001228DE19DF8127063789F428D
:1010400000F0C5806378A3B13046FFF779FADFF886
:10105000DCC00A254FF00C084FF0010B4FF0000EDA
:10106000013D1ED13046FFF765FAA578FFF702FE75
:10107000A570002F00F0C48023782A49DFF898A0DB
:1010800023F0300323704FF001094B78042B5AD022
:101090004FF0E023D3F8F03DD9077FF55BAF00BEFA
:1010A00058E708FB05C31B7A002BD9D003F07F0952
:1010B0001D4ADB0919010CEB031352F836204B448F
:1010C000D08E93F8783080B20BFA03FA20EA0A0047
:1010D000D0869BB103F1370002EB40006144A0F8D9
:1010E00000E0894498B208FB03C3A2F86400A2F8A8
:1010F00068E083F808E089F878E0B1E702F1600081
:10110000ECE700BF40080020CC05002004080020C8
:101110000000000000000000C8050020C4050020F9
:10112000802A0000C92A0000342B0000E0050020BE
:1011300043780B2B03BF037890F80390C0184FF04F
:1011400001090146A1E79C4BDFF8ACB25A1A92B2F2
:101150004FF000089AF800005FFA88F5A84297D38C
:101160004FF0180312D99548006803FB0503002BC4
:101170008ED09B683046CDE9001298470828DDE9FB
:10118000001237D9824235D3002210E0281A03FB1F
:1011900000B3EEE791F802C0634454FA83F30132DE
:1011A00093F803C0BCF1FF0F7FF472AFDD70D3B2D0
:1011B0009945EFD8084488420ED89AF80030AB42DF
:1011C000FFF466AF7C4B9842B2D37D4BABB96770EE
:1011D00004A8FFF73DFD30E64B78052B07D18A7850
:1011E00002F07F0304EB430303EBD213DD740B78AF
:1011F0001944E0E708F10108ACE7AFF30080E6E747
:10120000704B002BE3D0AFF30080E0E7BDF8120095
:10121000030A5A1EC0B20E2A00F22481DFE812F03F
:101220000F00210030002201220171002100220163
:10123000220122012201220122012201150062491C
:10124000122204A8FFF7ACFD9AE6604B002B00F0D9
:101250000981AFF30080014600283FF47BAE4A8845
:10126000EFE7022B01D15A49F9E75A4B002B00F066
:10127000F980AFF3008000283FF46CAE0146EEE742
:1012800070B955495548022201F01EFA012040006C
:10129000821C534942F440730B8002F0FE02D0E7F7
:1012A000052800F2DF804F4B4F4C53F82050237835
:1012B000BBB94E4BD3F89C3103F114065869214653
:1012C000FFF722FA706804F10801FFF71DFAB06811
:1012D00004F11001FFF718FAF06804F11801FFF7A4
:1012E00013FA284601F0ECFA3D49C0B20023DAB205
:1012F000824203F10103CAD2541CAA5C21F81420D3
:10130000F5E73B4B002B00F0AD80AFF300800146CA
:10131000002800F0A780027893E7BDF81230012B77
:1013200040F0A080237843F00803237050E7BDF815
:101330001230012B40F0968023786FF3C303F4E75B
:101340002378C3F340129B0803F002031343ADF864
:101350000A3002220DF10A0104A8FFF721FD6CE515
:101360009DF814300F2B7DD82344D978214B1B785E
:1013700099421ED2114B1B6801EB410113EBC101D5
:1013800070D004AA3046FFF759F900287FF455AD14
:101390009DF8103013F0600364D19DF81120A2F184
:1013A0000A0101295ED80A2AC8F810307FF410AF6C
:1013B0003EE657D11049E4E7E42A0000C4050020C6
:1013C0000000000000000000E42A0000000000000F
:1013D000C02A0000000000007D2A00007A060020DC
:1013E000780600203C2B00004C11002000B07F400C
:1013F00000000000C8050020802A00009DF814901D
:1014000009F07F02092A3FF6A5AD550004EB420220
:1014100002EBD9124FEAD91AD77CA34A1278974225
:1014200016D2A24A126807EB470702EBC707BBB9FF
:101430009DF8113003F0FD02012A1ED0002B7FF42D
:1014400089AD2C44A2449AF82730C3F340037EE7C9
:1014500040F02581964F002BEAD004AA3946B3E527
:10146000002FFAD19DF80C000021FFF775F89DF8C8
:101470000C008021FFF770F8DFE4BDF81220002A8D
:101480003FD18C4A012B92F800B04BD162195244E3
:101490002032D279920734D5494658460193FFF756
:1014A0002FF80146F8B1844A584652F83B20009282
:1014B000FFF746F84FF48070DDE900230880BAF1A9
:1014C000000F01D00B800BE07C48484490F8780076
:1014D000A2F86400B2F86820C2F38132012AF1D187
:1014E0005846FFF727F82544AA449AF827306FF3A7
:1014F00041038AF827309AF827306FF300038AF8FF
:101500002730002F3FF499AC04AA39463046FFF744
:1015100095F80023C8F8103094F82830DC073FF520
:101520008CAC55E62544AA440AF1200A9AF8073003
:101530009D07E6D449465846FFF70EF89AF807305B
:1015400043F002038AF807309AF8073043F00103AA
:101550008AF80730D5E79DF81010594B01F07F0449
:1015600003EB440303EBD113CF0993F827006FF388
:10157000000083F8270093F827006FF3820083F8B8
:101580002700002C51D14F4C9DF80C502378059E1C
:10159000B7EBD31F18D046B14FF0E023D3F8F03D9E
:1015A000DB077FF54AAC00BE47E4474B1BB1214641
:1015B0002846AFF300802369002B3FF43EAC414A3C
:1015C00003212846984738E494F90030002B07DBC4
:1015D000A06800283FF431AC3C49324601F074F871
:1015E000A268E38932443344A260E2889BB29A4203
:1015F000E38101D03F2E15D8236933B92078FFF756
:101600001DFB00287FF419ACC6E702212D4A2846AD
:10161000984701460028F1D12846FEF79DFF80211A
:10162000284627E7FFF792FBEBE71F4ADB7C12789F
:10163000934210D21D4A126803EB430312EBC3031B
:101640000BD14FF0E023D3F8F03DD90700D500BE11
:1016500007B0BDE8F08FF4D1154B1C699DF811203F
:10166000059B9DF80C00A047FFF7E7BB144B1B78C8
:10167000FFF7E3BB124B1B78DA077FF5DEAB144BA9
:10168000002B3FF4DAABAFF30080FFF7D6BB049B2F
:10169000002B3FF4D2AB05989847FFF7CEBB002B49
:1016A0007FF4E0AE1F46C3E6C8050020C405002055
:1016B000802A0000A8050020342B0000E00500204F
:1016C00004080020CC05002000000000C407002012
:1016D0000000000008B50D4C0D4E256832782368D7
:1016E0005B1B632B0CD9BFF34F8F0A490A4BCA68A7
:1016F00002F4E0621343CB60BFF34F8F00BFFDE7FE
:10170000FF2AECD0FFF796FBE8E700BF9811002016
:10171000A805002000ED00E00400FA052DE9FF41D6
:101720004378023B0446032B12D8DFE803F002396A
:1017300028303F4B1A786FF300021A701A78002194
:101740006FF341021A7059701A7861F382021A70AD
:10175000384B186821460430FFF7CCFA30B94FF007
:10176000E023D3F8F03DDB0700D500BE324B002B61
:1017700048D0617820780122AFF3008042E02C4B02
:101780001A78D5073ED51A7842F00402DFE7284AD6
:101790001378D80736D513786FF382031370D7E721
:1017A000234A1378590724D513786FF382031370F3
:1017B0000023CDE90133039303788DF8043005232A
:1017C0008DF805301B4B186801A90430FFF792FA19
:1017D00030B94FF0E023D3F8F03DDA0700D500BE72
:1017E000154B33B19DF805109DF804000122AFF3AD
:1017F0000080124E124FDFF84C8000253178EAB29B
:10180000914202D204B0BDE8F0814FF018030BD929
:10181000D8F8001003FB021323B15B6913B16168B0
:10182000207898470135E9E7521A03FB0273F4E781
:10183000040800204008002000000000C805002027
:10184000802A0000C40500202DE9F04F89B0EFF395
:101850000380103840B2FEF7C7FEA74BB3F8401024
:10186000CA4362F4784292B2A3F840200A048CB2D0
:101870000CD5B3F8402012F0800FC2F3C0111A88C3
:1018800014BF42F0100261F304121A8067040ED5EF
:101890000025052305A8CDE9055507958DF81530D8
:1018A000FFF73CFF944B1A8E65F34D321A86A6045F
:1018B00011D5914E338E9D040DD50025032305A827
:1018C000CDE9055507958DF81530FFF727FF338EC5
:1018D00065F34D333386E00407D504F07003202B05
:1018E00000F0D7805ED8102B75D022052DD5E307E8
:1018F00040F1EE80804BB3F84020170725D54FF418
:1019000080425A84B3F85420ADF80C20B3F8562026
:10191000ADF80E20B3F85820ADF81020B3F85A20D7
:10192000ADF812204FF6F772A3F840200023CDE95E
:10193000053307930822062303A906A88DF815305E
:1019400000F0C2FE05A8FFF7E9FE660515D56A4856
:10195000B0F84A300022DD07A0F84A200DD5FFF785
:1019600043F850B1654B4FF4E06080229B880793A9
:10197000CDE9050205A8FFF7D1FEE1050FD55E4BC5
:101980005E4CDA8EB3F84660DFF880A1B6B216403E
:10199000F24392B2A3F84620002E40F0B98009B07D
:1019A000BDE8F08F602B04D013D804F06003402B07
:1019B0009BD10023CDE90533079305A804238DF8B7
:1019C0001530FFF7ABFE4C4A138E43F400531386D9
:1019D0008BE7702BECE7484B01225A87DA864FF4ED
:1019E00080425A8400221A851A8D12F00F02FBD110
:1019F0009A859A8D12F00F02FBD1414D41493E4824
:101A0000012394464FF400774FF480761FFA83FE4B
:101A1000A0F864E0A0F868C021F8137021F8132042
:101A200025F823600133062BF0D10025324E2846DD
:101A30004FF400729FB2A6F86470A6F8680021F80F
:101A4000132021F8135001330A2BF3D12B4898228D
:101A5000002100F0D3FE338903F00703013B9BB262
:101A6000022B0DD8284A0795D35C0122CDE90555F4
:101A70008DF815208DF8183005A8FFF74FFE34E7D4
:101A80004FF0E023D3F8F03DD9077FF52EAF00BE2D
:101A90002BE7194BB3F8503013F07F023FF425AF1A
:101AA00000230521CDE905338DF80C308DF80D109C
:101AB000ADF80E20ADF81030ADF8123007930822C3
:101AC000062303A906A88DF8153000F0FDFDD3E725
:101AD00014F007037FF439AF074A128C079312F012
:101AE000200F14BF802200220721CDE905338DF895
:101AF00015108DF8182025E700000940E0050020AA
:101B00008C0009406E0009407A2A00001400094048
:101B100096FAA6F5B5FA85F50C2202FB0542137A72
:101B2000DB091DD058482946FEF792FF90B10C23DF
:101B300003FB054305A89A88197ADB88D31A00228B
:101B4000CDE9052207228DF815208DF8181007938E
:101B5000FFF7E4FD012303FA05F526EA05061BE776
:101B6000494B002D57D0B2F806B0AAB21A85A3F897
:101B70006420B3F86C901FFA89F91A8D02F00F02F5
:101B80009542FAD15A8D9204FCD55F8DC7F30B07AD
:101B90004F4528BF4F460C236B43BB45D84628BF53
:101BA000B846E058E218B8F1000F08D0537ADB07C6
:101BB00022D5364901904246FEF76DFE0198324B20
:101BC000C14584BF4FF480425A8500221A851A8D80
:101BD0001107FCD10C2303FB0542ABEB0801C14507
:101BE000D18001D8BB45B5D86B43E1180022E2543F
:101BF0004A708A70CA7099E7234900EB08020346CD
:101C0000934203D10C226A43A350D8E791F818C03D
:101C100003F801CBF4E7B3F85E905F8CB4F806B03C
:101C2000C7F30B0709F07F094F4528BF4F46BB4557
:101C3000D84628BFB846B8F1000F07D0627A2068AE
:101C4000D20717D542465146FEF725FEC14582BF51
:101C50000D4B4FF480425A84ABEB0803C145E3803F
:101C600002D8BB453FF676AF002323706370A370A4
:101C7000E3705CE700EB0802904201D12060E5E7E9
:101C8000197D00F8011BF7E7000009401800094022
:101C9000FFF7DABD10B5124B4AF68022A3F8B22F37
:101CA000104B81680446062000F07AFE93F8A030BD
:101CB0009B070CBF1020502000F076FE63681A7856
:101CC0006AB193F911402046FEF730FD064B6209D8
:101CD000012004F01F0400FA04F443F8224010BD70
:101CE00000F07E4000E0014000E100E02DE9FF4807
:101CF000C34BC448C44F4FF47002C3F888209F60A0
:101D00004AF20253A0F8FE33012380F81F3490F802
:101D1000B134DD06FBD54FF42543A0F8FE334AF27B
:101D20000353A0F8FE33B94BB949BA4C0022A3F8CB
:101D30000021B94BC3E900414FF40041C3E902124D
:101D40001A61FEF72DFC012380F8803490F8A03052
:101D5000002B40F01A82AB48002380F8363090F810
:101D60003C30DE07FBD50124AC4B80F831400362E8
:101D7000002380F82630FEF713FC4FF4254380F84B
:101D8000D040A0F8FE33A14BA3F80441B3F804619E
:101D9000B6B2002EFAD14FF00108A3F800818DF8F9
:101DA00017609DF81730FEF70FFDEFF3108288F3F0
:101DB00010889B4CD4F8043123F00043C4F804315C
:101DC000D4F8043182F31088964D2B68C3F30003D6
:101DD0008DF817302B68C3F300038DF817302B688C
:101DE000C3F300038DF81730EFF3108288F31088E7
:101DF000D4F8043143F00043C4F80431D4F804317A
:101E000082F31088FEF7FEFC874B88489E804FF4D3
:101E100025421A803A68864FA2F500619960DA601F
:101E2000844A4FF48051A2F82011834AA3F8048019
:101E3000121A314600F0E2FC8048814A8149121AA8
:101E400000F042FC804BFF1ABF109846B74200F3E7
:101E5000B281FEF7A5FB7D4B002683F82860FEF7D4
:101E6000B3FC684B83F8BB64FEF7CCFC784A71493D
:101E7000334603F1C000013312F8016B41F82060D2
:101E8000202BF6D162B6DFF8E8B1724ADBF80030F9
:101E9000934200F08E80DFF8DC815A4E6B4FCBF816
:101EA00000200023C24600936B4B01934FF00009C2
:101EB000019A32F8023B0192BAF804209A422AD1E0
:101EC000012303FA09F2DAF8003096F8BB1403F0A4
:101ED000B853B3F1807FD2B209F1200340F0708192
:101EE00011420CD1CDE90223FEF76EFC96F8BB142B
:101EF000029A0A4386F8BB24FEF784FC039B17F87A
:101F00001320D20907D117F8132042F0800207F8F6
:101F10001320FEF799FC09F10109B9F1030FC7D1AC
:101F2000009B0133052B00930AF1080ABCD1EFF3A3
:101F30001080012383F31088484B196819B9484A67
:101F4000D1704021D1701A6801321A6080F3108874
:101F50000020B8F80410D8F800600A0A16F4803F90
:101F6000C9B24FEA02120AD0571855F827C06FF3CA
:101F7000104C45F827C026F4803C45F827C00A4499
:101F80000130052845F8226008F10808E1D1EFF397
:101F90001081012282F310881A6812B11A68013A7E
:101FA0001A601A681AB92E4BDA708022DA7081F33F
:101FB00010882C4F4FF47A723B68B3FBF2F3013B6D
:101FC000B3F1807F0AD24FF0E022F02153610C4B35
:101FD00083F823100023936107231361DBF800309B
:101FE0001C4A934202BF204B4FF000629A62054B9D
:101FF0001E4AD3F80015914240F0FC803CE000BF3F
:1020000000ED00E000E001400000000000C00140E1
:1020100000127A00006CDC02AC0500200001011007
:10202000006F044000080440000D0040C00500207F
:10203000AC050020006000409C1100200000002042
:10204000AC050020542B0000AC05002000400440EB
:102050000C2B000054524F502C2B00004811002034
:10206000000D0440C00500200000044035817307C6
:1020700090110020982A00004AF20252A3F8FE2391
:102080000022C3F800254FF42542A3F8FE23BA4DE1
:10209000BA4E2B68B34274D0B94B6B60B9483A68FA
:1020A000002385F83430016AC1F3026302FA03F3B6
:1020B000C1F30271CB40B449EB608B4209D8B349FC
:1020C0008B4206D0B2498B4203D0B2498B4240F0DA
:1020D000F080006AAD4FC0F3026002FA00F1C14027
:1020E00003F5742303F23F2301F57421B3FBF7F3E7
:1020F000EB6040F28353062001F23F21B1FBF7F180
:102100004B43B3FBF0F32B6140F276334B43B3FB0D
:10211000F0F36B6158234B43B3FBF0F3AB619E4B81
:102120009E4FA9604B43B3FBF0F3EB619C4B4B43D9
:10213000B3FBF0F32B629B4B4B43B3FBF0F36B62AF
:10214000994B002283F8C02F97F89030012B04D0D0
:10215000012387F8903000F023FC8748FFF79AFDB1
:10216000EB68D7F8D8218448013B03F01F0363F3E1
:102170000502C7F8D82100F01FFC002840F0958028
:102180002E607D4800F014FC93E090F836207D4BE3
:102190001AB993F83C20D107FBD593F8A020C2F3DD
:1021A0000011D206F9D4774A83F8A01092F8A03033
:1021B000DB06FBD4CFE558F8043B9847013645E6EB
:1021C00011420DD0CDE90223FEF7FEFA96F8BB14BA
:1021D000029A21EA020286F8BB24FEF713FB039B56
:1021E00017F81320D2093FF496AE17F813206FF3B7
:1021F000C7128CE693F81014CD0709D44AF20251A5
:10220000A3F8FE13C3F800254FF42542A3F8FE23DC
:10221000664A1368B3F5FA7FFBD35A4B4AF202566B
:1022200000214FF425454FF48042A3F8FE63C3F824
:102230000015A3F8FE53106800F07F40B0F1005F76
:102240007FF425AFA3F8FE63EFF3108C012686F32D
:102250001088D4F8000140F40060C4F80001D4F8FC
:1022600000018CF31088EFF3108C86F31088D4F8FB
:10227000000140F48050C4F80001D4F800018CF350
:102280001088A3F8FE534A4B998072B6BFF34F8F64
:10229000BFF36F8F4FF0E0231961C3F8082D136867
:1022A00083F3088853689847F1E62B68B3423FF4FC
:1022B00068AF404D2B78FF2B40F09D803B223E487D
:1022C000002100F09BFA3D4B0022DA819A813C4AC2
:1022D00013603C4B23B13C48AFF300803B4B18608C
:1022E000394FDFF8F080DFF8E49000263978F2B259
:1022F0008A4271D900232B70D4F8003123F4006393
:10230000C4F80031324B1A8842F480621A801A886D
:102310005105FCD51A886FF345121A801A886FF39D
:1023200086121A801A8842F001021A800522C3F828
:10233000F020D3F800246FF30412C3F80024B3F89C
:102340005E20402161F30602A3F85E200022A3F87C
:1023500040204FF45D421A8601225A87DA86B3F88C
:102360004020120642BF1A8842F010021A80002054
:10237000FEF7E0F83FE000BF081100204E45504F47
:10238000F82A000000E00140FF083D0040420F0035
:1023900080841E00C0C62D00B86A050000C07E40C3
:1023A000D066050068ED220000F07E409811002004
:1023B000000D0040A805002004080020980500201A
:1023C0004008002000000000C8050020C4050020CF
:1023D00000000940802A00004FF0180311D2D9F8FC
:1023E000001003FB02137BB94FF0E023D3F8F03D5C
:1023F000D80700D500BEFEF7C5F82B78FF2B07D114
:10240000FEE7521A03FB02831B68984701366DE70B
:10241000FEF710FDF1E700BF10B5104B1988FEF76D
:1024200099F9C8B90E4A02EA8112A2F56E33013B4E
:102430006FF47E318B420FD30A490B4CB1F5802FDC
:1024400084F8340008D920464FF40063BDE81040FA
:1024500002F5804200F0B8BA10BD00BF04090020A8
:1024600000F8FFFF060900200811002070B50C4697
:10247000117801F01F03012B154640F0118111F076
:1024800060011CD153780A2B10D00B2B40F008812F
:10249000012C01D0012424E0824B52885A70FEF7AF
:1024A000DFF82846BDE87040FEF7D2BB012CF1D121
:1024B0007D4922462846BDE87040FEF771BC2029C0
:1024C00040F0EE805378062B00F2EA80DFE803F05C
:1024D00004321C520F140F00012C04D12846FEF7C1
:1024E000B7FB204670BD032CD4D1FFF7F3F8012CC5
:1024F000D0D1FEF7B5F8F1E7012CCBD16B492246DC
:102500002846FEF74DFCECE7012CC3D1654E34782C
:1025100014F00204E5D0EC88402C00F2C1806988F8
:102520002246614306F10C0000F0CEF8224606F187
:102530000C01BFE7012CADD15A4B1C7814F00104FB
:10254000CFD09A78022A02D0052A40F0A980EA88E2
:10255000402A00F2A58001221A716A88DA80EA888E
:102560001A81EA881AB1032199705149A2E706221B
:102570009A7096E74B4A9178032905D0062953D0E3
:10258000012C87D1002309E0012C0BD113793BB139
:102590005378002B0CBF002364230421D2784EE033
:1025A0000521FBE7032C7FF475AF1479002C38D09C
:1025B0000423D18893703F4B1589198001F58071F0
:1025C000890111F4F86F14D172B6FEF7C3F878B927
:1025D000394EB1F5802F86F8340009D221F4FF611D
:1025E0004FF40063012221F00701304600F0E8F9C2
:1025F00062B6324E324833882D492A46184400F0DC
:1026000063F833881D44ADB2B5F5006F358005D150
:1026100072B6FFF701FF62B600233380FEF7B2F80F
:102620005FE70523937035E7012C0DD11379D2783C
:10263000002B08BF02214FF0000318BF07212846D6
:10264000BDE87040FEF7DEBB032C7FF423AF1479A6
:1026500024B30723937072B6FFF7DEFE62B6FEF76F
:1026600091F8FEF777F800287FF414AF124B18604A
:102670005B6893F9113013F1210F3FF40BAF5A0946
:10268000012103F01F0301FA03F320320D4941F841
:102690002230BFF34F8FBFF36F8F22E70223C1E7D2
:1026A00000241EE778070020790700207A07002021
:1026B00084070020040900200811002006110020D2
:1026C0000609002000E100E0844641EA000313F01F
:1026D00003036DD1403A41D351F8043B40F8043B29
:1026E00051F8043B40F8043B51F8043B40F8043BEC
:1026F00051F8043B40F8043B51F8043B40F8043BDC
:1027000051F8043B40F8043B51F8043B40F8043BCB
:1027100051F8043B40F8043B51F8043B40F8043BBB
:1027200051F8043B40F8043B51F8043B40F8043BAB
:1027300051F8043B40F8043B51F8043B40F8043B9B
:1027400051F8043B40F8043B51F8043B40F8043B8B
:1027500051F8043B40F8043B403ABDD2303211D32B
:1027600051F8043B40F8043B51F8043B40F8043B6B
:1027700051F8043B40F8043B51F8043B40F8043B5B
:10278000103AEDD20C3205D351F8043B40F8043B2B
:10279000043AF9D2043208D0D2071CBF11F8013B29
:1027A00000F8013B01D30B8803806046704700BFEF
:1027B000082A13D38B078DD010F003038AD0C3F1FE
:1027C0000403D21ADB071CBF11F8013B00F8013BE0
:1027D00080D331F8023B20F8023B7BE7043AD9D39F
:1027E000013A11F8013B00F8013BF9D20B78037074
:1027F0004B7843708B78837060467047830730B5A1
:1028000048D0541E002A3FD0CAB2034601E0013C22
:102810003AD303F8012B9D07F9D1032C2DD9CDB262
:1028200045EA05250F2C45EA054536D9A4F11002E5
:1028300022F00F0C03F1200EE6444FEA121C03F1C4
:10284000100242E9045542E9025510327245F8D1AE
:102850000CF1010214F00C0F03EB021204F00F0C48
:1028600013D0ACF1040323F003030433134442F800
:10287000045B9342FBD10CF003042CB1CAB21C449C
:1028800003F8012B9C42FBD130BD64461346002C5B
:10289000F4D1F9E703461446BFE71A46A446E0E739
:1028A000FFFFFFFFFFFFFFFFFFFFFFFFFFFFFFFF38
:1028B000FFFFFFFFFFFFFFFFFFFFFFFFFFFFFFFF28
:1028C00090F800F06DE9024520F007016FF0000C70
:1028D00010F0070491F820F040F049804FF0000418
:1028E0006FF00700D1E9002391F840F000F10800F3
:1028F00082FA4CF2A4FA8CF283FA4CF3A2FA8CF32B
:102900004BBBD1E9022382FA4CF200F10800A4FA91
:102910008CF283FA4CF3A2FA8CF3E3B9D1E90423E5
:1029200082FA4CF200F10800A4FA8CF283FA4CF31C
:10293000A2FA8CF37BB9D1E9062301F1200182FAD6
:102940004CF200F10800A4FA8CF283FA4CF3A2FADC
:102950008CF3002BC6D0002A04BF04301A4612BAEA
:10296000B2FA82F2FDE8024500EBD2007047D1E9ED
:10297000002304F00305C4F100004FEAC50514F07C
:10298000040F91F840F00CFA05F562EA05021CBF4D
:1029900063EA050362464FF00004A9E7FFFFFFFF6B
:1029A0005FF800F07D0000205FF800F08F0000204D
:1029B0005FF800F0390100205FF800F0B900002056
:1029C0005FF800F0110300205FF800F039040020E8
:1029D00000000504342E352E30004275696C7420D9
:1029E000776974682052656E6573617320416476FF
:1029F000616E63656420466C657869626C6520531E
:102A00006F667477617265205061636B61676520E2
:102A100076657273696F6E20342E352E30004172E8
:102A20006475696E6F00554E4F205234204D696EAB
:102A3000696D61204446550040436F6465466C6192
:102A40007368202F307830303030303030302F38CD
:102A50002A324B612C3132302A324B6700404461BC
:102A60007461466C617368202F30783038303030B4
:102A70003030302F382A314B67000100020904FF43
:102A80008106000071060000890600006D24000028
:102A90000000000000000000040000000B01000026
:102AA000000000000A0100000000011307040000FC
:102AB000000001130E090000000001130F090000BF
:102AC0000902240001010080320904000000FE0117
:102AD00002040904000100FE010205092107E803C0
:102AE000400001011201000200000040412369037F
:102AF000000101020301FFFF00000000AD0700001C
:102B000000000000000000000207020833343132E8
:102B100000000000000000000000000000000000B5
:102B20000000000000000000000000000204030498
:102B30000404FFFF00000940000000007D2A00009F
:102B40001E2A0000262A00004C110020382A00000E
:042B50005D2A0000FA
:102B540010B5431E19440B4B93F804416FF3000462
:102B640083F80441040C80B2A3F81041D2B2A3F854
:102B74000801080C89B2C3F82001A3F8181183F8DE
:102B8400142110BD00C07E4082B00F4B0190D3F8D9
:102B94002C2151060FD5002283F814210190D3F87B
:102BA4002C21C2F38010520608D5019A2AB1019A49
:102BB400013A0192F3E7019A12B9142002B0704766
:102BC400019A013A0192E2E700C07E4041430329A1
:102BD40004D98908A1F101010029FBD17047094BEF
:102BE400A522C3F88021C243D2B283F8000183F83E
:102BF400002183F8000193F80031834200D100BF23
:102C0400704700BF00C07E4073B51D4EB6F8B24F8A
:102C1400A4B24FF49643012C0546019309D19220A6
:102C2400FFF7DDFF0320A968FFF7D0FF1220FFF7AD
:102C3400D6FF0820FFF7D3FFA96806204FF42A43E4
:102C4400FFF7C4FFA6F8B23FB6F8B20F80B270B96E
:102C5400012C0AD10B4BA3F80441B3F8040180B250
:102C64000028FAD10122A3F8002102B070BD019B13
:102C74001BB1019B013B0193E6E71420F5E700BF7C
:102C840000F07E4000C0014010B5002380F83430CD
:102C94000C4BB3F8B23F9BB204460BB900F020FAD8
:102CA400094BD3F8242142F00102C3F82421D3F8BC
:102CB40024216FF30002C3F824212046BDE810400C
:102CC400A2E700BF00F07E4000C07E40F8B5054694
:102CD400084616461F46FFF757FF1428044604D13A
:102CE4002846FFF7D1FF2046F8BD054BD3F8F04145
:102CF4003440F8D02846FFF7C7FF3C46F3E700BF4F
:102D040000C07E4010B50023934200D110BDCC5CBE
:102D1400C4540133F8E738B51D4B0022A3F8002151
:102D240043681A7804467AB193F9113001215A099B
:102D340003F01F0301FA03F32032164941F822304D
:102D4400BFF34F8FBFF36F8F134B4AF60122A3F8E3
:102D5400B22F1220FFF743FF104BA1680320FFF7A7
:102D640035FF93F8A0300340002B0BBF8221C22112
:102D74009220D2200CBF06250425FFF730FF084619
:102D8400FFF72DFFA1682846BDE838401EE700BFC5
:102D940000C0014000E100E000F07E4000E001409E
:102DA40082B00F4B0190D3F82C2111060FD50022CD
:102DB400C3F8DC210190D3F82C21C2F3C010120611
:102DC40008D5019A2AB1019A013A0192F3E7019ACE
:102DD40012B9142002B07047019A013A0192E2E755
:102DE40000C07E4038B50546406AFFF7D9FF142875
:102DF400044604D12846FFF747FF204638BD054B5B
:102E0400D3F8F04114F01204F7D02846FFF73CFF42
:102E14001824F2E700C07E40F8B5054614460F4674
:102E24001E46FFF778FF214683223846FFF790FEBF
:102E34000334A969A4084FF4FC73102261432846A3
:102E4400FFF744FF48B9054BD3F82831C3F3C00357
:102E540033702846BDE8F840D6E6F8BD00C07E4091
:102E6400F8B5044615460E461F46FFF754FF0D4BB2
:102E740093F804216FF3000283F8042107FB05F1A2
:102E840084223046FFF764FEE16919231122694365
:102E94002046FFF71BFF18B92046BDE8F840B3E60B
:102EA400F8BD00BF00C07E402DE9F84F894680463A
:102EB4009246FFF730FF214C4D4683274FF6FF7BA8
:102EC40094F8043143F0010384F80431BAF1000F9B
:102ED4001DD1C4F830B1C4F838B1C4F8DC7140462F
:102EE400FFF780FF94F804316FF30003013784F88F
:102EF4000431064618B9872F05F10405E0D1404690
:102F0400FFF782FE002E18BF3046BDE8F88F6A78BE
:102F14002B7843EA0223C4F83031BB00B3F5067FB3
:102F24000DBFB9F80E30EA78AB784AEA030318BF4C
:102F340043EA0223C4F83831CFE700BF00C07E4023
:102F440013B5104C0B0C89B2A4F810310822A4F864
:102F5400081101466846FFF7D5FEBDF80030C4F8F5
:102F64003031BDF80230C4F83831BDF80430C4F84B
:102F74004031BDF80630C4F84431812384F814315B
:102F840002B010BD00C07E40F8B5044617460E4698
:102F94001D46FFF7C0FEC4E90A67154AED0825631C
:102FA40092F804316FF3000382F804310025236B97
:102FB400BBB10DB12846F8BDD4E90A01FFF7C0FF43
:102FC400A36A21690833A362E36A0833E362236BCB
:102FD400013B2363122218232046FFF777FE0546A0
:102FE400E5E7002DE6D12046FFF70EFEE2E700BF3D
:102FF40000C07E400C4B5AB9C0F38F20C1F38F211F
:10300400C3F830018222C3F83811C3F8DC217047B9
:1030140040F47E404FF6FF7240F0FF00C3F83821C1
:10302400C3F830018122F0E700C07E40F8B51646AF
:1030340007460D46164CFFF76EFE6EB1D4F8D83134
:1030440065F38713C4F8D83100253846FFF7DCFD53
:10305400002D18BF2846F8BD94F8043115F0010F6F
:1030640043F0010384F804310CBF4FF48070002056
:1030740001223146FFF7BEFF3846FFF7B3FE94F84E
:10308400043166F30003054684F80431DDE700BF2C
:1030940000C07E4073B5114E019205460C46FFF701
:1030A4003AFE96F8043143F0010386F8043101999D
:1030B40000222046FFF79EFF2846FFF793FE96F86E
:1030C40004316FF30003044686F804312846FFF701
:1030D4009BFD002C18BF204602B070BD00C07E408E
:1030E4005FF800F0951C00004D0600004408002025
:0C30F40010000C0000000000FF000000B5
:020000040101F8
:10001800FFFFFFFFFFFFFFFFFFFFFFFFFFFFFFFFE8
:0C002800FFFFFFFFFFFFFFFFFFFFFFFFD8
:0400000300001CEDF0
:00000001FF
