:10000000A8290020B51C0000D50500009D050000B2
:100010009D0500009D0500009D0500009D05000058
:100020000000000000000000000000009D0500002E
:100030009D050000000000009D0500000506000071
:10004000FD170000591C00001506000021060000E5
:1000500000000000000000000000000000000000A0
:100060000000000000000000000000000000000090
:100070000000000000000000000000000000000080
:100080000000000000000000000000000000000070
:10040000FFFFFFFFDFCEFFFFFCFFFF00FFFFFF004E
:10041000FCFFFF00FFFFFF00FCFFFF00FFFFFF00EE
:10042000FCFF0F20FFFF0F20FCFF7F40FFFF7F40FE
:10043000FCFF0D40FFFF0D40FFFFFFFFFFFFFFFF31
:10044000FFFFFFFFFFFFFFFFFFFFFFFFFFFFFFFFBC
:10045000FFFFFFFFFFFFFFFFFFFFFFFFFFFFFFFFAC
:10046000FFFFFFFFFFFFFFFFFFFFFFFFFFFFFFFF9C
:10047000FFFFFFFFFFFFFFFFFFFFFFFFFFFFFFFF8C
:10048000FFFFFFFFFFFFFFFFFFFFFFFFFFFFFFFF7C
:10049000FFFFFFFFFFFFFFFFFFFFFFFFFFFFFFFF6C
:1004A000FFFFFFFFFFFFFFFFFFFFFFFFFFFFFFFF5C
:1004B000FFFFFFFFFFFFFFFFFFFFFFFFFFFFFFFF4C
:1004C000FFFFFFFFFFFFFFFFFFFFFFFFFFFFFFFF3C
:1004D000FFFFFFFFFFFFFFFFFFFFFFFFFFFFFFFF2C
:1004E000FFFFFFFFFFFFFFFFFFFFFFFFFFFFFFFF1C
:1004F000FFFFFFFFFFFFFFFFFFFFFFFFFFFFFFFF0C
:100500000A4B53F8300011F07F03CAB20BD00849F0
:10051000D20901EB0211194491F878301BB137333D
:1005200000EB430070476030704700BFFC2A0000BA
:10053000E0050020014B01221A60704700E100E055
:10054000044B0122C3F88020BFF34F8FBFF36F8F9E
:10055000704700BF00E100E010B50446FFF7D0FF90
:10056000014670B12046FFF7EBFF0B8803F0030351
:1005700043F002030B8002230B80BDE81040FFF71D
:10058000D9BF10BD044AB2F8CC309BB243F080030F
:10059000A2F8CC30704700BF0000094000BE704791
:1005A000064B93F826101A6A054B53F82130C2F314
:1005B0000262D340034A1360704700BF00E001406D
:1005C000AC050020C0050020A0F101000028FBD1EF
:1005D0007047FFFF034AB2F840319BB2A2F83031B6
:1005E000704700BF00600040C030054B53F820202A
:1005F0006FF3104243F8202053F82030704700BFBB
:1006000000600040024A136801331360704700BF66
:10061000A0110020EFF30380103840B2FFF7E4BFD1
:10062000FFF7F8BF0A4492B291424FEA400001D866
:10063000824201DB121A92B2104670474B6902499E
:100640000B610121184700BFCC050020034A034677
:1006500010780BB1FFF76EBFFFF772BFA80500203F
:10066000024B02225A8000221A7170477C07002038
:10067000024B00221A80FFF7F3BF00BF7C07002067
:100680000020FFF7F5BF01207047FFFF8B79012B9A
:1006900070B512D1CB79022B0FD100238D7818467B
:1006A000CC79022C1BD1824209D84FF0E023D3F839
:1006B000F00D10F0010025D000BE002022E08C7863
:1006C000AC42F2D1CE78DCB2A642EED10C78214415
:1006D00020448C79012C80B203F10103E0D04B78E7
:1006E000212BE2D1084B8A781A70B1F80530093015
:1006F000402B80B206D94FF0E023D3F8F03DDB0762
:1007000000D500BE70BD00BF7C07002010B501F110
:10071000080400F00F02D3B2092ACCBF37333033BC
:1007200004F8013DA1424FEA1010F2D110BDFFFFC5
:1007300008B50146FFF758FFBFF35F8F4B09054A25
:1007400001F01F010120603300FA01F142F823108B
:1007500008BD00BF00E100E0084B1A68084B9A4250
:1007600009D1084BB3F8B23F03F08103002B0CBF53
:100770000020082070470720704700BF101100209C
:100780004E45504F00F07E40084B00221A719A7877
:10079000042A02D103229A707047072AFCD11A78E2
:1007A00012F0040F14BF06220822F4E77C07002091
:1007B00008B50378012B06D103490B881BB1FFF75D
:1007C000E3FF00230B8008BD0E110020EFF3108023
:1007D000012383F310880A4A53889BB24BB9094915
:1007E000B1F8FE339BB243F4254343F00203A1F872
:1007F000FE33538801339BB2538080F310887047D7
:100800004811002000E00140EFF31081012383F341
:1008100010880C4A53889BB21BB15388013B9BB292
:10082000538053889BB24BB9074AB2F8FE339BB250
:1008300023F0020343F42543A2F8FE3381F310882A
:10084000704700BF4811002000E00140064B0748F8
:100850001B68B0FBF3F30648B0FBF3F0800801D04F
:10086000FFF7B2BE704700BFC005002000CA9A3B28
:10087000400D030022F0010330B5034454089842B0
:1008800007D16FF0010303FB04220AB103780B7058
:1008900030BD30F8025B0D80F1E7F8B5038944897B
:1008A00085889BB2A4B2A34236BFC4EB450CA3EB30
:1008B000040C9C441FFA8CFC654506461ED800209B
:1008C000074603460446944228BF14463D19AF42EA
:1008D0002BD1121B92B23AB1934228BF1346C218D1
:1008E000904227D123449CB23189B088224689B2F4
:1008F000FFF798FE3081F8BD5B1B9BB29D42FBD990
:10090000A5420FD93068A34200EB03072DBFEC1AB4
:10091000E31A0020A3EB0C0335BF9CB2A4B203463C
:100920009BB2D0E7641BA4B2EAE791F800C007F8D5
:1009300001CBCCE70D7800F8015BD1E72DE9F04160
:10094000B0F808C0438984881FFA8CFC9BB29C4590
:1009500036BFC3EB4405ACEB03056544ADB2AC4216
:100960000746164608D2A4452CBFACEB04030CEB9B
:1009700004039BB2438125463DB92C46A846284630
:1009800012E0ACEB040C1FFA8CFC6445F9D99C42D4
:1009900025D9D7F800809C4508EB030022D82D1BF1
:1009A000E21A1D44ACB295B2B54228BF35462A467C
:1009B000FFF760FF721B92B242B1944228BF144607
:1009C00022464046FFF756FF2544ADB27989B888E4
:1009D0002A4689B2FFF726FE7881BDE8F0811B1B0D
:1009E0009BB2D4E74FF000084446DDE72DE9F34120
:1009F000154CE588074625B92560012002B0BDE801
:100A0000F081B0F85E8008F07F0845452E4628BF8B
:100A100046463EB1637A206807F11401324663B15D
:100A2000FFF78CFF464538BF4FF40043A5EB0605A2
:100A300038BF7B84E5800020E0E70190FFF71AFFD4
:100A4000019830442060EDE7E00500202DE9F347F0
:100A50000C23274D4B43EA180446D7880E4627B986
:100A6000EF50012002B0BDE8F0878BB243F4806202
:100A70000285A0F86430B0F86CA01FFA8AFA238DC2
:100A800003F00F039E42FAD1638D9B04FCD55745BA
:100A9000B84628BFD046B8F1000F0ED04FF00C0971
:100AA00009FB06F905EB090355F809005B7A04F127
:100AB000180142469BB1FFF741FFD0453CBF4FF4C0
:100AC0000043638500232385208D10F00F00FBD1A8
:100AD0000C2101FB0655A7EB0807EF80C2E7019048
:100AE000FFF7C8FE0198404445F80900E5E700BF5C
:100AF000E00500202DE9F0473C4E06EBD0138A4676
:100B000093F8294014F00104074611464FEAD01922
:100B10000BD04FF0E023D3F8F03DD90703D40024E5
:100B20002046BDE8F08700BEF9E7314A92F8008020
:100B300093F8292042F0010283F829202D4B53F825
:100B400038504046FFF7FCFC0DB900BEFEE7002F11
:100B50003AD04FF484632B842B8C9A06FCD5264B19
:100B600000225A729980D980002939D0C3F800A098
:100B7000002F31D0B5F86030180403D5B5F85430E3
:100B8000190626D44FF0E023D3F8F03DDA0700D55C
:100B900000BE4046FFF7CEFC002CC1D106EB090396
:100BA00093F8292064F3000283F8292093F8292080
:100BB00064F3820283F829204FF0E023D3F8F03D5C
:100BC000DB07ACD500BEABE72F842B8C9B06FCD497
:100BD000C5E72846FFF70AFF0124A5F86040D8E7DB
:100BE00019600523A5F860300124D2E70808002029
:100BF000A8050020FC2A0000E005002010F0800F6E
:100C00004FF0000211460CBF80201046FFF772BF64
:100C100010B40346064C00685968224603C20022FD
:100C2000C4E902225DF8044B1878FFF7E7BF00BF64
:100C3000CC0500202DE9F041174D184E184F804685
:100C400000242A78E3B29A4210D23D2200211548AE
:100C500001F0C2FD1022FF21134801F0BDFDBDE8E7
:100C6000F04112481422FF2101F0B6BD0CD93A68B8
:100C700012EB43130BD14FF0E023D3F8F03DDB0729
:100C800000D500BEBDE8F0819B1A06EB4313DB687C
:100C9000404698470134D4E7C8050020402A0000A8
:100CA000C4050020080800200D0800201D080020B1
:100CB00070B505890389428986889BB292B29342B6
:100CC00036BFC2EB46029B1A9B189BB29E4204465B
:100CD000ADB217D8C079C00914D170BD9B1B9BB2AF
:100CE000B342FBD2E2882068C2F30E0202FB03008B
:100CF00001F0D8FCA08801222946FFF793FC20814F
:100D00000120EAE72B46EBE713B5124B9889D98906
:100D100093F90040421A92B2402A28BF4022002C88
:100D20000EDA884212D099680B48019201F0BAFCA1
:100D30000949019A802002B0BDE81040FFF7DABEF1
:100D400088424FF0000003D10021F4E78020FBE748
:100D50000149F0E7CC050020C807002070B5044623
:100D6000164D00680B466168AB602E4603C6002135
:100D7000E981E1888A4228BF0A46AA81E18881B1D7
:100D800052B14BB94FF0E022D2F8F02DD20701D486
:100D9000002070BD00BEFBE7FFF7B6FF28B10120C1
:100DA000F7E72078FFF72AFFF8E74FF0E023D3F8C2
:100DB000F03DDB07ECD500BEEBE700BFCC05002023
:100DC00007B58DF800208DF801301A0A1B0C8DF83C
:100DD00002208DF803308DF80410002306226946A6
:100DE0008DF80530FFF7BAFF03B05DF804FBFFFF95
:100DF0002DE9F04F87B0A24B1D6800202B68984763
:100E0000A989EB89288989B29BB2994236BFC3EB85
:100E10004002CA1A521894B29CB1A04205D2814233
:100E20002CBF091A09188BB2EB81984226D96A891E
:100E30006968C2F30E0202FB031103A801F032FC41
:100E40000124E9892889224689B2FFF7EBFB2B6848
:100E5000E88101209847002C00F0CE839DF80D30EA
:100E6000013B072B00F27483DFE813F00B0019003D
:100E7000ED03D403D80328005103E5031B1A9BB2EA
:100E8000D3E79DF80C00FFF7D5FE14227D48002122
:100E900001F0A2FC7C4B9DF810209A70ABE79DF806
:100EA0000C00FFF7C7FE77481422002101F094FCE4
:100EB000764B002B9FD0AFF300809CE7724CE37819
:100EC000013BDBB2E370E27802F0FF03002A92D12B
:100ED0002278DFF8B0819DF80C60C8F8103042F03D
:100EE0000102227094F8292063F3000284F829207B
:100EF00094F8292063F3820284F8292094F82A20A8
:100F000063F3000284F82A2094F82A2063F3820213
:100F100084F82A209DF8102002F06003602B08D18D
:100F20004FF0E023D3F8F03DD80740F1858200BEB2
:100F300082E2402B0ED1564B002B00F07D8204AA9A
:100F400001213046C8F81030AFF3008000287FF44C
:100F500052AF71E202F01F02012A00F0EE81022A74
:100F600000F03882002ADBD1202B1CD19DF81430F0
:100F70000F2B00F26182474A234411785B798B4240
:100F80000AD2454A116811EB431100F0558204AAB8
:100F90003046FFF753FBD9E740F04E825B1A3F49DA
:100FA00001EB4311F3E7002BBAD19DF81130092B67
:100FB000B6D801A252F823F01B1300000913000059
:100FC000210F0000F5120000210F0000E10F0000CA
:100FD000E7110000210F0000FB0F000005100000CA
:100FE00006AB13E903000023C8E90233237843F07A
:100FF0000203C8E900012370FDE663788DF80A302A
:10100000012294E19DF8127063789F4200F0CC8039
:101010006378EBB1224BDFF8908053F8361000254F
:1010200088F898500B8E65F34D330B863046FFF7EA
:1010300087FA01F1600B43464FF00A0EBEF1010E34
:1010400034D13046FFF776FAA578FFF7F3FDA570A7
:10105000002F00F0C28023781249DFF838A023F077
:10106000300323704FF001094B78042B5BD04FF015
:10107000E023D3F8F03DDD077FF552AF00BE4FE728
:1010800048080020CC0500200808002000000000CF
:1010900000000000C8050020C4050020402A000010
:1010A000FC2A0000912A0000E005002093F874203B
:1010B00052B302F07F09D209100108EB02124A4430
:1010C000B1F836C092F878204FF0010A1FFA8CFC74
:1010D0000AFA02FA2CEA0A0CA1F836C0B2B102F1FF
:1010E000370C01EB4C0CACF800501FFA82FCA1F855
:1010F00064C040444FF00C0C0CFB02828144A1F808
:101100006850157289F878500C3B97E7DC46EAE79F
:1011100043780B2B03BF037890F80390C0184FF06F
:1011200001090146A0E79A4BDFF8A4B25A1A92B21D
:101130004FF000089AF800305FFA88F5AB4296D37A
:1011400011D9944B1B6813EB451390D01B693046A3
:10115000CDE9001298470828DDE9001237D982420C
:1011600035D3002210E0EB1A0BEB4313EEE791F8B6
:1011700002C0634454FA83F3013293F805C0BCF112
:10118000FF0F7FF474AF5D71D3B29945EFD8084477
:1011900088420ED89AF80030AB42FFF468AF7C4B1F
:1011A0009842B5D37C4BABB9677004A8FFF730FD0C
:1011B00021E64B78052B07D18A7802F07F0304EBF8
:1011C000430303EBD2135D750B781944E0E708F194
:1011D0000108AFE7AFF30080E6E7704B002BE3D0E8
:1011E000AFF30080E0E7BDF81200030A5A1EC0B258
:1011F0000E2A00F22181DFE812F00F0021003000FA
:101200001F011F01710021001F011F011F011F018C
:101210001F011F011F0115006149122204A8FFF7D9
:101220009DFD93E65F4B002B00F00681AFF300803D
:10123000014600283FF474AE4A88EFE7022B01D143
:101240005949F9E7594B002B00F0F680AFF30080C5
:1012500000283FF465AE0146EEE770B954495548A1
:10126000022201F01FFA01204000821C524942F480
:1012700040730B8002F0FE02D0E7052800F2DC800C
:101280004E4B4F4C53F820502378BBB94D4BD3F8FD
:101290009C3103F1140658692146FFF737FA70684C
:1012A00004F10801FFF732FAB06804F11001FFF70A
:1012B0002DFAF06804F11801FFF728FA284601F02A
:1012C000DFFA3D49C0B20023DAB2824203F10103E2
:1012D000CAD2541CAA5C21F81420F5E73A4B002B23
:1012E00000F0AA80AFF300800146002800F0A4803F
:1012F000027893E7BDF81230012B40F09D802378EF
:1013000043F00803237050E7BDF81230012B40F082
:10131000938023786FF3C303F4E72378C3F3401279
:101320009B0803F002031343ADF80A3002220DF1CB
:101330000A0104A8FFF712FD5DE59DF814300F2B9C
:101340007AD8224A234412785B7993421CD2114AFC
:10135000116811EB43116FD004AA3046FFF76EF904
:1013600000287FF448AD9DF8103013F0600363D17E
:101370009DF81120A2F10A0101295DD80A2AC8F8B6
:1013800010307FF412AF39E656D11149E4E700BFBF
:10139000AC2A0000C405002000000000000000008E
:1013A000AC2A000000000000882A000000000000B5
:1013B0003D2A00007E0600207C060020042B000051
:1013C0005411002000B07F4000000000C80500203C
:1013D000402A00009DF8149009F07F02092A3FF688
:1013E0009FAD550004EB42029B4902EBD9120978EC
:1013F000527D8A424FEAD91A14D298490F6807EBF6
:101400004217BBB99DF8113003F0FD02012A1ED02E
:10141000002B7FF485AD2C44A2449AF82930C3F305
:10142000400381E740F013818D4F002BEAD004AADE
:101430003946ADE5002FFAD19DF80C000021FFF7E9
:101440008BF89DF80C008021FFF786F8D3E4BDF8F7
:101450001220002A39D1834A012B92F800B045D1DD
:10146000494658460193FFF74BF80146F8B17E4ACA
:10147000584652F83B200092FFF762F84FF4807014
:10148000DDE900230880BAF1000F01D00B800BE0EA
:101490007648484490F87800A2F86400B2F86820D2
:1014A000C2F38132012AF1D15846FFF743F82544AF
:1014B000AA449AF829306FF341038AF829309AF840
:1014C00029306FF300038AF82930002F3FF493ACE2
:1014D00004AA39463046FFF7B1F80023C8F81030A7
:1014E00094F82A30DC073FF586AC5EE62544AA4432
:1014F00049465846FFF730F89AF8293043F002037E
:101500008AF829309AF8293043F00103DBE79DF887
:101510001010574B01F07F0403EB440303EBD1138E
:10152000CF0993F829006FF3000083F8290093F89E
:1015300029006FF3820083F82900002C4BD14D4C19
:101540009DF80C602378059DB7EBD31F12D045B1F1
:101550004FF0E023D3F8F03DDB077FF54CAC00BE45
:1015600049E42369002B3FF446AC22460321304670
:10157000984740E494F90030002B07DBA06800286E
:101580003FF439AC3C492A4601F08CF8A268E38963
:101590002A442B44A260E2889BB29A42E38101D0A4
:1015A0003F2D15D8236933B92078FFF727FB002892
:1015B0007FF421ACCCE702212E4A30469847014601
:1015C0000028F1D13046FEF7C7FF802130463BE7C7
:1015D000FFF79AFBEBE75A7D1F4B1B789A420ED21E
:1015E0001E4B1B6813EB42130BD14FF0E023D3F8D3
:1015F000F03DD90700D500BE07B0BDE8F08FF4D1AB
:10160000174B9C699DF81120059B9DF80C00A04785
:10161000FFF7F1BB164B1B78FFF7EDBB144B1B78A4
:10162000DA077FF5E8AB154B002B3FF4E4ABAFF3E3
:101630000080FFF7E0BB049B002B3FF4DCAB059878
:101640009847FFF7D8BB0A4B1B79FFF7D4BB002B99
:101650007FF4F2AE1F46D5E6C8050020C405002081
:10166000402A0000A8050020FC2A0000E005002018
:1016700008080020CC050020C8070020000000005A
:1016800008B50D4C0D4E2568327823685B1B632B23
:101690000CD9BFF34F8F0A490A4BCA6802F4E062C3
:1016A0001343CB60BFF34F8F00BFFDE7FF2AECD0A1
:1016B000FFF79EFBE8E700BFA0110020A80500206F
:1016C00000ED00E00400FA052DE9FF414378023BFC
:1016D0000446042B13D8DFE803F0037A161E8000BB
:1016E000414B1A786FF300021A701A7800216FF3D9
:1016F00041021A7059701A7861F382021A703B4BDA
:101700002146186851E0384B1A78D60758D51A7810
:1017100042F00402F2E7344A1378DD0750D513781B
:101720006FF382031370EAE74DD9D8F8002012EB6B
:10173000431304D0DB6913B1616820789847013501
:101740003278EBB29A42EFD2274D2B7858071BD54F
:101750002B786FF382032B700023CDE901330393C1
:1017600023788DF8043005238DF805301F4B186859
:1017700001A90430FFF79CFA30B94FF0E023D3F809
:10178000F03DD90700D500BE2B79DA0718D5002324
:101790000193039323788DF8043003238DF80530EB
:1017A00063680293114B186801A90430FFF780FAAF
:1017B00030B94FF0E023D3F8F03DDB0700D500BE91
:1017C00004B0BDE8F0819B1A07EB4313B2E7084E63
:1017D000084FDFF824800025B2E7034AD3780133AD
:1017E000DBB2D3708BE700BF080800204808002058
:1017F000C8050020402A0000C40500202DE9F04F54
:1018000089B0EFF30380103840B2FEF7EDFEB04B25
:10181000B3F84010CA4362F478428CB292B2090421
:10182000A3F840200CD5B3F8402012F0800FC2F38B
:10183000C0111A8814BF42F0100261F304121A801A
:10184000620412D50023CDE90533079305A80523CB
:101850008DF81530FFF738FF9E4B93F8981021B99B
:101860009B4B1A8E61F34D321A86A30419D5984DFD
:101870002B8E9F0415D5B5F84C300022C3F30A0314
:101880000592079205A803228DF815200693FFF70D
:101890001BFF904B93F898201AB92B8E62F34D33AF
:1018A0002B86E60407D504F07003202B00F0DC80C3
:1018B0005ED8102B7AD020052DD5E10740F1F380BA
:1018C000834BB3F84020120725D54FF480425A8449
:1018D000B3F85420ADF80C20B3F85620ADF80E2024
:1018E000B3F85820ADF81020B3F85A20ADF8122004
:1018F0004FF6F772A3F840200023CDE90533079394
:101900000822062303A906A88DF8153000F0CAFEA8
:1019100005A8FFF7D9FE670515D56D48B0F84A3020
:101920000022DE07A0F84A200DD5FFF75FF850B17E
:10193000684B4FF4E0659B880793802205A8CDE9AA
:101940000552FFF7C1FEE0050FD5614B614CDA8E01
:10195000B3F84660DFF88CA1B6B21640F24392B2FB
:10196000A3F84620002E40F0BF8009B0BDE8F08FFC
:10197000602B04D018D804F06003402B9BD10023C7
:10198000CDE90533079305A804238DF81530FFF73B
:101990009BFE504B93F89830002B8CD14C4A138E01
:1019A00043F40053138686E7702BE7E7484B012288
:1019B0005A87DA864FF480425A8400221A851A8D9B
:1019C00012F00F02FBD19A859A8D12F00F02FBD113
:1019D000414D42493E48012394464FF400774FF46D
:1019E00080761FFA83FEA0F864E0A0F868C021F8B2
:1019F000137021F8132025F823600133062BF0D152
:101A00000025334E28464FF400729FB2A6F864704A
:101A1000A6F8680021F8132021F8135001330A2B8F
:101A2000F3D12C489C22002100F0D6FE338903F02C
:101A30000703013B9BB2022B0DD8294A0795D35CC3
:101A40000122CDE905558DF815208DF8183005A82F
:101A5000FFF73AFE2FE74FF0E023D3F8F03DDD0724
:101A60007FF529AF00BE26E7194BB3F8503013F0CD
:101A70007F023FF420AF00230521CDE905338DF827
:101A80000C308DF80D10ADF80E20ADF81030ADF81B
:101A9000123007930822062303A906A88DF81530F3
:101AA00000F000FED3E714F007037FF434AF084AD8
:101AB000128C079312F0200F14BF802200220721FE
:101AC000CDE905338DF815108DF8182020E700BFFB
:101AD00000000940E00500208C0009406E0009402C
:101AE0003A2A00001400094096FAA6F5B5FA85F5E1
:101AF0000C2202FB0542137ADB091DD0544829460B
:101B0000FEF7A4FF90B10C2303FB054305A89A88B8
:101B1000197ADB88D31A0022CDE9052207228DF835
:101B200015208DF818100793FFF7CEFD012303FA57
:101B300005F526EA050615E7454B002D52D0B2F80B
:101B400006B0AAB21A85A3F86420B3F86C901FFA05
:101B500089F91A8D02F00F029542FAD15A8D91043B
:101B6000FCD55F8DC7F30B074F4528BF4F460C23AD
:101B70006B43BB45D84628BFB846E058E218B8F1D9
:101B8000000F07D0537AF3B1324901904246FEF775
:101B900084FE01982E4BC14584BF4FF480425A8584
:101BA00000221A851A8D1207FCD10C2303FB054273
:101BB000ABEB0801C145D18001D8BB45B6D86B431A
:101BC0000022E2509EE7224900EB080203469342BE
:101BD00003D10C226A43A350DCE791F818C003F844
:101BE00001CBF4E7B3F85E905F8CB4F806B0C7F3AE
:101BF0000B0709F07F094F4528BF4F46BB45D84624
:101C000028BFB846B8F1000F06D0627A2068A2B1AA
:101C100042465146FEF741FEC14582BF0C4B4FF490
:101C200080425A84ABEB0803C145E38002D8BB4530
:101C30003FF67CAF0023236065E700EB080290428B
:101C400001D12060E8E7197D00F8011BF7E700BF2C
:101C50000000094018000940FFF7D0BD10B5124B35
:101C60004AF68022A3F8B22F104B81680446062062
:101C700000F082FE93F8A0309B070CBF102050208C
:101C800000F082FE63681A786AB193F91140204629
:101C9000FEF74EFD064B6209012004F01F0400FA16
:101CA00004F443F8224010BD00F07E4000E0014003
:101CB00000E100E02DE9FF48C34BC448C44F4FF496
:101CC0007002C3F888209F604AF20253A0F8FE33E6
:101CD000012380F81F3490F8B134DD06FBD54FF4B2
:101CE0002543A0F8FE334AF20353A0F8FE33B94B64
:101CF000B949BA4C0022A3F80021B94BC3E900410D
:101D00004FF40041C3E902121A61FEF749FC0123B6
:101D100080F8803490F8A030002B40F01A82AB4855
:101D2000002380F8363090F83C30DE07FBD50124E4
:101D3000AC4B80F831400362002380F82630FEF778
:101D40002FFC4FF4254380F8D040A0F8FE33A14B80
:101D5000A3F80441B3F80461B6B2002EFAD14FF0F3
:101D60000108A3F800818DF817609DF81730FEF781
:101D70002DFDEFF3108288F310889B4CD4F80431CA
:101D800023F00043C4F80431D4F8043182F31088FE
:101D9000964D2B68C3F300038DF817302B68C3F3FF
:101DA00000038DF817302B68C3F300038DF817304C
:101DB000EFF3108288F31088D4F8043143F0004325
:101DC000C4F80431D4F8043182F31088FEF71CFD06
:101DD000874B88489E804FF425421A803A68864F88
:101DE000A2F500619960DA60844A4FF48051A2F84C
:101DF0002011834AA3F80480121A314600F0ECFC4B
:101E00008048814A8149121A00F04CFC804BFF1A2D
:101E1000BF109846B74200F3B281FEF7C1FB7D4B7D
:101E2000002683F82860FEF7D1FC684B83F8BB647A
:101E3000FEF7EAFC784A7149334603F1C0000133EA
:101E400012F8016B41F82060202BF6D162B6DFF862
:101E5000E8B1724ADBF80030934200F08E80DFF880
:101E6000DC815A4E6B4FCBF800200023C246009312
:101E70006B4B01934FF00009019A32F8023B01923B
:101E8000BAF804209A422AD1012303FA09F2DAF8B7
:101E9000003096F8BB1403F0B853B3F1807FD2B290
:101EA00009F1200340F0708111420CD1CDE90223E9
:101EB000FEF78CFC96F8BB14029A0A4386F8BB2402
:101EC000FEF7A2FC039B17F81320D20907D117F8DD
:101ED000132042F0800207F81320FEF7B7FC09F147
:101EE0000109B9F1030FC7D1009B0133052B009302
:101EF0000AF1080ABCD1EFF31080012383F31088A4
:101F0000484B196819B9484AD1704021D1701A68F4
:101F100001321A6080F310880020B8F80410D8F855
:101F200000600A0A16F4803FC9B24FEA02120AD0D2
:101F3000571855F827C06FF3104C45F827C026F402
:101F4000803C45F827C00A440130052845F8226046
:101F500008F10808E1D1EFF31081012282F3108823
:101F60001A6812B11A68013A1A601A681AB92E4B27
:101F7000DA708022DA7081F310882C4F4FF47A7275
:101F80003B68B3FBF2F3013BB3F1807F0AD24FF021
:101F9000E022F02153610C4B83F82310002393615E
:101FA00007231361DBF800301C4A934202BF204B29
:101FB0004FF000629A62054B1E4AD3F80015914219
:101FC00040F0FC803CE000BF00ED00E000E001409C
:101FD0000000000000C0014000127A00006CDC022A
:101FE000AC05002000010110006F0440000804400F
:101FF000000D0040C0050020AC050020006000403E
:10200000A411002000000020AC0500201C2B0000C3
:10201000AC05002000400440D42A000054524F5028
:10202000F42A000050110020000D0440C0050020DB
:10203000000004403581730798110020602A0000D9
:102040004AF20252A3F8FE230022C3F800254FF4FF
:102050002542A3F8FE23874D874E2B68B34274D0E8
:10206000864B6B6086483A68002385F83430016AF5
:10207000C1F3026302FA03F3C1F30271CB40814959
:10208000EB608B4209D880498B4206D07F498B4256
:1020900003D07F498B4240F00F81006A7A4FC0F332
:1020A000026002FA00F1C14003F5742303F23F23FA
:1020B00001F57421B3FBF7F3EB6040F28353062084
:1020C00001F23F21B1FBF7F14B43B3FBF0F32B617E
:1020D00040F276334B43B3FBF0F36B6158234B4331
:1020E000B3FBF0F3AB616B4B6B4FA9604B43B3FB9E
:1020F000F0F3EB61694B4B43B3FBF0F32B62684B9E
:102100004B43B3FBF0F36B62664B002283F8C02FA6
:1021100097F89030012B04D0012387F8903000F01D
:102120002BFC5448FFF79AFDEB68D7F8D8215148AB
:10213000013B03F01F0363F30502C7F8D82100F049
:102140000FFC002840F0B4802E604A4800F018FCD4
:10215000B2E090F836204A4B1AB993F83C20D107E8
:10216000FBD593F8A020C2F30011D206F9D4444A5B
:1021700083F8A01092F8A030DB06FBD4CFE558F826
:10218000043B9847013645E611420DD0CDE90223C4
:10219000FEF71CFB96F8BB14029A21EA020286F8AD
:1021A000BB24FEF731FB039B17F81320D2093FF441
:1021B00096AE17F813206FF3C7128CE693F810143D
:1021C000CD0709D44AF20251A3F8FE13C3F8002543
:1021D0004FF42542A3F8FE23334A1368B3F5FA7F80
:1021E000FBD3274B4AF2025600214FF425454FF40A
:1021F0008042A3F8FE63C3F80015A3F8FE531068ED
:1022000000F07F40B0F1005F7FF425AFA3F8FE63DC
:10221000EFF3108C012686F31088D4F8000140F407
:102220000060C4F80001D4F800018CF31088EFF3CB
:10223000108C86F31088D4F8000140F48050C4F864
:102240000001D4F800018CF31088A3F8FE53174B5B
:10225000998072B6BFF34F8FBFF36F8F4FF0E023BB
:102260001961C3F8082D136883F3088853689847E9
:10227000F1E600BF101100204E45504FC02A00006B
:1022800000E00140FF083D0040420F0080841E0036
:10229000C0C62D00B86A050000C07E40D0660500AB
:1022A00068ED220000F07E40A0110020000D0040EB
:1022B0002B68B3423FF449AF444D2B78FF2B73D1C9
:1022C0003D224348002100F087FA424B0022DA8188
:1022D0009A81414A1360414B23B14148AFF30080DA
:1022E000404B18603E4FDFF80881DFF8F890002679
:1022F0003A78F3B293424AD900222A70D4F80031D6
:10230000394923F40063C4F80031384B81F8982030
:102310001A8842F480621A801A885005FCD51A88FF
:102320006FF345121A801A886FF386121A801A8882
:1023300042F001021A800522C3F8F020D3F80024ED
:102340006FF30412C3F80024B3F85E20402060F35A
:102350000602A3F85E200022A3F8402091F89830EE
:102360009342224B14BF4FF47D424FF45D421A86D4
:1023700001225A87DA86B3F84020120642BF1A8833
:1023800042F010021A800020FEF7D4F80CE011D2BF
:10239000D9F8002012EB43130FD14FF0E023D3F80C
:1023A000F03DDC0700D500BEFEF7ECF82B78FF2BE4
:1023B00009D1FEE79B1A08EB43135B680136002B3B
:1023C000EBD0984794E7FEF713FDEFE7A805002050
:1023D00008080020980500204808002000000000A0
:1023E000C8050020C4050020E005002000000940C9
:1023F000402A000010B5104B1988FEF7ADF9C8B996
:102400000E4A02EA8112A2F56E33013B6FF47E316F
:102410008B420FD30A490B4CB1F5802F84F834005E
:1024200008D920464FF40063BDE8104002F5804211
:1024300000F09EBA10BD00BF0C09002000F8FFFF9D
:102440000E0900201011002070B50C46117801F023
:102450001F03012B154640F0118111F060011CD1C2
:1024600053780A2B10D00B2B40F00881012C01D09F
:10247000012424E0824B52885A70FEF7F1F8284676
:10248000BDE87040FEF7C4BB012CF1D17D49224666
:102490002846BDE87040FEF761BC202940F0EE8080
:1024A0005378062B00F2EA80DFE803F004321C5276
:1024B0000F140F00012C04D12846FEF7A9FB20467B
:1024C00070BD032CD4D1FFF7DBF8012CD0D1FEF77F
:1024D000C7F8F1E7012CCBD16B4922462846FEF71D
:1024E0003DFCECE7012CC3D1654E347814F00204B6
:1024F000E5D0EC88402C00F2C18069882246614317
:1025000006F10C0000F0CEF8224606F10C01BFE700
:10251000012CADD15A4B1C7814F00104CFD09A781D
:10252000022A02D0052A40F0A980EA88402A00F257
:10253000A58001221A716A88DA80EA881A81EA88FD
:102540001AB1032199705149A2E706229A7096E7C1
:102550004B4A9178032905D0062953D0012C87D105
:10256000002309E0012C0BD113793BB15378002BE8
:102570000CBF002364230421D2784EE00521FBE741
:10258000032C7FF475AF1479002C38D00423D18844
:1025900093703F4B1589198001F58071890111F401
:1025A000F86F14D172B6FEF7D7F878B9394EB1F595
:1025B000802F86F8340009D221F4FF614FF40063C4
:1025C000012221F00701304600F0CEF962B6324E0A
:1025D000324833882D492A46184400F063F833887E
:1025E0001D44ADB2B5F5006F358005D172B6FFF769
:1025F00001FF62B600233380FEF7C6F85FE70523CC
:10260000937035E7012C0DD11379D278002B08BFD8
:1026100002214FF0000318BF07212846BDE8704093
:10262000FEF7CEBB032C7FF423AF147924B307232A
:10263000937072B6FFF7DEFE62B6FEF7A5F8FEF7FE
:102640008BF800287FF414AF124B18605B6893F985
:10265000113013F1210F3FF40BAF5A09012103F0A0
:102660001F0301FA03F320320D4941F82230BFF372
:102670004F8FBFF36F8F22E70223C1E700241EE7CD
:102680007C0700207D0700207E07002088070020AF
:102690000C090020101100200E1100200E0900204E
:1026A00000E100E0844641EA000313F003036DD12A
:1026B000403A41D351F8043B40F8043B51F8043B05
:1026C00040F8043B51F8043B40F8043B51F8043B0C
:1026D00040F8043B51F8043B40F8043B51F8043BFC
:1026E00040F8043B51F8043B40F8043B51F8043BEC
:1026F00040F8043B51F8043B40F8043B51F8043BDC
:1027000040F8043B51F8043B40F8043B51F8043BCB
:1027100040F8043B51F8043B40F8043B51F8043BBB
:1027200040F8043B51F8043B40F8043B51F8043BAB
:1027300040F8043B403ABDD2303211D351F8043B4B
:1027400040F8043B51F8043B40F8043B51F8043B8B
:1027500040F8043B51F8043B40F8043B103AEDD2FA
:102760000C3205D351F8043B40F8043B043AF9D24B
:10277000043208D0D2071CBF11F8013B00F8013B1E
:1027800001D30B8803806046704700BF082A13D32B
:102790008B078DD010F003038AD0C3F10403D21A43
:1027A000DB071CBF11F8013B00F8013B80D331F877
:1027B000023B20F8023B7BE7043AD9D3013A11F8F7
:1027C000013B00F8013BF9D20B7803704B78437062
:1027D0008B78837060467047830730B548D0541EAD
:1027E000002A3FD0CAB2034601E0013C3AD303F8C5
:1027F000012B9D07F9D1032C2DD9CDB245EA052532
:102800000F2C45EA054536D9A4F1100222F00F0C31
:1028100003F1200EE6444FEA121C03F1100242E9D4
:10282000045542E9025510327245F8D10CF101020B
:1028300014F00C0F03EB021204F00F0C13D0ACF1E8
:10284000040323F003030433134442F8045B93426C
:10285000FBD10CF003042CB1CAB21C4403F8012BC9
:102860009C42FBD130BD64461346002CF4D1F9E7FD
:1028700003461446BFE71A46A446E0E7FFFFFFFF02
:1028800090F800F06DE9024520F007016FF0000CB0
:1028900010F0070491F820F040F049804FF0000458
:1028A0006FF00700D1E9002391F840F000F1080033
:1028B00082FA4CF2A4FA8CF283FA4CF3A2FA8CF36B
:1028C0004BBBD1E9022382FA4CF200F10800A4FAD2
:1028D0008CF283FA4CF3A2FA8CF3E3B9D1E9042326
:1028E00082FA4CF200F10800A4FA8CF283FA4CF35D
:1028F000A2FA8CF37BB9D1E9062301F1200182FA17
:102900004CF200F10800A4FA8CF283FA4CF3A2FA1C
:102910008CF3002BC6D0002A04BF04301A4612BA2A
:10292000B2FA82F2FDE8024500EBD2007047D1E92D
:10293000002304F00305C4F100004FEAC50514F0BC
:10294000040F91F840F00CFA05F562EA05021CBF8D
:1029500063EA050362464FF00004A9E7FFFFFFFFAB
:102960005FF800F0B90000205FF800F011030020CC
:102970005FF800F0390400205FF800F07D000020CF
:102980005FF800F0390100205FF800F08F000020B0
:1029900000000504342E352E30004275696C742019
:1029A000776974682052656E65736173204164763F
:1029B000616E63656420466C657869626C6520535E
:1029C0006F667477617265205061636B6167652023
:1029D00076657273696F6E20342E352E3000417229
:1029E0006475696E6F00554E4F205234204D696EEC
:1029F000696D61204446550040436F6465466C61D3
:102A00007368202F307830303030303030302F380D
:102A10002A324B612C3132302A324B6700404461FC
:102A20007461466C617368202F30783038303030F4
:102A30003030302F382A314B67000100020904FF83
:102A400000000000810600008706000071060000FB
:102A50008D06000049240000000000000000000076
:102A6000040000000B010000000000000A0100004B
:102A70000000011307040000000001130E0900000C
:102A8000000001130F090000090224000101008069
:102A9000320904000000FE0102040904000100FEE6
:102AA000010205092107E8034000010112010002AB
:102AB0000000004041236903000101020301FFFF00
:102AC00000000000B107000000000000000000004E
:102AD0000207020833343132000000000000000019
:102AE00000000000000000000000000000000000E6
:102AF00000000000020403040404FFFF000009407A
:102B0000000000003D2A0000DE290000E629000048
:0C2B100054110020F82900001D2A0000CC
:102B1C0010B5431E19440B4B93F804416FF300049A
:102B2C0083F80441040C80B2A3F81041D2B2A3F88C
:102B3C000801080C89B2C3F82001A3F8181183F816
:102B4C00142110BD00C07E4082B00F4B0190D3F811
:102B5C002C2151060FD5002283F814210190D3F8B3
:102B6C002C21C2F38010520608D5019A2AB1019A81
:102B7C00013A0192F3E7019A12B9142002B070479E
:102B8C00019A013A0192E2E700C07E4041430329D9
:102B9C0004D98908A1F101010029FBD17047094B27
:102BAC00A522C3F88021C243D2B283F8000183F876
:102BBC00002183F8000193F80031834200D100BF5B
:102BCC00704700BF00C07E4073B51D4EB6F8B24FC3
:102BDC00A4B24FF49643012C0546019309D19220DF
:102BEC00FFF7DDFF0320A968FFF7D0FF1220FFF7E6
:102BFC00D6FF0820FFF7D3FFA96806204FF42A431D
:102C0C00FFF7C4FFA6F8B23FB6F8B20F80B270B9A6
:102C1C00012C0AD10B4BA3F80441B3F8040180B288
:102C2C000028FAD10122A3F8002102B070BD019B4B
:102C3C001BB1019B013B0193E6E71420F5E700BFB4
:102C4C0000F07E4000C0014010B5002380F8343005
:102C5C000C4BB3F8B23F9BB204460BB900F020FA10
:102C6C00094BD3F8242142F00102C3F82421D3F8F4
:102C7C0024216FF30002C3F824212046BDE8104044
:102C8C00A2E700BF00F07E4000C07E40F8B50546CC
:102C9C00084616461F46FFF757FF1428044604D172
:102CAC002846FFF7D1FF2046F8BD054BD3F8F0417D
:102CBC003440F8D02846FFF7C7FF3C46F3E700BF87
:102CCC0000C07E4010B50023934200D110BDCC5CF7
:102CDC00C4540133F8E738B51D4B0022A3F800218A
:102CEC0043681A7804467AB193F9113001215A09D4
:102CFC0003F01F0301FA03F32032164941F8223086
:102D0C00BFF34F8FBFF36F8F134B4AF60122A3F81B
:102D1C00B22F1220FFF743FF104BA1680320FFF7DF
:102D2C0035FF93F8A0300340002B0BBF8221C2214A
:102D3C009220D2200CBF06250425FFF730FF084651
:102D4C00FFF72DFFA1682846BDE838401EE700BFFD
:102D5C0000C0014000E100E000F07E4000E00140D6
:102D6C0082B00F4B0190D3F82C2111060FD5002205
:102D7C00C3F8DC210190D3F82C21C2F3C010120649
:102D8C0008D5019A2AB1019A013A0192F3E7019A06
:102D9C0012B9142002B07047019A013A0192E2E78D
:102DAC0000C07E4038B50546406AFFF7D9FF1428AD
:102DBC00044604D12846FFF747FF204638BD054B93
:102DCC00D3F8F04114F01204F7D02846FFF73CFF7B
:102DDC001824F2E700C07E40F8B5054614460F46AD
:102DEC001E46FFF778FF214683223846FFF790FEF8
:102DFC000334A969A4084FF4FC73102261432846DC
:102E0C00FFF744FF48B9054BD3F82831C3F3C0038F
:102E1C0033702846BDE8F840D6E6F8BD00C07E40C9
:102E2C00F8B5044615460E461F46FFF754FF0D4BEA
:102E3C0093F804216FF3000283F8042107FB05F1DA
:102E4C0084223046FFF764FEE1691923112269439D
:102E5C002046FFF71BFF18B92046BDE8F840B3E643
:102E6C00F8BD00BF00C07E402DE9F84F8946804672
:102E7C009246FFF730FF214C4D4683274FF6FF7BE0
:102E8C0094F8043143F0010384F80431BAF1000FD3
:102E9C001DD1C4F830B1C4F838B1C4F8DC71404667
:102EAC00FFF780FF94F804316FF30003013784F8C7
:102EBC000431064618B9872F05F10405E0D14046C8
:102ECC00FFF782FE002E18BF3046BDE8F88F6A78F7
:102EDC002B7843EA0223C4F83031BB00B3F5067FEC
:102EEC000DBFB9F80E30EA78AB784AEA030318BF85
:102EFC0043EA0223C4F83831CFE700BF00C07E405C
:102F0C0013B5104C0B0C89B2A4F810310822A4F89C
:102F1C00081101466846FFF7D5FEBDF80030C4F82D
:102F2C003031BDF80230C4F83831BDF80430C4F883
:102F3C004031BDF80630C4F84431812384F8143193
:102F4C0002B010BD00C07E40F8B5044617460E46D0
:102F5C001D46FFF7C0FEC4E90A67154AED08256354
:102F6C0092F804316FF3000382F804310025236BCF
:102F7C00BBB10DB12846F8BDD4E90A01FFF7C0FF7B
:102F8C00A36A21690833A362E36A0833E362236B03
:102F9C00013B2363122218232046FFF777FE0546D8
:102FAC00E5E7002DE6D12046FFF70EFEE2E700BF75
:102FBC0000C07E400C4B5AB9C0F38F20C1F38F2157
:102FCC00C3F830018222C3F83811C3F8DC217047F2
:102FDC0040F47E404FF6FF7240F0FF00C3F83821FA
:102FEC00C3F830018122F0E700C07E40F8B51646E8
:102FFC0007460D46164CFFF76EFE6EB1D4F8D8316D
:10300C0065F38713C4F8D83100253846FFF7DCFD8B
:10301C00002D18BF2846F8BD94F8043115F0010FA7
:10302C0043F0010384F804310CBF4FF4807000208E
:10303C0001223146FFF7BEFF3846FFF7B3FE94F886
:10304C00043166F30003054684F80431DDE700BF64
:10305C0000C07E4073B5114E019205460C46FFF739
:10306C003AFE96F8043143F0010386F804310199D5
:10307C0000222046FFF79EFF2846FFF793FE96F8A6
:10308C0004316FF30003044686F804312846FFF739
:10309C009BFD002C18BF204602B070BD00C07E40C6
:1030AC005FF800F05D1C00004D0600004C0800208D
:0C30BC0010000C0000000000FF000000ED
:020000040101F8
:10001800FFFFFFFFFFFFFFFFFFFFFFFFFFFFFFFFE8
:0C002800FFFFFFFFFFFFFFFFFFFFFFFFD8
:0400000300001CB528
:00000001FF
