:100000006050002009140000650500000105000093
:1000100001050000010500000105000001050000C8
:1000200000000000000000000000000001050000CA
:10003000010500000000000001050000D5050000DA
:10004000AD07000085080000E50E0000B9080000BB
:1000500000000000000000000000000000000000A0
:100060000000000000000000000000000000000090
:100070000000000000000000000000000000000080
:100080000000000000000000000000000000000070
:10040000FFFFFFFFDFCEFFFFFCFFFF00FFFFFF004E
:10041000FCFFFF00FFFFFF00FCFFFF00FFFFFF00EE
:10042000FCFF0F20FFFF0F20FCFF7F40FFFF7F40FE
:10043000FCFF0D40FFFF0D40FFFFFFFFFFFFFFFF31
:10044000FFFFFFFFFFFFFFFFFFFFFFFFFFFFFFFFBC
:10045000FFFFFFFFFFFFFFFFFFFFFFFFFFFFFFFFAC
:10046000FFFFFFFFFFFFFFFFFFFFFFFFFFFFFFFF9C
:10047000FFFFFFFFFFFFFFFFFFFFFFFFFFFFFFFF8C
:10048000FFFFFFFFFFFFFFFFFFFFFFFFFFFFFFFF7C
:10049000FFFFFFFFFFFFFFFFFFFFFFFFFFFFFFFF6C
:1004A000FFFFFFFFFFFFFFFFFFFFFFFFFFFFFFFF5C
:1004B000FFFFFFFFFFFFFFFFFFFFFFFFFFFFFFFF4C
:1004C000FFFFFFFFFFFFFFFFFFFFFFFFFFFFFFFF3C
:1004D000FFFFFFFFFFFFFFFFFFFFFFFFFFFFFFFF2C
:1004E000FFFFFFFFFFFFFFFFFFFFFFFFFFFFFFFF1C
:1004F000FFFFFFFFFFFFFFFFFFFFFFFFFFFFFFFF0C
:1005000000BE7047064B93F826101A6A054B53F845
:100510002130C2F30262D340034A1360704700BF28
:1005200000E001408006002098060020A0F10100B4
:100530000028FBD17047FFFF084B48434FF47A7106
:10054000A0FB01011B680649B1FBF3F1B0FBF1F020
:10055000800801D0FFF7EABF704700BF980600206F
:1005600000CA9A3B034AB2F840319BB2A2F830313C
:10057000704700BF00600040EFF31080012383F359
:100580001088064B196819B9054AD1704021D170FD
:100590001A6801321A6080F3108870477C37002097
:1005A000000D0440EFF31081012383F31088074B03
:1005B0001A6812B11A68013A1A601A681AB9044B1B
:1005C000DA708022DA7081F3108870477C3700205F
:1005D000000D0440024A136801331360704700BFE6
:1005E0004C3800200379042B09D1084B1A683F2AA4
:1005F0000AD81A68511C1960054B017A995403797D
:10060000012B04BF034A1370704700BF2C07002062
:10061000EA060020483800200378012B0CD10B4A51
:1006200013884BB10A4B002119719978042904D120
:10063000032199700023138070470729FAD1197894
:1006400011F0040F14BF06210821F2E7E80600208C
:100650009C060020064B074A1B6A1268C3F302611E
:1006600023FA00F08A4000F0070022FA00F07047F9
:1006700000E0014098060020C030054B53F82020D0
:100680006FF3104243F8202053F82030704700BF2A
:100690000060004008B50146FFF7EEFFBFF35F8F33
:1006A000012201F01F039A404B099B0003F16043B4
:1006B00003F56143C3F880211A6008BD4309012294
:1006C00000F01F0002FA00F02033044A42F8230031
:1006D000BFF34F8FBFF36F8F704700BF00E100E0A3
:1006E00068B10268084B9A420BD1084BB3F8B23F8D
:1006F00003F08103002B0CBF00200820704701206D
:1007000070470720704700BF4E45504F00F07E40B5
:1007100038B514461D46FFF7E3FFD8B9B1F5802F71
:100720000AD20B19B3F5802F04D885B14A0712D12C
:1007300063070CD017200DE001F13F4303F5700370
:10074000B3F5005F07D2054B21449942F2D8002C43
:1007500008BF172038BD1620FCE700BF002010405E
:10076000EFF30380103840B27047F0B5846A85B06B
:1007700006468C4617466D46B4B194E80F0085E8EE
:100780000F00F3691B782360C4F808C02771F36A6F
:10079000E3602046736A9847B46A1CB195E80F007D
:1007A00084E80F0005B0F0BD2C46EAE738B5FFF746
:1007B000D7FF0146FFF760FF304B53F82100C369B4
:1007C0001B6913BB036963B9026A937803F07F0363
:1007D00043F004039370436A0021C160002B47D1AA
:1007E00038BD0278036A002A2BD0DB8A244CC3F37D
:1007F00004230278016A9A4201D902694AB90B7945
:1008000003F07D0343F002030B710369002BE7D172
:10081000DAE78278C56802F00302022A0DBF2A884F
:100820002A78CA73224304BF92B2CA8182780169CE
:1008300002F00302891A0161C1680A44C2600133EF
:10084000D7E78278C16802F00302022A0DBF0A8846
:100850000A78DA7042F47E4208BFDA81837802694E
:1008600003F00303D21A0261C2681344C360CCE7E9
:10087000BDE838408022FFF778BF00BFB8370020BE
:1008800000FEFFFF10B5FFF76BFF0A4B044653F85D
:100890002000026A937803F07B039370436A1BB1D4
:1008A00002220021FFF761FF2046BDE81040FFF75C
:1008B000E3BE00BFB837002038B5FFF751FF144B37
:1008C000044653F820000278036A22B9827802F0C5
:1008D0000302022A19D1198AC1F308011D7905F012
:1008E0003802ED0604D51D7FED0758BF42F04002E7
:1008F0001D7905F0C7051D71436A0BB1FFF735FF80
:100900002046BDE83840FFF7B7BE5979C9B2E5E7E0
:10091000B8370020062070470620704778B102687B
:10092000094B9A420DD190F90430084AC033002097
:1009300052F823106FF3186142F82310704701201A
:1009400070470720704700BF0043544400600040D8
:1009500000282CD00268174B9A4226D139B390F95F
:100960000420154B002053F82230C1E90000DA784A
:1009700012F0C00211D04FF480728A60DA89D2B2CC
:10098000CA60DA7802F0C002802A11D14FF48032B6
:100990000A609B899BB24B6070474FF4803088603F
:1009A000DB899BB2CB60104670470720704701205F
:1009B000704700BF0043544400000020B0B10268FB
:1009C0000C4B9A4214D190F904300B4AC03352F8C0
:1009D00023106FF3186142F82310084A90F90410AD
:1009E000002342F821300360184670470120704709
:1009F000072070470043544400600040000000207E
:100A000070B51A4B90F9041053F821304FF0FF36AF
:100A1000DA7802F00C00042823D09C7804F00C0053
:100A200004281ED05868F0B19868E0B19868C2F305
:100A3000011206FA02F2D54330EA020213D15868D5
:100A4000284010D114F0C00F03F11003E0D1084C7E
:100A500001F1C00354F8232042F0807244F82320AF
:100A600000E0062070BD0120FCE700BF0000002070
:100A70000060004013B501910092002846D0016843
:100A8000244A914244D190F904202349C03251F8BC
:100A900022406FF3186441F8224090F904201F4C63
:100AA000C03251F82220C2F3080242F40042E18928
:100AB00089B29142FBD0082222700199184A29B1CB
:100AC00090F90410019C52F821104C60009929B152
:100AD00090F90410009C52F821108C6090F90410D9
:100AE00052F82110CA7802F0C002802A0AD18B8104
:100AF0000A4B18221A70FFF783FF002818BF132033
:100B000002B010BD002AF3D1CB81F1E70120F7E755
:100B10000720F5E7004354440060004000540040C3
:100B20000000002028B10268044B9A4203D1FFF76D
:100B300067BF012070470720704700BF004354443F
:100B400010B50B46DA7812F0C00F1EBFDA89D2B2A8
:100B500042EA02221C4618BFDA81A27812F0C00FC6
:100B600003F11003EED1054B08221A7090F904002E
:100B7000034A42F8201018221A7010BD0054004099
:100B800000000020C27802F00C03042B13D08378FD
:100B900003F00C0104290ED012F0C00F04D0C2895A
:100BA00092B2B2F5807F08D813F0C00300F11000B4
:100BB000E8D1184670470620704701207047FFFFB4
:100BC00037B5044610B9012003B030BD0268184B98
:100BD0009A422AD10029F6D008460191FFF7D2FFA8
:100BE0000028F0D194F90430124AC03352F823504F
:100BF00060F3186542F8235094F904300E480199C7
:100C0000C03352F82330C3F3080343F40043C289CE
:100C100092B29342FBD02046FFF792FF2046FFF7A7
:100C2000EFFE002818BF1320CEE70720CCE700BF57
:100C3000004354440060004000540040EFF3108033
:100C4000012383F310880A4A53889BB24BB90949A0
:100C5000B1F8FE339BB243F4254343F00203A1F8FD
:100C6000FE33538801339BB2538080F31088704762
:100C70007437002000E00140EFF31081012383F37B
:100C800010880C4A53889BB21BB15388013B9BB21E
:100C9000538053889BB24BB9074AB2F8FE339BB2DC
:100CA00023F0020343F42543A2F8FE3381F31088B6
:100CB000704700BF7437002000E001402DE9F74F76
:100CC0002F4C304D80460027B8F80030BB4202D888
:100CD00003B0BDE8F08F2C4B01934FEAC709002603
:100CE000D8F80430019803EB090130F8022B898809
:100CF0000190914229D153F8093094F8BB14012294
:100D000003F0B853B240B3F1807F5FFA82FA06F184
:100D1000200B1FD111EA0A0F09D1FFF78FFF94F8BA
:100D2000BB1441EA0A0284F8BB24FFF7A5FF15F8BB
:100D30001B20D30909D115F81B2042F0800205F8C9
:100D40001B200121C820FFF7F7FB0136032EC7D176
:100D50000137B9E711EA0A0F09D0FFF76FFF94F8DE
:100D6000BB1421EA0A0284F8BB24FFF785FF15F8BB
:100D70001B20D309E9D015F81B206FF3C712DEE75B
:100D800000E0014000400440AC36000030B483680D
:100D9000F3B10368E3B14468D4B12368C3B16468B4
:100DA000B4B10D4C0A60257815B102F10C050D6047
:100DB000E469647834B9DC78012565F305140B32F5
:100DC000DC700A60836830BCD0E900011B681847FA
:100DD000012030BC704700BF8837002010B50446A2
:100DE0000846FFF76BFC0846FFF746FC01F160433D
:100DF00003F561432401E4B283F80043024B034A44
:100E000043F8212010BD00BFB837002088370020EC
:100E100010B580B179B10B4B0B4A5C6894420CD190
:100E20009B7803F00303022B09D1084310F0010063
:100E300018BF032010BD0120FCE70720FAE70020BF
:100E4000F8E700BF883700205549435370B5244C5C
:100E50000546FFF7DDFF2369034312D1226A937829
:100E600003F07B039370237863B1C4E90351E16914
:100E70000B697BB9226A937843F0800393702378DF
:100E800003B370BDA37803F00303CE1A2B4426618D
:100E9000E360ECE72369002BECD0A27802F00302B8
:100EA000013AD340B3F5803F4FF000022261E8D809
:100EB0000869816800688E68E1689BB2B0470028C5
:100EC000D8D0DEE7A378226A03F00303022B0DBF1C
:100ED0002B882B78D37043F47E4308BFD381D0E7AF
:100EE0008837002013B5FFF73BFC0146FFF7C4FB32
:100EF000284B53F82140E369DB6813B1A369002B49
:100F00003BD12278236AD2B1DA8AD20612D01B8A68
:100F1000C3F308030193A369C3B9636A23B10199B9
:100F200004222046FFF721FC237833B1236ADB8AB1
:100F3000DB06E6D1236ABE221A7102B010BDA27888
:100F400002F00302022AE2D05B79E3E7A27860694B
:100F500002F0030201A900F093FFA178626901F099
:100F60000303A1691A44C91A6261A1610029DBD196
:100F7000636A002BD8D00122D3E7636A0021C4E959
:100F80000511002BD9D00122204602B0BDE8104047
:100F9000FFF7EBBBB83700202DE9F0410D460446C2
:100FA00000283BD0204F0368BB4235D0002935D004
:100FB0004B689BB31D4B1978B9B901261E70EFF32E
:100FC000108086F310881A4BDA6922F48002DA6105
:100FD000DB6980F31088DFF860808022404600F0F3
:100FE000E9FF144BC3F804801E736B6893F900305B
:100FF000002B15DB104A52F823209AB92371286878
:1010000030B1FFF7BFFD28B929682046FFF798FDEA
:1010100027600020BDE8F0810E20FBE70120F9E702
:101020000B20F7E70820F5E7004354443837002049
:1010300000E00140005400400000002008B50B4AC9
:101040001168034609B90A49116010680949033358
:1010500023F0030303448B4206D900F0DFFE0C2388
:1010600003604FF0FF3008BD1360FCE73407002039
:10107000603800206048002010B504461C20FFF7AF
:10108000E9FA2A4BE060984208D8294B984205D0EB
:10109000284B984202D0284B984244D11820FFF7A1
:1010A000D9FAE268224B254902F5742202F23F2266
:1010B00000F57420B2FBF3F2E26040F2835200F2DA
:1010C0003F20B0FBF3F306205A43B2FBF0F222615B
:1010D00040F276325A43B2FBF0F2626158225A4330
:1010E000B2FBF0F2A261164AA3605A43B2FBF0F2DF
:1010F000E261144A5A43B2FBF0F22262124A5343AD
:10110000124AB3FBF0F36362002381F8C03F92F808
:101110009010012905D0012182F89010A16802F0F9
:10112000EBF8184601E04FF4FB7010BDFF083D00DE
:1011300040420F0080841E00C0C62D0000F07E409B
:10114000B86A0500D066050068ED220000C07E4048
:1011500010B50E4B4AF68022A3F8B22F0C4B8168D3
:101160000446062002F0C8F893F8A0309B070CBF95
:101170001020502002F0C4F863681A782AB1BDE844
:10118000104093F91100FFF785BA10BD00F07E40C2
:1011900000E0014008B538B10268054B9A4205D11C
:1011A00002F0A6F8002008BD0120FCE70720FAE7BE
:1011B0004E45504F38B5044600293FD000283DD059
:1011C0001F4D0368AB4235D00B782BB191F911302C
:1011D000002B31DB4B688BB361600B787BB191F9ED
:1011E00011000B7C00F160421B0102F56142DBB291
:1011F00082F80033134B43F82040FFF74BFA0023EB
:1012000084F834302046FFF737FF90B92046FFF7C7
:101210009FFFE3680C4A013BD2F8D81103F01F038B
:1012200063F30501C2F8D811204602F059F800B95D
:10123000256038BD0E20FCE70B20FAE70120F8E717
:101240004E45504FB837002000C07E402DE9F04198
:1012500005461746FFF744FA064608B91FB9152692
:101260003046BDE8F081B1F5802F85F8340010D20A
:1012700021F4FF6121F0070101EBC723B3F5802FB3
:10128000EDD83A4628464FF40063BDE8F04102F03D
:101290003BB821F47F7424F0030404F13F4303F5C9
:1012A0007003B3F5005F4FEA872830D2194B04EB87
:1012B00008029A42D3D86B681B7813B1022385F8D1
:1012C00034302846FFF744FF134A92F8043104F102
:1012D0003D406FF3000300F5700082F80431414691
:1012E000A8622F63842201F0FFFF6B681B78002B3C
:1012F000B6D1296A192311227943284601F0ECFF5F
:1013000006460028ACD1284601F0EAFFA8E71626D9
:10131000A6E700BF0020104000C07E402DE9F0414C
:1013200016461F46884601233A4631460446FFF7D3
:10133000EFF9054600285BD1B6F5802F84F834001C
:101340000AD2B8F5802F59D93B463246414620464D
:10135000BDE8F04101F0DCBFC4E90A866368276399
:101360001B7813B1012384F83430254E2046FFF753
:10137000EFFE96F804316FF3000386F80431D4E9E8
:101380000A2303F13D4303F57003190C9BB2A6F841
:101390001011A6F808311378C6F83031812386F889
:1013A000143163681B781BBB164F61691823122226
:1013B000204601F091FF0546E8B9A26A256B531C4F
:1013C000A362E36A013D591CE16225636DB13B44B0
:1013D000190C9BB2A6F81011A6F808315378C6F87C
:1013E0003031812386F81431DFE7204601F078FFA1
:1013F0002846BDE8F0810828D7D0F9E70125F7E7AE
:1014000000C07E400100F0BD2DE98048C74BC848B0
:10141000C84F4FF47002C3F888209F604AF202530D
:10142000A0F8FE33012399B080F81F3490F8B1344E
:10143000DB06FBD54FF42543A0F8FE334AF20353F5
:10144000A0F8FE33BC4BBD49BD4E0022A3F80021DD
:10145000BC4BC3E900614FF40041C3E902121A61B9
:10146000FFF750F8012380F8803490F8A030002B6B
:1014700040F07082AE48002380F8363090F83C305F
:1014800013F001030193F9D00124AF4B80F83140F0
:101490000362002380F82630FFF734F84FF4254329
:1014A00080F8D040A0F8FE33A34BA3F80441B3F872
:1014B0000451ADB2002DFAD14FF00108A3F800811C
:1014C0008DF847509DF84730FFF7B8FBEFF31082D7
:1014D00088F310889D4CD4F8043123F00043C4F8FD
:1014E0000431D4F8043182F31088994E3368C3F381
:1014F00000038DF847303368C3F300038DF847309D
:101500003368C3F300038DF84730EFF3108288F39C
:101510001088D4F8043143F00043C4F80431D4F8FF
:10152000043182F31088FFF7A7FB8A4B8A489D801D
:101530004FF425421A803A68884FA2F500619960FD
:10154000DA60874A4FF48051A2F82011854AA3F847
:101550000480121A294600F02DFD8348834A8449ED
:10156000121A00F08DFC834BFF1ABF109846AF4251
:1015700000F30682FEF7C6FF7F4B002583F8285054
:10158000FFF75CFB6A4B83F8BB54FFF775FB7B4AA4
:1015900073492B4603F1C000013312F8015B41F897
:1015A0002050202BF6D162B6754F764D3B68AB428A
:1015B00027D075483D60FFF781FBFEF7DDFF7349DB
:1015C00000208A88D1F800C0130A1CF4803FD2B2F0
:1015D0004FEA03130BD003EB020E56F82E806FF385
:1015E000104846F82E802CF4803846F82E8013449C
:1015F0000130052846F823C001F10801E1D1FEF7CA
:10160000D1FF634B4FF47A721B68B3FBF2F3013BDB
:10161000B3F1807F0AD24FF0E022F0215361434BB7
:1016200083F8231000239361072313613B68AB42C7
:1016300002BF584B4FF000629A623D4B564AD3F8B6
:101640000015914240F0A1814AF20252A3F8FE2314
:101650000022C3F800254FF42542A3F8FE234F498A
:101660004F48FFF7A7FD4E48FFF794FD304B93F826
:101670000135282B4ED14B4F3B68AB421DD14FF467
:101680008163ADF8543001234FF00408ADF84830C1
:1016900012A814AB1393CDF85080FFF70FFBFEF7A1
:1016A0006BFFC6F82081FEF77DFF3B68AB4202BFAF
:1016B000384B4FF48072C3F888204FF47A710220BF
:1016C000FEF73AFF3B68AB4218D1324B4FF08072C5
:1016D000C3F888204FF48163ADF85430012300250E
:1016E000ADF8483012A814AB13931495FFF7E6FA3F
:1016F000FEF742FFC6F82051FEF754FF0C4B4AF2AA
:101700000252A3F8FE23002283F801254FF425425C
:10171000A3F8FE23244DFF23AB702B786FF38203D5
:101720002B700C208023EB7040E000BF00ED00E048
:1017300000E001400000000000C0014000127A00FB
:10174000006CDC028006002000010110006F0440E4
:1017500000080440000D004098060020800600208C
:10176000006000405C3800208000002080060020DF
:101770003838000080060020004004403036000069
:101780004038002054524F50EC350000C433000064
:101790009806002000000440358173071C360000C5
:1017A0003C3700203838002018060020FEF752FF92
:1017B000A44B2E780690A0FB031208EE902A020A92
:1017C0000E92C6F380120892C6F300120792C6F377
:1017D000C00205926A78049302F003020392AA7889
:1017E00009920027EA780A9208EE101AC6F38006DA
:1017F0000297BB460B974FF00008934B13F8083045
:10180000C3F34002C3F380030D930D990C925FFA6A
:101810008BF30A43934212D18C4B33F818A04FF448
:10182000613303FB0AFA069BB3FBFAF9B9F5807F33
:1018300005D809FB0AF2B9F1000F40F0238108F145
:101840000108B8F10D0FD8D10BF1010BBBF1020F5C
:1018500040F05281029B93B17D4A0899137861F35D
:101860008613079961F30413059961F3C303137099
:101870000399537861F301035370099B937037B157
:10188000734B1A7866F382021A700A9ADA70714EF4
:10189000DFF8E8817368434500F09B826E4B33624A
:1018A0006E4BF3616E4B7362B378012767F30103EC
:1018B0004FF0000903210220B370C6E90A9986F8A7
:1018C0000090FFF78BFA02210846FFF787FA494696
:1018D0000220FFF783FA39460220FFF77FFA6149B9
:1018E000326A61484FF4002341F8043B0532FFF7A8
:1018F0004DFA002800F0F4817368434500F06982D6
:101900005A4FDFF87C813B68002BFCD03B68013BE1
:1019100018F80330232BF6D13B68002208F8032087
:1019200098F80030493B112B00F22581DFE813F0D5
:10193000F6002301A90123012301EB002301230168
:1019400063012301FF0023012301F0002301FC00B8
:1019500039017F0190F83620454B1AB993F83C20A5
:10196000D507FBD593F8A020D406C2F30011F9D413
:101970003F4A83F8A01092F8A030D806FBD479E54E
:1019800058F8043B98470135F1E593F81014C9075E
:1019900009D44AF20251A3F8FE13C3F800254FF40C
:1019A0002542A3F8FE23334A1368B3F5FA7FFBD32D
:1019B0002F4B4AF2025C00214FF425474FF480423E
:1019C000A3F8FEC3C3F80015A3F8FE73106800F077
:1019D0007F40B0F1005F7FF442AEA3F8FEC3EFF3A7
:1019E000108E4FF0010C8CF31088D4F8000140F4F5
:1019F0000060C4F80001D4F800018EF31088EFF302
:101A0000108E8CF31088D4F8000140F48050C4F894
:101A10000001D4F800018EF31088A3F8FE73164B72
:101A2000998072B6BFF34F8FBFF36F8F4FF0E023F3
:101A30001961C3F8082D136883F308885368984721
:101A40000DE600BFA0860100F4350000023600005C
:101A50001806002088370020200107408C3600003F
:101A6000E505000008060020503600002C07002085
:101A700000E001404C380020000D00405549435320
:101A8000EA060020D31718EE100A18EE901A0F92EB
:101A900001F066FADDE90E32B2FBF3F17F2909F1BC
:101AA000FF397FF6CCAE484348BFFF300312A3F5A1
:101AB000C333A03B002B0498B8BF5B42834213DAC8
:101AC00076480B9110F80800049300F00106C0F36B
:101AD000C10003905FFA89F009900D9805900C9869
:101AE0000790019808960290019F9DF82C300A9368
:101AF000A2EB0A023E469EE6049B41F288329342E4
:101B00003FF779AEA6E666480221FFF79FF932E07B
:101B1000644800F0F5FA01466248F6E7624800F0D2
:101B2000EFFA01466048F0E760480321EDE7102234
:101B300000215F48DFF8A09100F0FCFB1022044672
:101B400000215C4800F0F6FB5B4A14440023014688
:101B50000546204689F80030FFF75AF9B36950EA84
:101B6000030104D1F369D86840B9C6E9054599F87D
:101B70000030002BFBD000233B60C4E6B37803F0B9
:101B80000303013B25FA03F3B3F5803FEFD88268E6
:101B90000068D2F808A09BB22246D0470028E4D0C3
:101BA000E5E7102200214248DFF8309100F0C2FB47
:101BB0001022044600213F4800F0BCFB0546B8B1A6
:101BC00072B604F5804AC4F30A0424B93B480222E1
:101BD0005146FFF73BFBD9F8001037482B4601442C
:101BE00052463648FFF79AFB62B6354803218CE728
:101BF000C9F80040F9E74FF480444FF00D090A2579
:101C0000102214F8010B8DF8529014A98DF853503E
:101C100000F020F9042114A8FFF718F94FF47A71A5
:101C20000520FEF789FCB4F5C04FE9D1A3E71022E7
:101C300000211F4800F07EFB1022054600211D48B0
:101C400000F078FB05F58041024604461D481E4D14
:101C500000F016F900221B4811468C4206D11B49A0
:101C600014A800F015FA0C2114A84EE710F8013B57
:101C700083EA1223013135F8133083EA02239AB242
:101C8000EBE7BFF34F8F1249124BCA6802F4E062D0
:101C90001343CB60BFF34F8F00BFFDE7F435000067
:101CA000BF33000066330000A1330000B1330000F1
:101CB000EB060020F4060020380700203C37002007
:101CC000B533000038270020EC330000B9330000A2
:101CD00000ED00E00400FA0548380020300700203D
:101CE000EFF3108287F31088D4F8003123F48003D7
:101CF000C4F80031D4F8003182F31088336A987048
:101D0000336A1871336A5872336A9872336AD872B8
:101D1000336A5883336A4022DA74336A06221A77A8
:101D20003378BBB1F269D168013B39B9D269177A0E
:101D30001F403F0207F4706747F001071B039BB287
:101D40001F43336A47F006029A82326A938A9BB233
:101D50009F42FBD1326A00231370326AF2219171E3
:101D6000326A5373326A1372326A8021D171326AD5
:101D7000A97851701178687860F301011170E978E1
:101D80009174D079297800F0A30001F05C0101433F
:101D9000D171C6E90333C6E90533F36993F9050048
:101DA000FEF778FCF36993F90B00FEF773FCF36917
:101DB00093F90700FEF76EFCF36993F90900FEF74B
:101DC00069FC336A70229A704FF6FF733381C6F84C
:101DD0000480316A8B7813F002037FF491AD8A7826
:101DE00002F07B0002F00B028A700B49F360336A49
:101DF0008A785A701A784C7864F301021A70CA789B
:101E00009A74DC790A7804F0A30102F05C020A43B8
:101E1000DA71336A987073E518060020014B186870
:101E2000704700BF1C060020931E222B10B50C46E5
:101E30000CD80A2A03D000F089FA204610BD0028E9
:101E4000F9DA2D2301F8013B4042F4E70020087045
:101E500010BD00BF931E222B10B50C460CD80A2AC9
:101E600003D000F073FA204610BD0028F9DA2D23C4
:101E700001F8013B4042F4E70020087010BD00BFAC
:101E8000844641EA000313F003036DD1403A41D385
:101E900051F8043B40F8043B51F8043B40F8043B44
:101EA00051F8043B40F8043B51F8043B40F8043B34
:101EB00051F8043B40F8043B51F8043B40F8043B24
:101EC00051F8043B40F8043B51F8043B40F8043B14
:101ED00051F8043B40F8043B51F8043B40F8043B04
:101EE00051F8043B40F8043B51F8043B40F8043BF4
:101EF00051F8043B40F8043B51F8043B40F8043BE4
:101F000051F8043B40F8043B51F8043B40F8043BD3
:101F1000403ABDD2303211D351F8043B40F8043B73
:101F200051F8043B40F8043B51F8043B40F8043BB3
:101F300051F8043B40F8043B103AEDD20C3205D383
:101F400051F8043B40F8043B043AF9D2043208D07B
:101F5000D2071CBF11F8013B00F8013B01D30B88ED
:101F600003806046704700BF082A13D38B078DD0CB
:101F700010F003038AD0C3F10403D21ADB071CBF9D
:101F800011F8013B00F8013B80D331F8023B20F807
:101F9000023B7BE7043AD9D3013A11F8013B00F840
:101FA000013BF9D20B7803704B7843708B788370C8
:101FB00060467047830730B548D0541E002A3FD092
:101FC000CAB2034601E0013C3AD303F8012B9D0756
:101FD000F9D1032C2DD9CDB245EA05250F2C45EAC0
:101FE000054536D9A4F1100222F00F0C03F1200EA2
:101FF000E6444FEA121C03F1100242E9045542E99B
:10200000025510327245F8D10CF1010214F00C0F98
:1020100003EB021204F00F0C13D0ACF1040323F015
:1020200003030433134442F8045B9342FBD10CF0E6
:1020300003042CB1CAB21C4403F8012B9C42FBD10F
:1020400030BD64461346002CF4D1F9E7034614462C
:10205000BFE71A46A446E0E70CB410B59CB01EAB2F
:102060006FF00044CDE906140291084953F8042B9F
:10207000059102A90193049400F096FA029B0022B4
:102080001A701CB0BDE8104002B070470802FFFF94
:102090000EB410B59DB06FF000411FABCDE9060145
:1020A0000491094953F8042B0290084C08680193E5
:1020B00002A9059400F078FA029B00221A701DB064
:1020C000BDE8104003B070471C0600200802FFFF67
:1020D000FFFFFFFFFFFFFFFFFFFFFFFFFFFFFFFF10
:1020E000FFFFFFFFFFFFFFFFFFFFFFFFFFFFFFFF00
:1020F000FFFFFFFFFFFFFFFFFFFFFFFFFFFFFFFFF0
:1021000090F800F06DE9024520F007016FF0000C37
:1021100010F0070491F820F040F049804FF00004DF
:102120006FF00700D1E9002391F840F000F10800BA
:1021300082FA4CF2A4FA8CF283FA4CF3A2FA8CF3F2
:102140004BBBD1E9022382FA4CF200F10800A4FA59
:102150008CF283FA4CF3A2FA8CF3E3B9D1E90423AD
:1021600082FA4CF200F10800A4FA8CF283FA4CF3E4
:10217000A2FA8CF37BB9D1E9062301F1200182FA9E
:102180004CF200F10800A4FA8CF283FA4CF3A2FAA4
:102190008CF3002BC6D0002A04BF04301A4612BAB2
:1021A000B2FA82F2FDE8024500EBD2007047D1E9B5
:1021B000002304F00305C4F100004FEAC50514F044
:1021C000040F91F840F00CFA05F562EA05021CBF15
:1021D00063EA050362464FF00004A9E72DE9F047E2
:1021E00007464B480E46354616F801CB10F80C4012
:1021F00014F00804F7D1BCF12D0FE64658D0BCF11D
:102200002B0F04BF96F800E0AE1C5BB1102B54D02E
:102210004FF0FF38B8FBF3F803FB08FA6FEA0A0A3D
:10222000994608E0BEF1300F5AD00A23DFF8E48067
:102230004FF0050A99460025284607E0404515D885
:1022400029D009FB00C0012516F801EBAEF1300CD6
:10225000BCF1090F06D9AEF1410CBCF1190F08D839
:10226000AEF1370C63450DDD002DE7DA4FF0FF3599
:10227000EAE7AEF1610CBCF1190F03D8AEF1570CCF
:102280006345F1DC002D0BDB04B140420AB16DB9AE
:102290001160BDE8F087D445D3DD4FF0FF35D3E7BB
:1022A00022233B604FF0FF30002AF2D0711EEFE78F
:1022B00096F800E00124AE1CA7E7BEF1300F21D153
:1022C000307800F0DF00582816D14FF0100996F84A
:1022D00001E04FF00F0A02366FF070484B46AAE754
:1022E000337803F0DF03582BEFD008234FF0070AB1
:1022F0006FF0604899469EE799466FF070484FF03E
:102300000F0A98E74FF00F0A6FF07048994692E76E
:10231000F13600009999991960E700BF10B4044C98
:102320008446134620685DF8044B0A46614655E72B
:102330001C06002010B4044C8446134620685DF847
:10234000044B0A46614649E71C060020F0B5254FBC
:10235000A2F1020E164605460C460FCF8BB0EC4696
:10236000ACE80F000FCFACE80F0097E803004CF883
:10237000040BBEF1220F8CF800102ED804F1FF3EA2
:1023800070464FF0000CB5FBF6F206FB12532833F3
:102390006B44614613F828CC00F801CF2B469E42CF
:1023A00001F1010C1546EED9002304F80C3089B177
:1023B000A44472461EF8010F1CF8015D8EF800500F
:1023C0006FEA0E0302322344121B0B449A428CF82C
:1023D0000000EEDB20460BB0F0BD002020700BB0FB
:1023E000F0BD00BFC8360000FFF7B0BF2DE9F047D1
:1023F0008F689F420C461D46164638D8824688890B
:1024000010F4906F0ED108683D462A46314600F020
:1024100027FCA2682368D21B2B44A2602360002003
:10242000BDE8F0874B69096903EB4308236808EBB3
:10243000D878A3EB01096B1C4FEA68084B4443456D
:10244000424684BF98464246430513D5114650463E
:1024500000F0E4FC074608B321694A46FFF710FD87
:10246000A38923F4906343F08003A38107E0086805
:102470001F46CAE7504600F02BFD074650B107EB58
:102480000900A8EB09032761C4F81480A360206049
:102490002F46BAE72169504600F05EFC0C23CAF8CB
:1024A0000030A38943F040034FF0FF30A381B7E72A
:1024B0002DE9F04F936883B09146002B6ED01768DA
:1024C0008D6880460C460868083744E0A38913F4F9
:1024D000906F2ED0D4E90415A0EB010A05EB450559
:1024E00005EBD5750AEB06006D100130A8422A46AF
:1024F00084BF05462A465B0537D51146404600F0A5
:102500008DFC00283BD0524621690190FFF7B8FCB2
:10251000A289019B22F4906242F08002A281A5EB85
:102520000A0203EB0A006561A26023612060354660
:10253000B2465946524600F093FBA068D9F80810FD
:102540002368451B8E1B03EB0A00A5602060C9F8B9
:1025500008601EB3083757E902B6002EFAD0B5421C
:10256000AA46B3D93546B246E3E7404600F0B0FC90
:1025700003460028D3D12169404600F0EDFB0C232F
:10258000C8F80030A389002243F040034FF0FF3029
:10259000A381C9E9012203B0BDE8F08F0020C9F88A
:1025A000040003B0BDE8F08F2DE9F04F92468A8910
:1025B00015069DB0884681461C4603D50A69002A47
:1025C00000F0EF80002209929AF800307E4D0394CB
:1025D00020228DF8292030228DF82A200126002B78
:1025E00072D0544603E014F8013F002B76D0252B1F
:1025F000F9D1B4EB0A0B74D12278002A64D00023FD
:102600004FF0FF32CDE90523049307938DF8533043
:102610001A93013404E0049A06FA03F31343049373
:10262000A246052214F8011B284600F0C9FA431BF4
:102630000028F0D1049BD80644BF20228DF85320F7
:1026400019079AF8001044BF2B228DF853202A292D
:1026500054D1039A11680432002903927CDB07915C
:102660009AF801100AF1010A2E2959D0574C032279
:10267000204600F0A5FA40B1049B001B402404FA58
:1026800000F0034304930AF1010A1AF8011B5048B1
:102690008DF82810062200F093FA002862D04D4BE6
:1026A000002B52D003AA00924B4B424604A9484645
:1026B000AFF3008007467A1C06D0099B3B44099380
:1026C0009AF80030002B8CD1B8F80C305B0654BF60
:1026D00009984FF0FF301DB0BDE8F08FB4EB0A0B46
:1026E000F2D05B46524641464846FFF77FFE013036
:1026F000EAD0099B22785B4409937EE7A1F130027E
:10270000092AB1D8079B1AF8011F03EB830302EBD8
:102710004303A1F13002092AF5D92E290793A5D147
:102720009AF801102A2927D1039B9AF802101A68F7
:1027300005920433002A0AF102000393B8BF4FF058
:10274000FF338246B8BF059390E7039B073323F01E
:10275000070308330393B0E7494243F002030791AC
:1027600004937DE703AA00921B4B424604A9484606
:1027700000F0CAF807469EE7A1F130020023092ABB
:1027800005930AF1010A3FF671AF1AF8011F03EB36
:10279000830302EB4303A1F13002092AF5D9059323
:1027A00064E7402100F03AFBC8F80000C8F81000C8
:1027B00018B14022C8F8142004E70C23C9F80030EF
:1027C0004FF0FF3087E700BFF4370000FC37000010
:1027D0000038000000000000ED2300002DE9F84F54
:1027E00092461F460A698B68DDF828909A42B8BF66
:1027F0001A46CAF8002091F843300C46064613B139
:102800000132CAF80020226891065DD5DAF800305E
:102810000233CAF80030226812F0060F11461ED1AA
:10282000E168CB1A002BD8BF114618DD04F1190B53
:102830004FF0000805E0E568DAF80030ED1A45458C
:102840000CDD01235A4639463046C847013008F1AD
:102850000108F0D14FF0FF30BDE8F88F216894F8FF
:102860004330003B18BF01238A060AD5E1185A1CE1
:10287000302081F84300224494F8451082F8431038
:10288000023304F1430239463046C8470130E1D0F3
:10289000236803F00603042B1DD0A368226993422A
:1028A00025DD4FF000089B1A98441A34002501E0FA
:1028B00045451CDA0123224639463046C8470130D7
:1028C00005F10105F4D1C5E712F0060F12D0003B67
:1028D00018BF0123D5E7DAF80030E1682269C91A88
:1028E000A368934221EAE178DDDC0029DDDC0020E9
:1028F000BDE8F88FE168DAF80030CB1A002BD8BFBA
:10290000114693DCABE700BF2DE9F0470C4684B0DD
:102910009046227E0C990746994604F14300002A0E
:1029200033D0A2F15803DDB2202D67D8202B65D813
:10293000DFE813F0DE0064006400640064006400FB
:1029400064006400640064006400A3006E0064001E
:102950006400640064006E0064006400640064004D
:1029600021007F00C00064006400AE0064007F00AE
:1029700064006400E50023681A0640F104810B68D6
:1029800062691D1D0D601B681A6000238246236169
:10299000CDF80090434603AA21463846FFF71EFFB4
:1029A000013020D02369524641463846C84701309D
:1029B00019D02368E068039E9B0719D5831B002B61
:1029C00016DD04F1190A002504E0E068039E831B6C
:1029D000AB420DDD0123524641463846C84701301F
:1029E00005F10105F1D14FF0FF3004B0BDE8F087EB
:1029F000B042B8BF304604B0BDE8F087012384F888
:102A00004220236104F1420A002384F84330BFE7E7
:102A100023681A0602D45E0600F1C1800D682A6898
:102A200004350D601546002A6BDBDFF884C10A26E9
:102A300010E023681D0640F19C800B681D1D0D6091
:102A40001D68DFF86CC16F2A0CBF08260A26002318
:102A500084F843306268A260002A7FDB236823F099
:102A600004032360002D5BD1002A79D18246082E11
:102A700065D0A0EB0A0020618AE70B680122186884
:102A800004330B6004F1420A84F842002261BBE780
:102A90000B686268181D0860D3F800A0002150463A
:102AA00000F08EF8002800F08180A0EB0A00606042
:102AB0002061A9E7236843F0200323607822DFF830
:102AC000F4C084F845200A68151D0D601D0643D426
:102AD000590641D51588DE0744BF43F02003236023
:102AE000002D44D1236823F0200323601026AEE795
:102AF000582384F84530DFF8B8C02368E3E723683B
:102B0000DCE76268A2602D21002AC5F1000584F887
:102B1000431002DB23F004032360DFF894C00A268D
:102B20008246B5FBF6F306FB13512A461CF801104A
:102B30000AF8011DB2421D46F3D2082E99D123682E
:102B4000D90796D5626823699A4292DC30230AF845
:102B5000013C0AF1FF3A8CE71568BCE7002DDFD194
:102B60009CF8003084F8423004F1420A7FE71026D6
:102B70006DE713F0400F0B6803F104050D600CBF07
:102B80001D681D885DE713F0400F0B68626903F153
:102B900004050D601B6814BF1A801A60F5E60A6808
:102BA000B2F9005004320A602A463CE760687FE7C9
:102BB000083800001C380000FFFFFFFFFFFFFFFF89
:102BC00001F0FF01102A2BDB10F0070F08D010F8DE
:102BD000013B013A8B422DD010F0070F42B3F6D1E2
:102BE000F0B441EA012141EA014122F007047FF0FB
:102BF00000070023F0E80256083C85EA010586EA52
:102C0000010685FA47F5A3FA87F586FA47F6A5FA8D
:102C100087F68EB9EED1F0BC01F0FF0102F0070299
:102C200032B110F8013B013A83EA010313B1F8D144
:102C30000020704701387047002D06BF3546033825
:102C4000073815F0010F07D1013015F4807F02BF5E
:102C5000013015F4C03F0130F0BC0138704700BFAF
:102C600088420DD98B1883420AD900EB020CBAB105
:102C7000624613F801CD02F801CD9942F9D17047AF
:102C80000F2A0ED8034602F1FF3C4AB10CF1010CA9
:102C9000013B8C4411F8012B03F8012F6145F9D158
:102CA000704740EA01039B0750D1A2F1100370B5B1
:102CB00001F1200C23F00F0501F1100E00F11004BA
:102CC000AC441B095EF8105C44F8105C5EF80C5CC8
:102CD00044F80C5C5EF8085C44F8085C5EF8045C40
:102CE00044F8045C0EF1100EE64504F11004E9D13D
:102CF000013312F00C0F01EB031102F00F0400EB93
:102D0000031327D0043C24F003064FEA940C1E441E
:102D10001C1F8E465EF8045B44F8045FB442F9D190
:102D20000CF1010402F0030203EB840301EB8401C4
:102D300002F1FF3C4AB10CF1010C013B8C4411F84B
:102D4000012B03F8012F6145F9D170BD02F1FF3C61
:102D500003469BE72246EBE7002958D030B551F8EF
:102D6000043C83B0002BA1F10404B8BFE418019027
:102D700000F0E8F8284A0198136833B1A3420DD94E
:102D8000216804EB010C63452FD06360146003B02D
:102D9000BDE8304000F0D8B8A34210D81A465B68AE
:102DA000002BF9D1116802EB010C644519D02FD327
:102DB0006360546003B0BDE8304000F0C5B81168EE
:102DC00002EB010CA44516D022D8216804EB010CBB
:102DD0006345EDD11D685B682944C4E90013546064
:102DE000D5E7236819441160D1E71D685B68294461
:102DF000C4E90013CAE7246821445418A3421160AF
:102E0000C5D1D3E900432144C2E90013BFE77047AD
:102E10000C230360BBE700BF50380020F8B5CD1C81
:102E200025F0030508350C2D38BF0C25002D06466E
:102E300023DBA94221D8254F00F084F83A6822B359
:102E4000144603E063682246FBB11C4623685B1B03
:102E5000F8D40B2B15D8636894420CBF3B605360C9
:102E6000304600F071F804F10B00231D20F007003C
:102E7000C21A01D01B1AA350F8BD0C2333600020E6
:102E8000F8BD23601C442560EAE77968C9B129468A
:102E9000304600F045F8431C0CD0C41C24F0030459
:102EA000A04205D0211A304600F03AF8013001D096
:102EB0002560D5E70C233046336000F045F800204C
:102EC000F8BD304600F02CF87860E0E7503800207C
:102ED000F8B51446F9B1CAB106460D4600F036F809
:102EE000A04202D32F463846F8BD21463046FFF7B0
:102EF00095FF07460028F6D022462946FEF7C0FF78
:102F000030462946FFF728FF3846F8BD2746FFF729
:102F100023FF3846F8BDBDE8F8401146FFF77EBFF5
:102F200038B5074D0022044608462A60FEF786F8A9
:102F3000431C00D038BD2B68002BFBD0236038BD6C
:102F400058380020704700BF704700BF51F8040C8C
:102F50000028A0F10400BCBF0B58C018704700BF88
:102F60007BB972B90029BEBF00204FF0004106E0D6
:102F700008BF00281CBF6FF000414FF0FF3000F089
:102F8000A7B9ADF1080C6DE904CE002909DB002BCF
:102F90001ADB00F035F8DDF804E0DDE9022304B0C7
:102FA0007047404261EB4101002B1BDB00F028F829
:102FB000DDF804E0DDE9022304B0404261EB4101A9
:102FC000524263EB43037047524263EB430300F00A
:102FD00017F8DDF804E0DDE9022304B0404261EBBC
:102FE00041017047524263EB430300F009F8DDF8FA
:102FF00004E0DDE9022304B0524263EB430370476F
:103000002DE9F047089D04468E46002B4DD18A429B
:10301000944669D9B2FA82F252B101FA02F3C2F1CE
:10302000200120FA01F10CFA02FC41EA030E94405F
:103030004FEA1C48210CBEFBF8F61FFA8CF708FB80
:1030400016E341EA034306FB07F199420AD91CEB58
:10305000030306F1FF3080F01F81994240F21C818A
:10306000023E63445B1AA4B2B3FBF8F008FB1033D2
:1030700044EA034400FB07F7A7420AD91CEB040407
:1030800000F1FF3380F00A81A74240F207816444D7
:10309000023840EA0640E41B00261DB1D44000235C
:1030A000C5E900433146BDE8F0878B4209D9002DC0
:1030B00000F0EF800026C5E9000130463146BDE84A
:1030C000F087B3FA83F6002E4AD18B4202D38242B4
:1030D00000F2F980841A61EB030301209E46002D63
:1030E000E0D0C5E9004EDDE702B9FFDEB2FA82F2B8
:1030F000002A40F09280A1EB0C014FEA1C471FFA16
:103100008CFE0126200CB1FBF7F307FB131140EAFC
:1031100001410EFB03F0884208D91CEB010103F1C9
:10312000FF3802D2884200F2CB804346091AA4B28B
:10313000B1FBF7F007FB101144EA01440EFB00FE5F
:10314000A64508D91CEB040400F1FF3102D2A645C4
:1031500000F2BB800846A4EB0E0440EA03409CE763
:10316000C6F12007B34022FA07FC4CEA030C20FA10
:1031700007F401FA06F31C43F9404FEA1C4900FA30
:1031800006F3B1FBF9F8200C1FFA8CFE09FB1811AD
:1031900040EA014108FB0EF0884202FA06F20BD920
:1031A0001CEB010108F1FF3A80F08880884240F270
:1031B0008580A8F102086144091AA4B2B1FBF9F0B4
:1031C00009FB101144EA014100FB0EFE8E4508D9AF
:1031D0001CEB010100F1FF346CD28E456AD9023834
:1031E000614440EA0840A0FB0294A1EB0E01A14219
:1031F000C846A64656D353D05DB1B3EB080261EB87
:103200000E0101FA07F722FA06F3F1401F43C5E960
:10321000007100263146BDE8F087C2F12003D84096
:103220000CFA02FC21FA03F3914001434FEA1C47D8
:103230001FFA8CFEB3FBF7F007FB10360B0C43EACA
:10324000064300FB0EF69E4204FA02F408D91CEB7A
:10325000030300F1FF382FD29E422DD90238634478
:103260009B1B89B2B3FBF7F607FB163341EA034118
:1032700006FB0EF38B4208D91CEB010106F1FF3867
:1032800016D28B4214D9023E6144C91A46EA00465E
:1032900038E72E46284605E70646E3E61846F8E6F0
:1032A0004B45A9D2B9EB020864EB0C0E0138A3E739
:1032B0004646EAE7204694E74046D1E7D0467BE71A
:1032C000023B614432E7304609E76444023842E792
:1032D000704700BFFFFFFFFF5FF800F0FD01002017
:1032E0005FF800F0390100205FF800F08100002055
:1032F0005FF800F0B90100205FF800F0FD00002049
:103300005FF800F00F0100205FF800F07503002067
:103310005FF800F09D04002000000504342E352ED7
:1033200030004275696C7420776974682052656E4C
:103330006573617320416476616E63656420466CD9
:10334000657869626C6520536F6674776172652079
:103350005061636B6167652076657273696F6E207B
:10336000342E352E300041726475696E6F20426FC5
:103370006F746C6F61646572202853414D2D42411A
:1033800020657874656E6465642920322E30205B78
:1033900041726475696E6F3A494B58595A5D0A0D0E
:1033A000006E524635323834302D514941410A0DB4
:1033B00000580A0D00590A0D005A25303858230AC2
:1033C0000D00FFFF040000000B01000000000000E2
:1033D0000A010000000001130704000000000113AF
:1033E0000E090000000001130F0900000000211069
:1033F000422063308440A550C660E770088129915F
:103400004AA16BB18CC1ADD1CEE1EFF13112100206
:1034100073325222B5529442F772D66239931883AE
:103420007BB35AA3BDD39CC3FFF3DEE362244334D2
:1034300020040114E664C774A44485546AA54BB5FE
:1034400028850995EEE5CFF5ACC58DD553367226A6
:1034500011163006D776F6669556B4465BB77AA74E
:1034600019973887DFF7FEE79DD7BCC7C448E558F2
:103470008668A7784008611802282338CCC9EDD99E
:103480008EE9AFF9488969990AA92BB9F55AD44A46
:10349000B77A966A711A500A333A122AFDDBDCCBEE
:1034A000BFFB9EEB799B588B3BBB1AABA66C877C12
:1034B000E44CC55C222C033C600C411CAEED8FFD3E
:1034C000ECCDCDDD2AAD0BBD688D499D977EB66EE6
:1034D000D55EF44E133E322E511E700E9FFFBEEF8E
:1034E000DDDFFCCF1BBF3AAF599F788F8891A98150
:1034F000CAB1EBA10CD12DC14EF16FE18010A1003A
:10350000C230E3200450254046706760B983989329
:10351000FBA3DAB33DC31CD37FE35EF3B102901289
:10352000F322D2323542145277625672EAB5CBA5F5
:10353000A89589856EF54FE52CD50DC5E234C324D9
:10354000A01481046674476424540544DBA7FAB7C9
:103550009987B8975FE77EF71DC73CD7D326F23629
:103560009106B01657667676154634564CD96DC915
:103570000EF92FE9C899E9898AB9ABA94458654879
:1035800006782768C018E1088238A3287DCB5CDB69
:103590003FEB1EFBF98BD89BBBAB9ABB754A545AC9
:1035A000376A167AF10AD01AB32A923A2EFD0FED35
:1035B0006CDD4DCDAABD8BADE89DC98D267C076C19
:1035C000645C454CA23C832CE01CC10C1FEF3EFF09
:1035D0005DCF7CDF9BAFBABFD98FF89F176E367E69
:1035E000554E745E932EB23ED10EF01E05000000C3
:1035F000C43300000403010C00091408111C101945
:1036000018FF0600080010001800200040006000AD
:10361000800000018001000200040008000000009A
:103620001906000000000000000000000207020868
:10363000A9AAA8AB000000000000000000000000E4
:10364000000000000000000000000000000000007A
:10365000803700205C360000683600000806002035
:103660006436000002FFFFFF990F0000C10B00004D
:10367000750A0000250B00001D0900001509000057
:103680001909000051090000BD09000009020000ED
:103690000202020002010203503600000000000096
:1036A000E505000000000000B43600000204030439
:1036B0000404FFFF00010000180600200100FFFFC6
:1036C00000000000FFFF0000303132333435363760
:1036D00038396162636465666768696A6B6C6D6ED0
:1036E0006F707172737475767778797A00FFFFFF67
:1036F00000202020202020202020282828282820C2
:1037000020202020202020202020202020202020B9
:103710002088101010101010101010101010101021
:103720001004040404040404040404101010101011
:1037300010104141414141410101010101010101DB
:10374000010101010101010101010101101010102D
:1037500010104242424242420202020202020202AD
:103760000202020202020202020202021010101001
:103770002000000000000000000000000000000029
:103780000000000000000000000000000000000039
:103790000000000000000000000000000000000029
:1037A0000000000000000000000000000000000019
:1037B0000000000000000000000000000000000009
:1037C00000000000000000000000000000000000F9
:1037D00000000000000000000000000000000000E9
:1037E00000000000000000000000000000000000D9
:1037F00000FFFFFF232D302B20000000686C4C00E1
:1038000065666745464700FF303132333435363719
:1038100038394142434445460000000030313233DC
:0D38200034353637383961626364656600FF
:08383000D0F7FF7F010000004A
:1038380010B5431E19440B4B93F804416FF3000471
:1038480083F80441040C80B2A3F81041D2B2A3F863
:103858000801080C89B2C3F82001A3F8181183F8ED
:10386800142110BD00C07E4082B00F4B0190D3F8E8
:103878002C2151060FD5002283F814210190D3F88A
:103888002C21C2F38010520608D5019A2AB1019A58
:10389800013A0192F3E7019A12B9142002B0704775
:1038A800019A013A0192E2E700C07E4041430329B0
:1038B80004D98908A1F101010029FBD17047094BFE
:1038C800A522C3F88021C243D2B283F8000183F84D
:1038D800002183F8000193F80031834200D100BF32
:1038E800704700BF00C07E4073B51D4EB6F8B24F9A
:1038F800A4B24FF49643012C0546019309D19220B6
:10390800FFF7DDFF0320A968FFF7D0FF1220FFF7BC
:10391800D6FF0820FFF7D3FFA96806204FF42A43F3
:10392800FFF7C4FFA6F8B23FB6F8B20F80B270B97D
:10393800012C0AD10B4BA3F80441B3F8040180B25F
:103948000028FAD10122A3F8002102B070BD019B22
:103958001BB1019B013B0193E6E71420F5E700BF8B
:1039680000F07E4000C0014010B5002380F83430DC
:103978000C4BB3F8B23F9BB204460BB900F014FAF3
:10398800094BD3F8242142F00102C3F82421D3F8CB
:1039980024216FF30002C3F824212046BDE810401B
:1039A800A2E700BF00F07E4000C07E40F8B50546A3
:1039B800084616461F46FFF757FF1428044604D149
:1039C8002846FFF7D1FF2046F8BD054BD3F8F04154
:1039D8003440F8D02846FFF7C7FF3C46F3E700BF5E
:1039E80000C07E4010B50023934200D110BDCC5CCE
:1039F800C4540133F8E738B5174B0022A3F8002167
:103A080043681A7804461AB193F9110000F0D0F906
:103A1800124B4AF60122A3F8B22F1220FFF74FFFEC
:103A28000F4BA1680320FFF741FF93F8A030034034
:103A3800002B0BBF8221C2219220D2200CBF062569
:103A48000425FFF73CFF0846FFF739FFA168284621
:103A5800BDE838402AE700BF00C0014000F07E40C2
:103A680000E0014082B00F4B0190D3F82C211106E1
:103A78000FD50022C3F8DC210190D3F82C21C2F322
:103A8800C010120608D5019A2AB1019A013A01928A
:103A9800F3E7019A12B9142002B07047019A013A6B
:103AA8000192E2E700C07E4038B50546406AFFF75C
:103AB800D9FF1428044604D12846FFF755FF2046AD
:103AC80038BD054BD3F8F04114F01204F7D028465E
:103AD800FFF74AFF1824F2E700C07E40F8B5054614
:103AE80014460F461E46FFF786FF214683223846B6
:103AF800FFF79EFE0334A969A4084FF4FC73102253
:103B080061432846FFF752FF48B9054BD3F82831DF
:103B1800C3F3C00333702846BDE8F840E4E6F8BDB7
:103B280000C07E40F8B5044615460E461F46FFF70E
:103B380062FF0D4B93F804216FF3000283F8042110
:103B480007FB05F184223046FFF772FEE16919236D
:103B5800112269432046FFF729FF18B92046BDE81E
:103B6800F840C1E6F8BD00BF00C07E402DE9F84F1F
:103B7800894680469246FFF73EFF214C4D468327F3
:103B88004FF6FF7B94F8043143F0010384F80431C5
:103B9800BAF1000F1DD1C4F830B1C4F838B1C4F877
:103BA800DC714046FFF780FF94F804316FF300039F
:103BB800013784F80431064618B9872F05F1040542
:103BC800E0D14046FFF790FE002E18BF3046BDE812
:103BD800F88F6A782B7843EA0223C4F83031BB00A7
:103BE800B3F5067F0DBFB9F80E30EA78AB784AEA2C
:103BF800030318BF43EA0223C4F83831CFE700BFF4
:103C080000C07E4013B5104C0B0C89B2A4F81031DB
:103C18000822A4F8081101466846FFF7E3FEBDF83C
:103C28000030C4F83031BDF80230C4F83831BDF87E
:103C38000430C4F84031BDF80630C4F8443181235B
:103C480084F8143102B010BD00C07E40F8B50446B7
:103C580017460E461D46FFF7CEFEC4E90A67154A09
:103C6800ED08256392F804316FF3000382F80431FC
:103C78000025236BBBB10DB12846F8BDD4E90A0174
:103C8800FFF7C0FFA36A21690833A362E36A083318
:103C9800E362236B013B2363122218232046FFF7BC
:103CA80085FE0546E5E7002DE6D12046FFF71CFE18
:103CB800E2E700BF00C07E400C4B5AB9C0F38F202A
:103CC800C1F38F21C3F830018222C3F83811C3F839
:103CD800DC21704740F47E404FF6FF7240F0FF0051
:103CE800C3F83821C3F830018122F0E700C07E40D4
:103CF800F8B5164607460D46164CFFF77CFE6EB122
:103D0800D4F8D83165F38713C4F8D831002538467C
:103D1800FFF7EAFD002D18BF2846F8BD94F80431D6
:103D280015F0010F43F0010384F804310CBF4FF480
:103D38008070002001223146FFF7BEFF3846FFF7AA
:103D4800B3FE94F8043166F30003054684F80431A1
:103D5800DDE700BF00C07E4073B5114E01920546F5
:103D68000C46FFF748FE96F8043143F0010386F845
:103D78000431019900222046FFF79EFF2846FFF7ED
:103D880093FE96F804316FF30003044686F8043175
:103D98002846FFF7A9FD002C18BF204602B070BDC9
:103DA80000C07E40000000005FF800F051110000E4
:103DB8005FF800F0BD0600000000080000000000E9
:103DC800000000000000000040001900200600204C
:103DD80000000000000000000000000000000000DB
:103DE80000000000000000000000000000000000CB
:103DF80000000000000000000000000000000000BB
:103E080000000000000000000000000000000000AA
:103E1800000000000000000000000000000000009A
:103E2800000000000000000000000000000000008A
:020000040101F8
:10001800FFFFFFFFFFFFFFFFFFFFFFFFFFFFFFFFE8
:0C002800FFFFFFFFFFFFFFFFFFFFFFFFD8
:0400000300001409DC
:00000001FF
