:1000000028AB00200521000089030000FB0200004E
:10001000FB020000FB020000FB020000FB020000EC
:10002000000000000000000000000000FB020000D3
:10003000FB02000000000000FB0200006D04000055
:100040007D0400008B0400008F0400009304000076
:1000500041190000970400009B040000F51D0000FA
:10006000991D0000A5080000A10900000000000083
:100070000000000000000000000000000000000080
:100080000000000000000000000000000000000070
:100090000000000000000000000000000000000060
:1000A0000000000000000000000000000000000050
:1000B0000000000000000000000000000000000040
:1000C0000000000000000000000000000000000030
:1000D0000000000000000000000000000000000020
:1000E0000000000000000000000000000000000010
:1000F0000000000000000000000000000000000000
:1001000000000000000000000000000000000000EF
:1001100000000000000000000000000000000000DF
:1001200000000000000000000000000000000000CF
:1001300000000000000000000000000000000000BF
:1001400000000000000000000000000000000000AF
:10015000000000000000000000000000000000009F
:10016000000000000000000000000000000000008F
:10017000000000000000000000000000000000007F
:10018000000000000000000000000000000000006F
:10019000000000000000000000000000000000005F
:1001A000000000000000000000000000000000004F
:1001B000000000000000000000000000000000003F
:1001C000FFFFFFFFFFFFFFFFFFFFFFFFFFFFFFFF3F
:1001D000FFFFFFFFFFFFFFFFFFFFFFFFFFFFFFFF2F
:1001E000FFFFFFFFFFFFFFFFFFFFFFFFFFFFFFFF1F
:1001F000FFFFFFFFFFFFFFFFFFFFFFFFFFFFFFFF0F
:100200000A4BCAB253F8300011F07F030BD00849F3
:10021000D20901EB0211194491F878301BB1373340
:1002200000EB430070476030704700BF242E000091
:100230009805002070B50C4C5D08A042104623F0D4
:10024000010404BF033002320C44A14207D16FF015
:10025000010202FB05330BB10B78037070BD31F85E
:10026000026B1680F1E700BF00101140084B03EB52
:10027000C000426853B2002B08DB012102F01F02CC
:1002800001FA02F203495B0941F82320704700BFDD
:10029000242E000000E100E00A4B03EBC00042689E
:1002A00053B2002B0DDB012102F01F0201FA02F212
:1002B0005B090549203341F82320BFF34F8FBFF37B
:1002C0006F8F7047242E000000E100E038B505462E
:1002D000FFF796FF044678B12846FFF7DDFF238835
:1002E000284603F0030343F0020323800223238004
:1002F000BDE83840FFF7BABF38BD00BE7047FFFF0A
:100300000123074AA2F80431B2F804319BB2002B52
:10031000FAD10123A2F80031024A936013607047BA
:1003200000C0014000700040064B93F826101A6A86
:10033000054BC2F3026253F82130D340034A1360E5
:10034000704700BF00E001405C05002078050020F8
:10035000A0F101000028FBD17047FFFF48434FF494
:100360007A71074BA0FB01011B680649B1FBF3F151
:10037000B0FBF1F0800801D0FFF7EABF704700BF83
:100380007805002000CA9A3B034AB2F840319BB27C
:10039000A2F83031704700BF0060004010B5EFF3A5
:1003A0001081012383F310880F4A32F810309BB27A
:1003B0002BB132F81030013B9BB222F8103032F8EA
:1003C00010309BB263B9094A094CB2F8FE3334F8D5
:1003D00010009BB243F4254323EA0003A2F8FE3346
:1003E00081F3108810BD00BF0C89002000E001409F
:1003F000142E000030B5EFF31084012383F310882E
:100400000D4A32F810309BB263B90C490C4DB1F86B
:10041000FE3335F810509BB22B4343F425439BB277
:10042000A1F8FE3332F8103001339BB222F81030BD
:1004300084F3108830BD00BF0C89002000E001402B
:10044000142E0000EFF30380103840B27047FFFF16
:10045000054BC03053F820206FF3104243F82020A2
:1004600053F82030704700BF00600040024A136814
:1004700001331360704700BF248B002008B5FFF7DD
:10048000E1FFBDE80840FFF7E3BFFFF7F7BFFFF765
:10049000F5BFFFF7F3BFFFF7F1BFFFF7EFBF0A4468
:1004A00092B291424FEA400001D8824201DB121A17
:1004B00092B2104670472DE9F341B1F808C04C895B
:1004C0001FFA8CFCA4B2B1F804E0A44536BFC4EB1B
:1004D0004E05ACEB04056544ADB2AE450F461E4675
:1004E00008D27546F4452CBFACEB0E040CEB0E04A1
:1004F000A4B24C813DB92C46A846294614E0ACEB89
:100500000E0C1FFA8CFCE645F9D9A6452CD9D7F874
:100510000080A44508EB04012AD8A5EB0E05AEEB3C
:1005200004032C44A4B29DB2B54228BF35462B46E5
:10053000CDE90002FFF77EFEDDE90002731B9BB2EE
:1005400043B19C4228BF1C4641462346FFF772FE3A
:100550002544ADB279892A46B88889B2FFF79FFF52
:10056000788102B0BDE8F081A4EB0E04A4B2CCE720
:100570004FF000084446D7E72DE9F341164C0746F3
:10058000E58825B90120256002B0BDE8F081B0F80A
:100590005E802E4608F07F08454528BF46463EB19E
:1005A000637A216800F1140273B13346FFF783FFC9
:1005B000464538BF4FF40043A5EB06054FF0000059
:1005C00038BF7B84E580DFE733460191FFF732FED9
:1005D000019931442160EBE7980500200C232DE9B7
:1005E000F3474B43274D0446EA18D7880E4627B9F0
:1005F0000120EF5002B0BDE8F0878BB243F4806277
:100600000285A0F86430B0F86CA01FFA8AFA238D36
:1006100003F00F039E42FAD1638D9B04FCD557452E
:10062000B84628BFD046B8F1000F0FD04FF00C09E4
:1006300009FB06F905EB09035B7A55F8091004F18B
:100640001802ABB143462046FFF735FFD0453CBF0B
:100650004FF40043638500232385208D10F00F00A5
:10066000FBD10C2101FB0655A7EB0807EF80C1E782
:10067000434620460191FFF7DDFD0199414445F8CD
:100680000910E3E7980500204B6902490B6101213D
:10069000184700BF840500200346034A10780BB1B9
:1006A000FFF7E4BDFFF7F8BD180500200222024B5A
:1006B0005A8000221A717047340700200022024B32
:1006C0001A80FFF7F3BF00BF340700200020FFF7B8
:1006D000F5BF01207047FFFF8B7970B5012B12D158
:1006E000CB79022B0FD1002318468D78CC79022CC0
:1006F0001AD1824209D84FF0E023D3F8F00D10F060
:10070000010024D000BE002021E08C78AC42F2D160
:10071000CE78DCB2A642EED10C78013321442044DD
:100720008C7980B2012CE1D04B78212BE3D1084B9E
:100730008A7809301A70B1F8053080B2402B06D99A
:100740004FF0E023D3F8F03DDB0700D500BE70BDCD
:1007500034070020704710B501F1080400F00F02C3
:10076000D3B2092ACCBF3733303304F8013DA1425C
:100770004FEA1010F2D110BD08B50146FFF768FE30
:10078000BFF35F8F012201F01F039A404B099B00CA
:1007900003F1604303F56143C3F880211A6008BD8B
:1007A0000122430900F01F0002FA00F0044A20333E
:1007B00042F82300BFF34F8FBFF36F8F704700BF26
:1007C00000E100E010B4090100F16044C9B204F591
:1007D000614484F80013034941F820205DF8044B7C
:1007E000FFF7CABF1889002037B5C36B04460A4615
:1007F0006D468BB193E8030085E803001A70226C04
:1008000018465A60A26B9047E36B1BB195E8030052
:1008100083E8030003B030BD2B46EFE74FF4964367
:1008200013B50193436804461A7842B193F9110055
:10083000FFF7A2FF636893F91300FFF79DFF4AF6E5
:1008400080230A4AA2F88430B2F884309BB2802B0D
:1008500002D1002002B010BD019B1BB1019B013BE6
:100860000193F1E74FF4FA70F4E700BF00E07F4036
:1008700037B5836B04460A466D468BB193E8030097
:1008800085E80300E16B1A7119601846626B9047A6
:10089000A36B1BB195E8030083E8030003B030BDF0
:1008A0002B46EFE710B5FFF7CDFDFFF7D1FDFFF7C2
:1008B000C9FD3A4B53F820301A69117BC1F300008F
:1008C000C9074FD493F82C1093F82A408C4215D0C6
:1008D00093F82D0020B1022902D15223D3720CE0EB
:1008E00093F82810D17093F82B20013A83F82B202D
:1008F00093F82C20013283F82C2010BD196A41B3E3
:1009000093F82D404CB95A6A98690139805C0132DC
:1009100019625A621B69D870EFE793F831406CB1E5
:10092000012983F8310004D120211A699172FF2036
:10093000F0E790721A6A012AF9D1F5E750799969BE
:100940005A6A88541A6A013A1A625A6A01325A6219
:10095000F0E793F82E1081B15221D172012283F871
:100960003020CAE793F82D1011B193F8311031B14E
:1009700000211962012183F82F105423AEE750792A
:1009800099695A6A88541A6A93F82E10013A1A62C1
:100990005A6A01325A621A69DDE700BF18890020DD
:1009A00010B5FFF74FFD2D4B53F820000269D37AA5
:1009B0006FF3C303D37290F82F2002F0FF0332B11C
:1009C000F02201210369DA72FFF752FF1BE090F871
:1009D0002A1090F82C20914229D0D2B901290CBFBD
:1009E00090F8283090F8293000210269D17202690C
:1009F000D37090F82B30013B80F82B3090F82C30DE
:100A0000013380F82C30FFF71DFDBDE81040FFF7E3
:100A10001FBD90F82D1001F0FF0431B1022AE3D17F
:100A200090F8293043F00103DEE72346DCE7026A51
:100A3000002AE8D190F82D3090F83040002B14BFF8
:100A40000221032103690CB1DA72BDE7F022DA72E8
:100A50000269937803F0CF039370B5E718890020FB
:100A60000022084B1A719A78042A02D103229A7044
:100A70007047072AFCD11A7812F0040F14BF06221F
:100A80000822F4E73407002008B50378012B06D1CB
:100A900003490B881BB1FFF7E3FF00230B8008BD60
:100AA000C688002073B5344B344CDD68A54209D1AB
:100AB0001A6A3AB993F8302022B90826304A5E60A3
:100AC000127B1A720022A5428DF804008DF80510E1
:100AD00083F82E2031D1596B79B301A99961022194
:100AE000D961197A012907D183F829205A6883F836
:100AF0002A10520083F828200022022183F82D209A
:100B000083F82F2083F8312083F8332083F82C20BA
:100B10005A62196293F82D2093F82A1083F82B104B
:100B200012B1012283F83120B4211A69917093F82F
:100B300030204AB951221B69DA724FF47A710520CC
:100B4000FFF70CFC02B070BD002283F8302093F850
:100B50002A201969012A0CBF93F8282093F829202C
:100B6000CA7093F82B20013A83F82B2093F82C209D
:100B7000013283F82C20E0E7DC8A0020433249531D
:100B80002C0500202DE9F84F3E4E074606EBD0130A
:100B900093F829408B4614F0010490464FEAD01A8E
:100BA0000BD04FF0E023D3F8F03DD90703D4002455
:100BB0002046BDE8F88F00BEF9E7334A92F800906E
:100BC00093F82920484642F0010283F829202F4B50
:100BD00053F83950FFF760FB0DB900BEFEE7002F58
:100BE0003DD04FF484632B842B8C9A06FCD50022D5
:100BF000274B5A72A3F80480A3F80680B8F1000FBF
:100C000039D0C3F800B0002F31D0B5F860301804E7
:100C100003D5B5F85430190626D44FF0E023D3F8A5
:100C2000F03DDA0700D500BE4846FFF71FFB002C59
:100C3000BED106EB0A0393F8292064F3000283F87F
:100C4000292093F8292064F3820283F829204FF0A9
:100C5000E023D3F8F03DDB07A9D500BEA8E72F8439
:100C60002B8C9B06FCD4C2E72846FFF785FC0124A9
:100C7000A5F86040D8E7C3F8008005230124A5F853
:100C80006030D1E7C007002018050020242E0000A6
:100C900098050020002210F0800F11460CBF802024
:100CA0001046FFF76FBFFFFF10B40346064C006805
:100CB0002246596803C20022C4E902225DF8044BAF
:100CC0001878FFF7E7BF00BF84050020F8B5038957
:100CD00044899BB2A4B28588A34236BFC4EB450CBD
:100CE000A3EB040C9C441FFA8CFC654506461ED8F9
:100CF0000020074603460446944228BF14463D1987
:100D0000AF422BD1121B92B23AB1934228BF134685
:100D1000C218904227D123449CB231892246B08820
:100D200089B2FFF7BCFB3081F8BD5B1B9BB29D42D3
:100D3000FBD9A5420FD93068A34200EB030735BFAA
:100D40000020EC1AE31AA3EB0C0335BF9CB2A4B24B
:100D500003469BB2D0E7641BA4B2EAE791F800C057
:100D600007F801CBCCE70D7800F8015BD1E7FFFF76
:100D70002DE9F04180460024164D174E174F2A7872
:100D8000E3B29A4210D23D220021154801F096FEAE
:100D90001022FF21134801F091FEBDE8F04114221A
:100DA000FF21114801F08ABE0CD93A6812EB4313B7
:100DB0000BD14FF0E023D3F8F03DDB0700D500BEA8
:100DC000BDE8F0819B1A06EB43134046DB68984769
:100DD0000134D4E780050020A82C00007C05002009
:100DE000C0070020C5070020D507002070B5058981
:100DF000038942899BB292B28688934236BFC2EB86
:100E000046029B1A9B189BB29E420446ADB217D86D
:100E1000C079C00914D170BD9B1B9BB2B342FBD2F9
:100E2000E2882068C2F30E0202FB030001F0D0FD4D
:100E300001222946A088FFF732FB20810120EAE742
:100E40002B46EBE713B5124B9889D98993F90040EB
:100E5000421A92B2402A28BF4022002C0EDA884261
:100E600012D099680B48019201F0B2FD8020094927
:100E7000019A02B0BDE81040FFF784BE88424FF0EF
:100E8000000003D10021F4E78020FBE70149F0E7EF
:100E9000840500208007002070B50446164D0068C8
:100EA0002E460B466168AB6003C60021E981E188EC
:100EB0008A4228BF0A46AA81E18881B152B14BB962
:100EC0004FF0E022D2F8F02DD20701D4002070BDFF
:100ED00000BEFBE7FFF7B6FF28B10120F7E7207857
:100EE000FFF7D8FEF8E74FF0E023D3F8F03DDB073B
:100EF000ECD500BEEBE700BF8405002007B58DF8F8
:100F000000208DF801301A0A1B0C8DF803300023E5
:100F10008DF802208DF80410062269468DF8053000
:100F2000FFF7BAFF03B05DF804FBFFFF2DE9F04FB8
:100F300089B0A44B00201D682B689847A989EB89CC
:100F400089B29BB22889994236BFC3EB4002CA1AC4
:100F5000521894B29CB1A04205D281422CBF091A0A
:100F600009188BB2EB81984226D96A896968C2F365
:100F70000E0202FB031105A801F02AFD0124E989F4
:100F80002246288989B2FFF78AFA2B68E881012076
:100F90009847002C00F0D2839DF81530013B072BB9
:100FA00000F27883DFE813F00B001900F103D80397
:100FB000DC0328005503E9031B1A9BB2D3E79DF815
:100FC0001400FFF7D5FE142200217F4801F076FDC2
:100FD0009DF818207D4B9A70ABE79DF81400FFF741
:100FE000C7FE14220021784801F068FD784B002BE1
:100FF0009FD0AFF300809CE7744CE378013BDBB2F9
:10100000E370E27802F0FF03002A92D12278DFF841
:10101000B88142F00102227094F82920C8F81030FB
:1010200063F3000284F8292094F829209DF81460C5
:1010300063F3820284F8292094F82A2063F30002E3
:1010400084F82A2094F82A2063F3820284F82A2064
:101050009DF8182002F06003602B08D14FF0E023C8
:10106000D3F8F03DD80740F1858200BE82E2402BE4
:101070000ED1584B002B00F07D820121304606AA8C
:10108000C8F81030AFF3008000287FF452AF71E24F
:1010900002F01F02012A00F0EE81022A00F0158200
:1010A000002ADBD1202B1CD19DF81C300F2B00F225
:1010B0006182494A23445B7911788B420AD2474ABC
:1010C000116811EB431100F0558206AA3046FFF774
:1010D000DBFAD9E740F04E825B1A414901EB43113C
:1010E000F3E7002BBAD19DF81930092BB6D801A22D
:1010F00052F823F057140000451400005D10000062
:10110000311400005D1000001D11000023130000C9
:101110005D100000371100004111000008AB13E919
:1011200003000023C8E902332378C8E9000143F033
:1011300002032370FDE6637801228DF8123094E1FA
:101140009DF81A7063789F4200F0CC80637803B3F7
:101150004FF00008234BDFF8949053F8365089F88D
:1011600098802B8E304668F34D332B86FFF794F82A
:101170004B464FF00A0CCE4605F1600BBCF1010C5A
:1011800036D13046FFF772F8A5783046FFF7F0FD0C
:10119000A570002F00F0BF804FF00109237812499D
:1011A00023F03003DFF830A023704B78042B58D0A5
:1011B0004FF0E023D3F8F03DDD077FF54FAF00BEE1
:1011C0004CE700BF0008002084050020C007002075
:1011D0000000000000000000800500207C050020C9
:1011E000A82C0000242E0000112D000098050020DE
:1011F00093F8742032B34FF0010A02F07F09D2094C
:1012000011010EEB02124A4492F87820E88E0AFA95
:1012100002FA80B220EA0A00E886AAB102F1370099
:1012200005EB4000A0F8008090B2A5F864000C2007
:1012300000FB02E271448944A5F8688082F80880C6
:1012400089F878800C3B99E75846EBE743780B2BFD
:1012500003BF037890F80390C0184FF001090146CE
:10126000A3E74FF00008AD4BDFF8F0B25A1A92B284
:101270009AF800305FFA88F5AB4299D311D9A84BA0
:101280001B6813EB451393D030461B69CDE901125F
:101290009847DDE90112082837D9824235D3002268
:1012A00010E0EB1A0BEB4313EEE791F802C00132AA
:1012B000634454FA83F393F805C0BCF1FF0F7FF445
:1012C00077AF5D71D3B29945EFD8084488420ED804
:1012D0009AF80030AB42FFF46BAF904B9842B5D315
:1012E000904BABB9677006A8FFF7DEFC21E64B78A0
:1012F000052B07D18A7802F07F0304EB430303EB4D
:10130000D2135D750B781944E0E708F10108AFE7E7
:10131000AFF30080E6E7844B002BE3D0AFF300800F
:10132000E0E7BDF81A00030A5A1EC0B20E2A00F206
:101330002181DFE812F00F00210030001F011F01A2
:10134000710021001F011F011F011F011F011F014B
:101350001F0115001222754906A8FFF79DFD93E6AF
:10136000734B002B00F00681AFF30080014600288C
:101370003FF474AE4A88EFE7022B01D16D49F9E7DB
:101380006D4B002B00F0F680AFF3008000283FF497
:1013900065AE0146EEE770B902226849684801F07F
:1013A00017FB01204000821C664942F440730B8009
:1013B00002F0FE02D0E7052800F2DC80624B634CAD
:1013C00053F820602378BBB9614D2146D5F89000D1
:1013D000FFF7C1F9D5F8940004F10801FFF7BBF954
:1013E000D5F8980004F11001FFF7B5F9D5F89C0085
:1013F00004F11801FFF7AFF9304601F0B1FB00230B
:101400005049C0B2DAB2824203F10103CAD2541C7D
:10141000B25C21F81420F5E74E4B002B00F0AA80B7
:10142000AFF300800146002800F0A480027893E723
:10143000BDF81A30012B40F09D80237843F008035B
:10144000237050E7BDF81A30012B40F093802378C9
:101450006FF3C303F4E72378C3F340129B0803F050
:10146000020313430222ADF812300DF1120106A857
:10147000FFF712FD5DE59DF81C300F2B7AD8364A38
:1014800023445B79127893421CD2254A116811EBF0
:1014900043116FD0304606AAFFF7F6F800287FF414
:1014A00048AD9DF8183013F0600363D19DF8192002
:1014B000A2F10A0101295DD80A2AC8F810307FF488
:1014C00012AF39E656D12549E4E79DF81C9009F0A2
:1014D0007F02092A3FF6C2AD1F49550004EB4202C4
:1014E00002EBD912527D09784FEAD91B8A4237D2D2
:1014F0000B490F6807EB4217002B39D19DF81920D3
:1015000002F0FD03012B40D0002A7FF4A7AD2C444C
:10151000A3449BF82930C3F34003A3E72C2D00001C
:101520007C05002000000000000000002C2D0000C1
:1015300000000000082D000000000000A42C0000A6
:101540003606002034060020342E0000988A002041
:10155000008100010000000080050020A82C000090
:1015600040F017818D4F002BC8D0394606AAADE553
:10157000002FFAD100219DF81400FEF7A7FE80216C
:101580009DF81400FEF7A2FED3E4BDF81A30002B3C
:101590003DD1834B012A1B784AD149461846039214
:1015A0000193FEF72DFE824618B3019B7D49184634
:1015B00051F833100291FEF76FFEDDE901314FF46F
:1015C0008070039AAAF80000BBF1000F02D0AAF8BD
:1015D00000200BE07448484490F87800A1F86400BB
:1015E000B1F86810C1F381310129F0D11846FEF736
:1015F0003DFE2544AB449BF829306FF341038BF843
:1016000029309BF829306FF300038BF82930002F25
:101610003FF48FAC3946304606AAFFF735F8002371
:10162000C8F8103094F82A30DC073FF582AC5AE64F
:101630002544AB4418464946FEF748FE9BF829303E
:1016400043F002038BF829309BF8293043F0010363
:10165000DBE79DF81810554B01F07F0403EB4403C2
:1016600003EBD11393F82900CF096FF3000083F83F
:10167000290093F829006FF3820083F82900002CD9
:101680004BD14B4C9DF814602378079DB7EBD31FCB
:1016900012D045B14FF0E023D3F8F03DDB077FF5E2
:1016A00048AC00BE45E42369002B3FF442AC22461F
:1016B0000321304698473CE494F90030002B07DBC7
:1016C000A06800283FF435AC2A463A4901F080F979
:1016D000A268E3892A442B44A260E2889BB29A4222
:1016E000E38101D03F2D15D8236933B92078FFF766
:1016F000D1FA00287FF41DACCCE7022130462C4AF9
:10170000984701460028F1D13046FEF7DFFD8021E1
:10171000304637E7FFF796FBEBE75A7D264B1B7801
:101720009A420ED2254B1B6813EB42130BD14FF09C
:10173000E023D3F8F03DD90700D500BE09B0BDE8DD
:10174000F08FF4D1154B9C699DF81920079B9DF8EB
:101750001400A047FFF7EDBB144B1B78FFF7E9BB64
:10176000124B1B78DA077FF5E4AB154B002B3FF4E7
:10177000E0ABAFF30080FFF7DCBB069B002B3FF430
:10178000D8AB07989847FFF7D4BB084B1B79FFF7F6
:10179000D0BB002B7FF4EEAE1F46AFE6A82C0000B6
:1017A00018050020242E000098050020C007002006
:1017B0008405002080070020800500207C05002093
:1017C0000000000008B50D4C0D4E256832782368E6
:1017D0005B1B632B0CD9BFF34F8F0A490A4BCA68B6
:1017E00002F4E0621343CB60BFF34F8F00BFFDE70D
:1017F000FF2AECD0FFF79AFBE8E700BF248B00201C
:101800001805002000ED00E00400FA052DE9FF4175
:1018100043780446023B042B13D8DFE803F0037A35
:10182000161E80000021414B1A786FF300021A70D7
:101830001A786FF341021A7059701A7861F38202B4
:101840001A703B4B2146186851E0384B1A78D6077E
:1018500058D51A7842F00402F2E7344A1378DD07CB
:1018600050D513786FF382031370EAE74DD9D8F897
:10187000002012EB431304D0DB6913B161682078B8
:10188000984701353278EBB29A42EFD2274D2B7848
:1018900058071BD52B7801A96FF382032B70002307
:1018A000CDE90133039323788DF8043005238DF8B7
:1018B00005301F4B18680430FFF798FA30B94FF025
:1018C000E023D3F8F03DD90700D500BE2B79DA0725
:1018D00018D5002301930393237801A98DF80430D0
:1018E00003238DF8053063680293114B18680430A8
:1018F000FFF77CFA30B94FF0E023D3F8F03DDB0777
:1019000000D500BE04B0BDE8F0819B1A07EB43137D
:10191000B2E70025074E084FDFF82080B2E7034A00
:10192000D3780133DBB2D3708BE700BFC007002050
:101930000008002080050020A82C00007C05002065
:101940002DE9F04FB14C8BB0FEF77CFDFEF780FD2A
:10195000B4F84020D34363F478439BB2100495B2AB
:10196000A4F8403011D5B4F8403013F0800FC3F321
:10197000C01223881DBF43F480732380238862F341
:10198000041318BF43F010032380690412D5002309
:10199000CDE90733099340F2015307A8ADF81C3095
:1019A000FFF734FF9A4B93F898201AB9238E62F30D
:1019B0004D332386AA0419D5238E9B0416D5002205
:1019C000B4F84C300792099240F20132C3F30A0393
:1019D00007A8ADF81C200893FFF718FF8C4B93F86D
:1019E00098201AB9238E62F34D332386EF0407D56E
:1019F00005F07003202B00F0D8805ED8102B7AD031
:101A000028052DD5E90740F1EF80B4F840301A07DA
:101A100026D54FF480436384B4F854300822ADF8DF
:101A20001430B4F8563005A9ADF81630B4F8583073
:101A300008A8ADF81830B4F85A30ADF81A304FF69F
:101A4000F773A4F840300023CDE90733099340F23F
:101A50000163ADF81C3000F0BBFF07A8FFF7D6FE0E
:101A60006B0515D50022B4F84A30A4F84A20DF07E8
:101A70000ED56648FEF780FD50B140F20176802217
:101A8000634B07A89B88CDE907620993FFF7BEFE69
:101A9000ED050FD5E38EB4F84670DFF88491BFB240
:101AA0001F40FB43DFF864A19BB2A4F84630002F2F
:101AB00040F0B8800BB0BDE8F08F602B04D018D890
:101AC00005F06003402B9BD10023CDE90733099338
:101AD00040F2014307A8ADF81C30FFF797FE4C4BCE
:101AE00093F89830002B8BD1238E43F40053238638
:101AF00086E7702BE7E701236387E3864FF4804393
:101B0000638400232385238D13F00F03FBD1A3856A
:101B1000A28D12F00F02FBD101234FF400774FF496
:101B200080763C483C491FFA83FCA4F864C0A4F8C2
:101B3000682021F8137021F8132020F82360013366
:101B4000062BF0D100264FF4007298B2A4F864007E
:101B5000A4F8686021F8132021F8136001330A2BE0
:101B6000F3D19C2200212A4800F0A8FF238903F02A
:101B70000703013B9BB2022B0ED8284ACDE907662A
:101B8000D35C40F201120996ADF81C208DF820308C
:101B900007A8FFF73BFE33E74FF0E023D3F8F03D13
:101BA000DE077FF52DAF00BE2AE7B4F8503013F002
:101BB0007F023FF425AF00230521CDE907338DF8DF
:101BC0001430ADF81830ADF81A30099340F20163C3
:101BD0008DF81510ADF8162005A9082208A8ADF853
:101BE0001C3000F0F5FED3E715F007037FF438AFA3
:101BF000228C40F2017112F0200F14BF80220022CB
:101C0000CDE9071309938DF8202026E70010114035
:101C1000980500208C1011406E101140A12C00007E
:101C20001810114097FAA7F60C23B6FA86F6584D0D
:101C300003FB06531A7AD2091CD031465046FEF7F0
:101C4000CDFC88B10C2303FB0655E988AB8840F234
:101C500001705B1A00212A7ACDE9070107A88DF8E7
:101C600020200993FFF7D2FD012303FA06F627EAA5
:101C700006071CE7002E57D0B2B2DB882285A4F8F5
:101C80006420B4F86CB01FFA8BFB228D02F00F02B7
:101C90009642FAD1628D9004FCD5B4F82A800C21CA
:101CA000C8F30B08D84528BFD84643451A4628BF75
:101CB00042467143685805EB010C5AB19CF8091073
:101CC00009B34946CDE902230190FEF7FFFFDDE9A4
:101CD0000102039B934584BF4FF48041618500213D
:101CE0002185218D0907FCD10C2101FB065CA3EBAA
:101CF000020E9345ACF806E001D84345B4D8002362
:101D000071436B509DE7014600EB020C614506D123
:101D10004FF00C0C0CFB06FC45F80C10DAE794F8BD
:101D200018E001F801EBF1E7B4F85EB0B4F82280F6
:101D30000BF07F0BC8F30B08D84528BFD846EB88BB
:101D400043451A4628BF42464AB1697A2868A9B174
:101D50001049CDE90123FEF7B9FFDDE901239345E1
:101D600084BF4FF480416184991A9345E98002D879
:101D700043453FF679AF00232B6063E78118884223
:101D800001D12860EBE794F814C000F801CBF6E726
:101D9000980500201410114070B5FEF753FB13494D
:101DA000134B0A7C53F8206005461007D1F88010C9
:101DB000D3B214D41A0614D4DB0614D511F4405F40
:101DC00014BF07240624304600F006FF2846FEF71D
:101DD0003FFB21463046BDE87040FEF705BD0424B8
:101DE000F1E70524EFE70724EDE700BF00E07F40BF
:101DF0001889002038B5FEF725FB1A4B53F8204010
:101E0000FEF726FB94F83450012D0CD1236BE3B17F
:101E100000220421204600F0E3FE08B32046BDE87E
:101E2000384000F0D9BE022D08D1256B6DB1204697
:101E3000BDE838400022402100F0C6BE0A4B93F8AE
:101E4000D430012B0CBF0325022500F0B9FE00237E
:101E500084F8343029462046BDE83840FEF7C4BC3B
:101E600038BD00BF1889002000E07F40094B0A48B8
:101E70001A880A4B03EA8213094A03F58033128851
:101E800052080263074AC0E90A23002380F834306D
:101E900000F0AABEC4080020C88800200080FFFF10
:101EA000C6880020C608002070B513780C4603F0E1
:101EB0001F010129154640F0108113F060031CD169
:101EC00052780A2A0FD00B2A40F00781012C40F0EB
:101ED000CE806A88824B5A70FEF7E8FB2846BDE840
:101EE0007040FEF7E1BE012C40F0C18022467D49E2
:101EF0002846BDE87040FEF7CFBF202B40F0ED80B4
:101F00005378062B00F2E980DFE803F004361F5611
:101F100010161000012C04D12846FEF7C5FE2046FD
:101F200070BD032C40F0A380FFF74CFC012C40F067
:101F30009E80FEF7BBFBEFE7012C40F09880224625
:101F400028466949FEF7A8FFE9E7012C40F08F8099
:101F5000634E347814F00204E1D0EC88402C00F297
:101F6000BC8069882246614306F10C0000F030FD18
:101F7000224606F10C01BBE7012C78D1584B1C78A6
:101F800014F00104CBD09A78022A02D0052A40F03E
:101F9000A480EA88402A00F2A08001221A716A888F
:101FA000DA80EA881A81EA881AB1032199704F49C8
:101FB0009EE706229A7091E7494A9178032905D055
:101FC000062956D0012C52D1002309E0012C0BD157
:101FD00013793BB153780421002B0CBF00236423F9
:101FE000D27851E00521FBE7032C40D11479002C75
:101FF0003BD0042315899370D3883D4A138047F65C
:10200000C07203F58063990112EA831315D172B689
:10201000384A384882F8343021F40013B3F5803F51
:1020200038BF21F4FF514FF0010234BF21F01F01EE
:1020300001F4FF0100F0DCFD62B62F4E2F4833881B
:102040002A461844294900F0C3FC33881D44ADB228
:10205000B5F5004F358005D172B6FFF707FF62B6C0
:1020600000233380FEF7FCFC59E70523937001241D
:1020700055E7012C0DD11379D278002B08BF02212E
:102080004FF0000318BF07212846BDE87040FEF757
:1020900035BF032CEBD11479ECB10723937072B6E2
:1020A000FFF7E4FE62B600261249FEF7D9FC4B6842
:1020B0000E6093F91100B04201DBFEF771FB104D89
:1020C0002E764B6893F91300002801DBFEF768FBBE
:1020D00000232B7523E70223C8E700241FE700BF76
:1020E0003407002035070020360700204007002075
:1020F000C4080020C8880020C6880020C608002028
:1021000000E07F402DE9FF484FF47002BC4BBD4D0D
:10211000C3F888209D604AF20353BB4CBB49A4F826
:10212000FE33FEF7EDF8BA4BBA4ABB48C3E90012DA
:102130004FF40042B9491A61C3E90221B84AC3E920
:102140000502FEF7F1F8002384F81334092384F81C
:10215000A23094F8803433B9012140F2C44084F8AD
:102160008014FEF7FBF80023A74884F8813484F834
:10217000803484F8323090F83C301B07FBD542F2B3
:10218000017343F20212A0F84830002380F84A306D
:10219000028580F82A3090F83C309F06FBD5032258
:1021A000A04B83F81C21A04B0362052380F8263046
:1021B000FEF7BAF8012380F8303080F8523090F8FA
:1021C000743043F0400380F874308F4B93F87420E0
:1021D000D209FBD00622462183F86C2083F87410C4
:1021E00083F8742093F87420D209FBD193F87720F8
:1021F00042F0400283F87720834B93F87720D2098E
:10220000FBD0022283F86F20C62283F8772093F850
:10221000772002F0BF0283F877207B4B93F877405A
:10222000E409FBD14FF42542A3F8FE232B68A3F564
:10223000805383F30A887D487D4A2146121A00F0B4
:102240003DFC7C487C4A7D49121A00F0C1FB2746C0
:102250007B4E7C4DAD1BAD10BD4200F34F8200267E
:10226000794DFEF761F8C820012185F82860FEF756
:1022700075F885F8246095F82430002BFBD195F88B
:10228000243043F0020385F824306F4B93F8242068
:102290009607C2F34005F9D4012083F82250FEF7D7
:1022A000A9F8594B694F83F8BB54FEF777F8032020
:1022B000FEF7A0F82B464FF6FF7103F10802013339
:1022C000092B27F81210F8D10320FEF767F8032036
:1022D000FEF790F86FF0FF025D4B5E4D9A640C22A2
:1022E000FF210DEB020000F0E9FB2E4600234FF02A
:1022F000010C36F8022B6AB106A95A0901EB8202D9
:1023000003F01F010CFA01F052F80C1C21EA000145
:1023100042F80C1C0133602BEBD103994C4A4E4B15
:102320001167C3F88012049903205167C3F884121F
:1023300005999167C3F88812FEF730F80023474AE1
:1023400003F1C00135F8020B0133602B42F8210084
:10235000F6D162B6DFF818B1414BDBF800109942B4
:1023600000F0BC80DFF80C810021C246264DCBF87E
:1023700000304FF000093B4B0093009BBAF804601B
:1023800033F8020B864200931CD10123DAF80000D7
:1023900003FA09F600F0B850B0F1807FF6B295F874
:1023A000BB0440F0B08106420CD118460191FEF703
:1023B00021F895F8BBC446EA0C0685F8BB64FDF726
:1023C000EDFF019909F10109B9F1030FD5D10131EF
:1023D00008290AF1080ACCD1EFF31085012181F315
:1023E00010882149086810B9F8704020F870086812
:1023F0000130086085F310884FF0000C1B4E3BE065
:1024000000ED00E00000000000E00140002D31017F
:102410005C05002000127A0000C2EB0B00366E0152
:10242000001C4E0E00C00140211201207805002042
:10243000288B0020000000205C0500204C2E0000AE
:102440005C0500205C05002000300840000D0840BD
:1024500000800040542D000000E100E000600040DA
:1024600054524F501C2E00001489002000080840D0
:102470001C8B0020C82C0000B8F80450D8F800309D
:10248000280A13F4803FEDB24FEA00100BD000EBA6
:10249000050956F829206FF3104246F8292023F445
:1024A000803246F829200CF1010C2844BCF1080FB9
:1024B00046F8203008F10808DED1EFF3108501203E
:1024C00080F31088086810B108680138086009684E
:1024D00011B9F9708021F97085F310884FF47A7082
:1024E0008F4F3968B1FBF0F10139B1F1807F0AD229
:1024F0004FF0E020F02541618A4981F82350002106
:10250000816107210161DBF80020874B9A4202BFFD
:102510004FF40002854B9A62854B864AD3F800152A
:10252000914240F031814AF20252A3F8FE23002288
:10253000C3F800254FF42542A3F8FE237E487F4BC5
:102540007F4D436000232B762B7580F834300123B8
:10255000774E86F81634336A3968366AC3F30262F6
:1025600001FA02F2C3F30273C6F30266DA4001FA1B
:1025700006F37449F3408A423ED9734902F5742246
:1025800002F23F22B2FBF1F203F5742303F23F2380
:10259000B3FBF1F343F6B85102F5F05292B2A5F84D
:1025A000E42006225943B1FBF2F1816040F6D86184
:1025B0005943B1FBF2F1C1605900B1FBF2F1016185
:1025C00054215943B1FBF2F1416160495943B1FBD8
:1025D000F2F1816144F250615943B1FBF2F1416281
:1025E0005B495943B1FBF2F101625A494B43B3FBDA
:1025F000F2F3C361584B03604F48584D00F0ECFABA
:10260000012202214C4800F0E3FA2B78FF2B40F026
:10261000BF813D220021524800F050FA0022514B68
:10262000DA819A81504A1360504B23B15048AFF37E
:102630000080504B18604E4E4F4FDFF83881327893
:10264000E3B2934240F29781012000274B4A287061
:1026500053684B4E4B4C23F48053536086F898706C
:1026600023884FF47A7143F080032380E38F9BB279
:1026700023F0010343F00203E387FDF76FFEE38FCE
:1026800067F34103E387B4F8023143F48043A4F8CD
:102690000231E388DA07FCD5238840216FF3451324
:1026A0002380238843F0010323800123E28F63F317
:1026B0000922E287B4F85E2061F30602A4F85E20E6
:1026C0000022A4F8402096F89820002A14BF4FF466
:1026D0007D424FF45D4222866387E386B4F8403042
:1026E0001B0607D5238843F480732380238843F097
:1026F000100323800120FDF7B9FD49E156F8043BA2
:1027000098470137A8E506423FF45CAE01200191ED
:10271000FDF770FE95F8BBC42CEA06064DE600BF37
:102720007805002000ED00E054524F5000000840B2
:1027300000E0014035817307C8880020402D00006B
:1027400000E07F40FF083D0040420F0038AF04002A
:1027500080DE0F00A0F703004E45504F1805002003
:10276000C00700200805002000080020000000002D
:10277000800500207C050020A82C000000400840B7
:10278000980500200010114093F81014CD0709D4CB
:102790004AF20251A3F8FE13C3F800254FF4254274
:1027A000A3F8FE23824E716A002900F093807368BB
:1027B000804A934203D0804A934240F08B8096F93E
:1027C0000F30002BC0F2868096F91030002BC0F23B
:1027D00081807A4DDFF8F491EB684B457AD03378FD
:1027E0001F2B77D840F2FF32DA40D00772D50A7833
:1027F0001AB191F90320002A6CDA4FF0000803F5B2
:10280000800303F58C531B022B61B3682E606B6051
:10281000337BC5F838802B72F3696B63336AEB63E3
:10282000EFF31080012383F310884FF00041644BD5
:1028300096F800C05A6821FA0CF122EA01025A60A7
:102840005B6880F31088F0222B68596A2B6983F843
:1028500002802B69DA728B782A6903F00303137004
:10286000FA222B699A714A782B695A700B782A6977
:102870009B0043F02003DBB2D3714A792B691A72B3
:10288000CA782B699A740B792A69DB0043F001033B
:10289000DBB2537223222B699A722B69474A83F861
:1028A0000D80717B96F90F00FDF78CFF434A717B19
:1028B00096F91000FDF786FFC5E90688C5E9088886
:1028C00085F82D80C5F80C9085F82E8085F82F802E
:1028D00085F8308080219C20FEF7E4F820219E209E
:1028E000FEF7E0F8374A1368B3F5FA7FFBD34AF2F4
:1028F000025500204FF425464FF48031324AA2F8A9
:10290000FE53C2F80005A2F8FE630B6803F07F4394
:10291000B3F1005F7FF412AEA2F8FE53EFF3108E16
:102920004FF0010C8CF31088254B5D6845F4006571
:102930005D605D688EF31088EFF3108E8CF3108865
:102940005D6845F480555D605B688EF31088A2F881
:10295000FE6380F30A8872B6BFF34F8FBFF36F8FA9
:102960004FF0E0231861C3F8081D0B6883F3088853
:102970004B689847E2E50FD2D8F8002012EB4313DA
:102980000DD14FF0E023D3F8F03DD90700D500BEBC
:102990002B78FF2B09D1FEE79B1A07EB43135B68EB
:1029A0000134002BEDD0984749E6FEF7BFFAEFE778
:1029B0002C050020A0860100801A0600DC8A002079
:1029C00000400840248B002000E00140433249537E
:1029D000844641EA000313F0030349D1403A23D36C
:1029E0000B6803604B6843608B688360CB68C3608F
:1029F0000B6903614B6943618B698361CB69C36177
:102A00000B6A03624B6A43628B6A8362CB6AC3625E
:102A10000B6B03634B6B43638B6B8363CB6BC36346
:102A200040304031403ADBD230320BD30B68036088
:102A30004B6843608B688360CB68C3601030103193
:102A4000103AF3D20C3205D351F8043B40F8043B62
:102A5000043AF9D2043208D0D2071CBF11F8013B66
:102A600000F8013B01D30B8803806046704700BF2C
:102A7000082A13D38B07B1D010F00303AED0C3F1F3
:102A80000403D21ADB071CBF11F8013B00F8013B1D
:102A9000A4D331F8023B20F8023B9FE7043AD9D394
:102AA000013A11F8013B00F8013BF9D20B780370B1
:102AB0004B7843708B7883706046704770B586079B
:102AC00048D0541E002A3FD0CAB2034601E0013C60
:102AD0003AD303F8012B9D07F9D1032C2DD9CDB2A0
:102AE0000F2C45EA052545EA054536D9A4F1100C19
:102AF00003F1200E03F110022CF00F064FEA1C1C0C
:102B0000B64442E9045542E9025510327245F8D103
:102B10000CF1010214F00C0F04F00F0C03EB021285
:102B200013D0ACF1040323F003030433134442F83D
:102B3000045B9342FBD10CF003042CB1CAB21C44D9
:102B400003F8012B9C42FBD170BD64461346002C58
:102B5000F4D1F9E703461446BFE71A46A446E0E776
:102B600020F0030110F00300C0F1000051F8043B15
:102B700000F1040C4FEACC0C6FF000021CBF22FAEB
:102B80000CF213434FF0010C4CEA0C2C4CEA0C4CA9
:102B9000A3EB0C0222EA030212EACC1204BF51F8A2
:102BA000043B0430F4D0C2F1000102EA0102B2FA9F
:102BB00082F2C2F11F0200EBD2007047FFFFFFFF5D
:102BC0005FF800F0010000205FF800F03501002000
:102BD0005FF800F0810400205FF800F0E1000020C1
:102BE0005FF800F0750100205FF800F04903002055
:102BF0005FF800F0D103002000000504342E352ECC
:102C000030004275696C7420776974682052656E73
:102C10006573617320416476616E63656420466C00
:102C2000657869626C6520536F66747761726520A0
:102C30005061636B6167652076657273696F6E20A2
:102C4000342E352E300041726475696E6F00506FFE
:102C50007274656E746120433333204446550040DE
:102C6000436F6465466C617368202F307830303074
:102C700030303030302F382A384B612C36332A33FD
:102C8000324B67004044617461466C617368202F69
:102C9000307830383030303030302F382A314B6790
:102CA000000100020904FFFF00000000CD06000043
:102CB000D3060000BD060000D9060000A91E0000D2
:102CC00000000000000000000400000007010000F8
:102CD0000000000008040000000C011307040000BD
:102CE000000C011300050000000C01130105000099
:102CF0000000011407070000000C0114000B000085
:102D0000000C0114010B00000902240001010080E5
:102D1000320904000000FE0102040904000100FE63
:102D2000010205092107E803400001011201000228
:102D30000000004041236803000101020301FFFF7E
:102D400000000000890A00000000000000000000F0
:102D5000020702086D006E006B006C007F017D01B0
:102D60007E0131003000930194010000000000005A
:102D70000000000000000000000000000000000053
:102D80000000000000000000000000000000000043
:102D90000000000000000000000000000000000033
:102DA0000000000000000000000000000000000023
:102DB0000000000000000000000000000000000013
:102DC0000000000000000000000000000000000003
:102DD00000000000000000000000000000000000F3
:102DE00000000000000000000000000000000000E3
:102DF00000000000000000000000000000000000D3
:102E000000000000000000000000000000000000C2
:102E1000000000000100020008001000020403048A
:102E20000404FFFF000009400000000000101140F2
:102E300004000000A42C0000462C00004E2C0000D2
:0C2E4000988A00205F2C0000842C000009
:102E4C004FF42A4110B500204FF49644104AB2F8C2
:102E5C008430A2F884109BB2B2F8841089B241B9C4
:102E6C00012B0CD14DF60113A2F8443000F064FA9A
:102E7C0010BD002C08BF4FF4FA70013CECE7802B1E
:102E8C00F6D10122034B5A605A68002AFCD1EFE7B5
:102E9C0000E07F40007000404FF49643B32282B0B4
:102EAC0001930C4B1A700C4AD2F880301B0408D5D5
:102EBC00137C40F2F51013F0100F08BF002002B085
:102ECC007047019B1BB1019B013B0193ECE7142064
:102EDC00F5E700BF00007E4000E07F404FF49643D2
:102EEC00502282B001930C4B1A700C4AD2F88030ED
:102EFC001B0408D5137C40F2F51013F0100F08BF1B
:102F0C00002002B07047019B1BB1019B013B019358
:102F1C00ECE71420F5E700BF00007E4000E07F40A6
:102F2C0038B5436805461A7842B193F9110000F0A0
:102F3C00FFF96B6893F9130000F0FAF90C4BB3F836
:102F4C0084309BB213B9284600F0FAF9FFF7A4FFBE
:102F5C000446FFF7C3FF002C08BF0446FFF770FFC1
:102F6C0000239C4218BF204685F8343038BD00BF82
:102F7C0000E07F4030B50D4C836A0D4D2363202358
:102F8C002B70D0232B70836A1944036B8162013B35
:102F9C000363104612B930BD30B10138D4F880301B
:102FAC001B04F9D50020F6E71420F4E700E07F407D
:102FBC0000007E40F7B50446154622B9436893F9E4
:102FCC00110000F0B5F9E820E36A214A4E081363BA
:102FDC00204BC1F347011870197000218E4210D19B
:102FEC00D0211970002D2CD1636893F91130012276
:102FFC00590903F01F0302FA03F3174A42F8213070
:10300C0019E020690190A06A00881880D2F880002D
:10301C0040050AD4A06A01310230A062E06A023095
:10302C00E062206B01382063D8E70198471E0197B6
:10303C000028EBD11425284603B0F0BD002DF9D0A3
:10304C00013DD2F880301B04F8D50025F3E700BF12
:10305C0000E07F4000007E4000E100E010B50E4B28
:10306C001C7CE40609D5D3F88040640402D51C7C92
:10307C0000241C7440F2F51400E00024D3F88030D6
:10308C000B4218BF144620B90CB1FFF705FF2046C0
:10309C0010BD0446F9E700BF00E07F40402213B5A5
:1030AC00836910480193104B01631A7008221A703F
:1030BC0000220E4931F8024B0132082A1C80F9D14A
:1030CC00D0221A70D0F880301B0402D5002002B038
:1030DC0010BD019B1BB1019B013B0193F2E7142036
:1030EC00F5E700BF00E07F4000007E401A0500209D
:1030FC006FEA415110B56FEA51514FF6FF74074B0F
:10310C0042EAC03040F4F0401C805C80D88099804A
:10311C001C815C819C81DC8110BD00BF1A050020E4
:10312C004FF4964307B500220193154B01461A60E4
:10313C0043681A7842B193F9110000F0F9F84B6822
:10314C0093F9130000F0F4F84FF459430D4AA2F828
:10315C0044304AF60123A2F88430B2F884309BB292
:10316C00012B03D1002003B05DF804FB019B1BB1C4
:10317C00019B013B0193F0E74FF4FA70F3E700BFBA
:10318C000070004000E07F4038B50546FFF7C8FFEF
:10319C00044668B1204638BD6CB98021AA6828461F
:1031AC00FFF708FF18224FF4A041FFF757FF044622
:1031BC002B6B002BF0D1FFF743FE002C08BF04460D
:1031CC00E8E710B50F4B0446D3F890310E4803F0E6
:1031DC000703DB430E2220F8023BFF2100F0A4F88A
:1031EC002046FFF79DFF20460849FFF757FF18229E
:1031FC000021FFF733FF0446FFF722FE002C18BF17
:10320C00204610BD00A000011A05002090A100016D
:10321C0038B5816202630546FFF782FF044650B958
:10322C000122124BA3F8E0202B6B33B9FFF708FEF9
:10323C00002C08BF0446204638BD002CF6D1D5E939
:10324C000712AB6A284623F40013B3F5803F36BF50
:10325C000A464FF400414FF40051FFF78BFE192240
:10326C004FF4C041FFF7FAFE0446DDE700E07F4073
:10327C002DE9F041104B0546D3F8DC600F46904623
:10328C00FFF74EFFF60F044698B94FEA5832304616
:10329C00790BFFF72DFF09492846FFF7FFFE214662
:1032AC001822FFF7DBFE0446FFF7CAFD002C08BF0F
:1032BC0004462046BDE8F08100E07F4030A10001CB
:1032CC00F8B507460D461646FFF72AFF044650B9D7
:1032DC005EB1124B45F4CC45A3F8E850FFF7B0FDB6
:1032EC00002C08BF04462046F8BD1022FF210C48D4
:1032FC0000F01AF847F6FF7215F0010F4FF6FF7346
:10330C0018BF1346064A0749D3803846FFF7C6FE56
:10331C0021461822FFF7A2FE0446DFE700E07F40BB
:10332C001A05002030A100015FF800F0BD2A000052
:10333C005FF800F0A10700005FF800F00103000047
:10334C005FF800F01D08000099060000040800203A
:10335C0010000C0000000000FF00FFFF0000000048
:10336C00000000000000000000000000030000004E
:10337C00A086010000000000010C00090A000000FA
:10338C000000000000000000550700002C05002084
:0C339C0054050020000E00FF0F0100008F
:020000040100F9
:10A10000FFFFFFFFFFFFFFFFFFFFFFFFFFFFFFFF5F
:04A11000FFFFFFFF4F
:04A13400FFFFFFFF2B
:10A20000FFFDFFFFFFFFFFFFFFFFFFFFFFFFFFFF60
:10A21000FFFFFFFFFFFFFFFFFFFFFFFFFFFFFFFF4E
:10A22000FFFFFFFFFFFFFFFFFFFFFFFFFFFFFFFF3E
:10A23000FFFFFFFFFFFFFFFFFFFFFFFFFFFFFFFF2E
:10A24000FFFFFFFFFFFFFFFFFFFFFFFFFFFFFFFF1E
:10A25000FFFFFFFFFFFFFFFFFFFFFFFFFFFFFFFF0E
:10A26000FFFFFFFFFFFFFFFFFFFFFFFFFFFFFFFFFE
:10A27000FFFFFFFFFFFFFFFFFFFFFFFFFFFFFFFFEE
:10A28000F8F8FFFFFFFFFFFFFFFFFFFFFFFFFFFFEC
:10A29000FFFFFFFFFFFFFFFFFFFFFFFFFFFFFFFFCE
:10A2A000FFFFFFFFFFFFFFFFFFFFFFFFFFFFFFFFBE
:10A2B000FFFFFFFFFFFFFFFFFFFFFFFFFFFFFFFFAE
:10A2C000FFFFFFFFFFFFFFFFFFFFFFFFFFFFFFFF9E
:0400000300002105D3
:00000001FF
